{
  "contractName": "CopyrightManagement",
  "abi": [
    {
      "anonymous": false,
      "inputs": [
        {
          "indexed": true,
          "internalType": "address",
          "name": "_caller",
          "type": "address"
        },
        {
          "components": [
            {
              "internalType": "address",
              "name": "ownerAddress",
              "type": "address"
            },
            {
              "internalType": "uint256",
              "name": "Id",
              "type": "uint256"
            },
            {
              "internalType": "string",
              "name": "pHash",
              "type": "string"
            },
            {
              "internalType": "string",
              "name": "IPFSAddress",
              "type": "string"
            },
            {
              "internalType": "string",
              "name": "title",
              "type": "string"
            },
            {
              "internalType": "string",
              "name": "ownerName",
              "type": "string"
            },
            {
              "internalType": "string",
              "name": "ownerEmail",
              "type": "string"
            },
            {
              "internalType": "string",
              "name": "desc",
              "type": "string"
            },
            {
              "internalType": "uint256",
              "name": "price",
              "type": "uint256"
            },
            {
              "internalType": "uint256",
              "name": "publishDate",
              "type": "uint256"
            },
            {
              "internalType": "enum CopyrightManagement.ContentType",
              "name": "contentType",
              "type": "uint8"
            }
          ],
          "indexed": false,
          "internalType": "struct CopyrightManagement.Content",
          "name": "_content",
          "type": "tuple"
        },
        {
          "indexed": false,
          "internalType": "uint256",
          "name": "timestamp",
          "type": "uint256"
        }
      ],
      "name": "addContentEvent",
      "type": "event"
    },
    {
      "anonymous": false,
      "inputs": [
        {
          "indexed": false,
          "internalType": "address",
          "name": "_licensee",
          "type": "address"
        },
        {
          "indexed": false,
          "internalType": "address",
          "name": "_licenser",
          "type": "address"
        },
        {
          "indexed": true,
          "internalType": "uint256",
          "name": "_contentId",
          "type": "uint256"
        },
        {
          "indexed": false,
          "internalType": "uint256",
          "name": "timestamp",
          "type": "uint256"
        }
      ],
      "name": "licensingEvent",
      "type": "event"
    },
    {
      "anonymous": false,
      "inputs": [
        {
          "indexed": true,
          "internalType": "address",
          "name": "_caller",
          "type": "address"
        },
        {
          "indexed": true,
          "internalType": "uint256",
          "name": "_contentId",
          "type": "uint256"
        },
        {
          "indexed": false,
          "internalType": "uint256",
          "name": "_lastPrice",
          "type": "uint256"
        },
        {
          "indexed": false,
          "internalType": "uint256",
          "name": "_currentPrice",
          "type": "uint256"
        },
        {
          "indexed": false,
          "internalType": "uint256",
          "name": "timestamp",
          "type": "uint256"
        }
      ],
      "name": "updateContentEvent",
      "type": "event"
    },
    {
      "inputs": [],
      "name": "agreementCount",
      "outputs": [
        {
          "internalType": "uint256",
          "name": "",
          "type": "uint256"
        }
      ],
      "stateMutability": "view",
      "type": "function",
      "constant": true
    },
    {
      "inputs": [
        {
          "internalType": "uint256",
          "name": "",
          "type": "uint256"
        }
      ],
      "name": "agreements",
      "outputs": [
        {
          "internalType": "uint256",
          "name": "id",
          "type": "uint256"
        },
        {
          "internalType": "address",
          "name": "licensee",
          "type": "address"
        },
        {
          "internalType": "address",
          "name": "licenser",
          "type": "address"
        },
        {
          "internalType": "uint256",
          "name": "contentId",
          "type": "uint256"
        },
        {
          "internalType": "string",
          "name": "purposeOfUse",
          "type": "string"
        },
        {
          "internalType": "uint256",
          "name": "timestamp",
          "type": "uint256"
        }
      ],
      "stateMutability": "view",
      "type": "function",
      "constant": true
    },
    {
      "inputs": [
        {
          "internalType": "address",
          "name": "",
          "type": "address"
        }
      ],
      "name": "balances",
      "outputs": [
        {
          "internalType": "uint256",
          "name": "",
          "type": "uint256"
        }
      ],
      "stateMutability": "view",
      "type": "function",
      "constant": true
    },
    {
      "inputs": [],
      "name": "contentCount",
      "outputs": [
        {
          "internalType": "uint256",
          "name": "",
          "type": "uint256"
        }
      ],
      "stateMutability": "view",
      "type": "function",
      "constant": true
    },
    {
      "inputs": [
        {
          "internalType": "uint256",
          "name": "",
          "type": "uint256"
        }
      ],
      "name": "contents",
      "outputs": [
        {
          "internalType": "address",
          "name": "ownerAddress",
          "type": "address"
        },
        {
          "internalType": "uint256",
          "name": "Id",
          "type": "uint256"
        },
        {
          "internalType": "string",
          "name": "pHash",
          "type": "string"
        },
        {
          "internalType": "string",
          "name": "IPFSAddress",
          "type": "string"
        },
        {
          "internalType": "string",
          "name": "title",
          "type": "string"
        },
        {
          "internalType": "string",
          "name": "ownerName",
          "type": "string"
        },
        {
          "internalType": "string",
          "name": "ownerEmail",
          "type": "string"
        },
        {
          "internalType": "string",
          "name": "desc",
          "type": "string"
        },
        {
          "internalType": "uint256",
          "name": "price",
          "type": "uint256"
        },
        {
          "internalType": "uint256",
          "name": "publishDate",
          "type": "uint256"
        },
        {
          "internalType": "enum CopyrightManagement.ContentType",
          "name": "contentType",
          "type": "uint8"
        }
      ],
      "stateMutability": "view",
      "type": "function",
      "constant": true
    },
    {
      "inputs": [
        {
          "internalType": "string",
          "name": "_pHash",
          "type": "string"
        },
        {
          "internalType": "string",
          "name": "_IPFSAddress",
          "type": "string"
        },
        {
          "internalType": "string",
          "name": "_title",
          "type": "string"
        },
        {
          "internalType": "string",
          "name": "_ownerName",
          "type": "string"
        },
        {
          "internalType": "string",
          "name": "_ownerEmail",
          "type": "string"
        },
        {
          "internalType": "string",
          "name": "_desc",
          "type": "string"
        },
        {
          "internalType": "uint256",
          "name": "_price",
          "type": "uint256"
        },
        {
          "internalType": "enum CopyrightManagement.ContentType",
          "name": "_contentType",
          "type": "uint8"
        }
      ],
      "name": "addContent",
      "outputs": [],
      "stateMutability": "nonpayable",
      "type": "function"
    },
    {
      "inputs": [
        {
          "internalType": "uint256",
          "name": "_id",
          "type": "uint256"
        },
        {
          "internalType": "uint256",
          "name": "_price",
          "type": "uint256"
        }
      ],
      "name": "updateContentData",
      "outputs": [],
      "stateMutability": "nonpayable",
      "type": "function"
    },
    {
      "inputs": [
        {
          "internalType": "uint256",
          "name": "_id",
          "type": "uint256"
        },
        {
          "internalType": "string",
          "name": "_purposeOfUse",
          "type": "string"
        }
      ],
      "name": "licensingContent",
      "outputs": [],
      "stateMutability": "payable",
      "type": "function",
      "payable": true
    },
    {
      "inputs": [],
      "name": "withdraw",
      "outputs": [],
      "stateMutability": "payable",
      "type": "function",
      "payable": true
    }
  ],
  "bytecode": "0x608060405234801561001057600080fd5b50612157806100206000396000f3fe6080604052600436106100865760003560e01c8063b2e975ea11610059578063b2e975ea14610124578063b5ecf91214610140578063bb7bb27814610187578063bd14de96146101b2578063cc459696146101f457610086565b8063049bfc891461008b57806327e235e3146100b45780633ccfd60b146100f15780636165b483146100fb575b600080fd5b34801561009757600080fd5b506100b260048036038101906100ad919061143e565b61021f565b005b3480156100c057600080fd5b506100db60048036038101906100d691906115fa565b61043f565b6040516100e89190611636565b60405180910390f35b6100f9610457565b005b34801561010757600080fd5b50610122600480360381019061011d9190611651565b61052a565b005b61013e60048036038101906101399190611691565b61065c565b005b34801561014c57600080fd5b50610167600480360381019061016291906116ed565b610dc2565b60405161017e9b9a99989796959493929190611828565b60405180910390f35b34801561019357600080fd5b5061019c611179565b6040516101a99190611636565b60405180910390f35b3480156101be57600080fd5b506101d960048036038101906101d491906116ed565b61117f565b6040516101eb969594939291906118fd565b60405180910390f35b34801561020057600080fd5b50610209611283565b6040516102169190611636565b60405180910390f35b60006040518061016001604052803373ffffffffffffffffffffffffffffffffffffffff16815260200160005481526020018a8152602001898152602001888152602001878152602001868152602001858152602001848152602001428152602001836002811115610294576102936117b1565b5b815250905080600260008054815260200190815260200160002060008201518160000160006101000a81548173ffffffffffffffffffffffffffffffffffffffff021916908373ffffffffffffffffffffffffffffffffffffffff1602179055506020820151816001015560408201518160020190816103149190611b71565b50606082015181600301908161032a9190611b71565b5060808201518160040190816103409190611b71565b5060a08201518160050190816103569190611b71565b5060c082015181600601908161036c9190611b71565b5060e08201518160070190816103829190611b71565b506101008201518160080155610120820151816009015561014082015181600a0160006101000a81548160ff021916908360028111156103c5576103c46117b1565b5b02179055509050506000808154809291906103df90611c72565b91905055503373ffffffffffffffffffffffffffffffffffffffff167ff07b8df37765f500739e19c468bc54790b5249527e4c49184dcec3f343de3881824260405161042c929190611e43565b60405180910390a2505050505050505050565b60046020528060005260406000206000915090505481565b6000600460003373ffffffffffffffffffffffffffffffffffffffff1673ffffffffffffffffffffffffffffffffffffffff1681526020019081526020016000205490506000600460003373ffffffffffffffffffffffffffffffffffffffff1673ffffffffffffffffffffffffffffffffffffffff168152602001908152602001600020819055503373ffffffffffffffffffffffffffffffffffffffff166108fc829081150290604051600060405180830381858888f19350505050158015610526573d6000803e3d6000fd5b5050565b6002600083815260200190815260200160002060000160009054906101000a900473ffffffffffffffffffffffffffffffffffffffff1673ffffffffffffffffffffffffffffffffffffffff163373ffffffffffffffffffffffffffffffffffffffff16146105ce576040517f08c379a00000000000000000000000000000000000000000000000000000000081526004016105c590611ee5565b60405180910390fd5b600060026000848152602001908152602001600020600801549050816002600085815260200190815260200160002060080181905550823373ffffffffffffffffffffffffffffffffffffffff167f1eeb26bdb471262add6879ae7e6fafcfa1ca95b0ef788a0311da37b123772e2783854260405161064f93929190611f05565b60405180910390a3505050565b600060026000848152602001908152602001600020604051806101600160405290816000820160009054906101000a900473ffffffffffffffffffffffffffffffffffffffff1673ffffffffffffffffffffffffffffffffffffffff1673ffffffffffffffffffffffffffffffffffffffff168152602001600182015481526020016002820180546106ed90611994565b80601f016020809104026020016040519081016040528092919081815260200182805461071990611994565b80156107665780601f1061073b57610100808354040283529160200191610766565b820191906000526020600020905b81548152906001019060200180831161074957829003601f168201915b5050505050815260200160038201805461077f90611994565b80601f01602080910402602001604051908101604052809291908181526020018280546107ab90611994565b80156107f85780601f106107cd576101008083540402835291602001916107f8565b820191906000526020600020905b8154815290600101906020018083116107db57829003601f168201915b5050505050815260200160048201805461081190611994565b80601f016020809104026020016040519081016040528092919081815260200182805461083d90611994565b801561088a5780601f1061085f5761010080835404028352916020019161088a565b820191906000526020600020905b81548152906001019060200180831161086d57829003601f168201915b505050505081526020016005820180546108a390611994565b80601f01602080910402602001604051908101604052809291908181526020018280546108cf90611994565b801561091c5780601f106108f15761010080835404028352916020019161091c565b820191906000526020600020905b8154815290600101906020018083116108ff57829003601f168201915b5050505050815260200160068201805461093590611994565b80601f016020809104026020016040519081016040528092919081815260200182805461096190611994565b80156109ae5780601f10610983576101008083540402835291602001916109ae565b820191906000526020600020905b81548152906001019060200180831161099157829003601f168201915b505050505081526020016007820180546109c790611994565b80601f01602080910402602001604051908101604052809291908181526020018280546109f390611994565b8015610a405780601f10610a1557610100808354040283529160200191610a40565b820191906000526020600020905b815481529060010190602001808311610a2357829003601f168201915b505050505081526020016008820154815260200160098201548152602001600a820160009054906101000a900460ff166002811115610a8257610a816117b1565b5b6002811115610a9457610a936117b1565b5b815250509050806000015173ffffffffffffffffffffffffffffffffffffffff163373ffffffffffffffffffffffffffffffffffffffff1603610b0c576040517f08c379a0000000000000000000000000000000000000000000000000000000008152600401610b0390611fae565b60405180910390fd5b806101000151341015610b54576040517f08c379a0000000000000000000000000000000000000000000000000000000008152600401610b4b90612040565b60405180910390fd5b80610100015160046000836000015173ffffffffffffffffffffffffffffffffffffffff1673ffffffffffffffffffffffffffffffffffffffff1681526020019081526020016000206000828254610bac9190612060565b92505081905550806101000151341115610c1e57600081610100015134610bd391906120b6565b90503373ffffffffffffffffffffffffffffffffffffffff166108fc829081150290604051600060405180830381858888f19350505050158015610c1b573d6000803e3d6000fd5b50505b60006040518060c0016040528060015481526020013373ffffffffffffffffffffffffffffffffffffffff168152602001836000015173ffffffffffffffffffffffffffffffffffffffff16815260200183602001518152602001848152602001428152509050806003600060015481526020019081526020016000206000820151816000015560208201518160010160006101000a81548173ffffffffffffffffffffffffffffffffffffffff021916908373ffffffffffffffffffffffffffffffffffffffff16021790555060408201518160020160006101000a81548173ffffffffffffffffffffffffffffffffffffffff021916908373ffffffffffffffffffffffffffffffffffffffff160217905550606082015181600301556080820151816004019081610d529190611b71565b5060a0820151816005015590505060016000815480929190610d7390611c72565b919050555081602001517fe9fa38756ffea0ecee7d324d7d4e9aced3133809e1d08da901a40cde70d803c233846000015142604051610db4939291906120ea565b60405180910390a250505050565b60026020528060005260406000206000915090508060000160009054906101000a900473ffffffffffffffffffffffffffffffffffffffff1690806001015490806002018054610e1190611994565b80601f0160208091040260200160405190810160405280929190818152602001828054610e3d90611994565b8015610e8a5780601f10610e5f57610100808354040283529160200191610e8a565b820191906000526020600020905b815481529060010190602001808311610e6d57829003601f168201915b505050505090806003018054610e9f90611994565b80601f0160208091040260200160405190810160405280929190818152602001828054610ecb90611994565b8015610f185780601f10610eed57610100808354040283529160200191610f18565b820191906000526020600020905b815481529060010190602001808311610efb57829003601f168201915b505050505090806004018054610f2d90611994565b80601f0160208091040260200160405190810160405280929190818152602001828054610f5990611994565b8015610fa65780601f10610f7b57610100808354040283529160200191610fa6565b820191906000526020600020905b815481529060010190602001808311610f8957829003601f168201915b505050505090806005018054610fbb90611994565b80601f0160208091040260200160405190810160405280929190818152602001828054610fe790611994565b80156110345780601f1061100957610100808354040283529160200191611034565b820191906000526020600020905b81548152906001019060200180831161101757829003601f168201915b50505050509080600601805461104990611994565b80601f016020809104026020016040519081016040528092919081815260200182805461107590611994565b80156110c25780601f10611097576101008083540402835291602001916110c2565b820191906000526020600020905b8154815290600101906020018083116110a557829003601f168201915b5050505050908060070180546110d790611994565b80601f016020809104026020016040519081016040528092919081815260200182805461110390611994565b80156111505780601f1061112557610100808354040283529160200191611150565b820191906000526020600020905b81548152906001019060200180831161113357829003601f168201915b50505050509080600801549080600901549080600a0160009054906101000a900460ff1690508b565b60015481565b60036020528060005260406000206000915090508060000154908060010160009054906101000a900473ffffffffffffffffffffffffffffffffffffffff16908060020160009054906101000a900473ffffffffffffffffffffffffffffffffffffffff16908060030154908060040180546111fa90611994565b80601f016020809104026020016040519081016040528092919081815260200182805461122690611994565b80156112735780601f1061124857610100808354040283529160200191611273565b820191906000526020600020905b81548152906001019060200180831161125657829003601f168201915b5050505050908060050154905086565b60005481565b6000604051905090565b600080fd5b600080fd5b600080fd5b600080fd5b6000601f19601f8301169050919050565b7f4e487b7100000000000000000000000000000000000000000000000000000000600052604160045260246000fd5b6112f0826112a7565b810181811067ffffffffffffffff8211171561130f5761130e6112b8565b5b80604052505050565b6000611322611289565b905061132e82826112e7565b919050565b600067ffffffffffffffff82111561134e5761134d6112b8565b5b611357826112a7565b9050602081019050919050565b82818337600083830152505050565b600061138661138184611333565b611318565b9050828152602081018484840111156113a2576113a16112a2565b5b6113ad848285611364565b509392505050565b600082601f8301126113ca576113c961129d565b5b81356113da848260208601611373565b91505092915050565b6000819050919050565b6113f6816113e3565b811461140157600080fd5b50565b600081359050611413816113ed565b92915050565b6003811061142657600080fd5b50565b60008135905061143881611419565b92915050565b600080600080600080600080610100898b03121561145f5761145e611293565b5b600089013567ffffffffffffffff81111561147d5761147c611298565b5b6114898b828c016113b5565b985050602089013567ffffffffffffffff8111156114aa576114a9611298565b5b6114b68b828c016113b5565b975050604089013567ffffffffffffffff8111156114d7576114d6611298565b5b6114e38b828c016113b5565b965050606089013567ffffffffffffffff81111561150457611503611298565b5b6115108b828c016113b5565b955050608089013567ffffffffffffffff81111561153157611530611298565b5b61153d8b828c016113b5565b94505060a089013567ffffffffffffffff81111561155e5761155d611298565b5b61156a8b828c016113b5565b93505060c061157b8b828c01611404565b92505060e061158c8b828c01611429565b9150509295985092959890939650565b600073ffffffffffffffffffffffffffffffffffffffff82169050919050565b60006115c78261159c565b9050919050565b6115d7816115bc565b81146115e257600080fd5b50565b6000813590506115f4816115ce565b92915050565b6000602082840312156116105761160f611293565b5b600061161e848285016115e5565b91505092915050565b611630816113e3565b82525050565b600060208201905061164b6000830184611627565b92915050565b6000806040838503121561166857611667611293565b5b600061167685828601611404565b925050602061168785828601611404565b9150509250929050565b600080604083850312156116a8576116a7611293565b5b60006116b685828601611404565b925050602083013567ffffffffffffffff8111156116d7576116d6611298565b5b6116e3858286016113b5565b9150509250929050565b60006020828403121561170357611702611293565b5b600061171184828501611404565b91505092915050565b611723816115bc565b82525050565b600081519050919050565b600082825260208201905092915050565b60005b83811015611763578082015181840152602081019050611748565b83811115611772576000848401525b50505050565b600061178382611729565b61178d8185611734565b935061179d818560208601611745565b6117a6816112a7565b840191505092915050565b7f4e487b7100000000000000000000000000000000000000000000000000000000600052602160045260246000fd5b600381106117f1576117f06117b1565b5b50565b6000819050611802826117e0565b919050565b6000611812826117f4565b9050919050565b61182281611807565b82525050565b60006101608201905061183e600083018e61171a565b61184b602083018d611627565b818103604083015261185d818c611778565b90508181036060830152611871818b611778565b90508181036080830152611885818a611778565b905081810360a08301526118998189611778565b905081810360c08301526118ad8188611778565b905081810360e08301526118c18187611778565b90506118d1610100830186611627565b6118df610120830185611627565b6118ed610140830184611819565b9c9b505050505050505050505050565b600060c0820190506119126000830189611627565b61191f602083018861171a565b61192c604083018761171a565b6119396060830186611627565b818103608083015261194b8185611778565b905061195a60a0830184611627565b979650505050505050565b7f4e487b7100000000000000000000000000000000000000000000000000000000600052602260045260246000fd5b600060028204905060018216806119ac57607f821691505b6020821081036119bf576119be611965565b5b50919050565b60008190508160005260206000209050919050565b60006020601f8301049050919050565b600082821b905092915050565b600060088302611a277fffffffffffffffffffffffffffffffffffffffffffffffffffffffffffffffff826119ea565b611a3186836119ea565b95508019841693508086168417925050509392505050565b6000819050919050565b6000611a6e611a69611a64846113e3565b611a49565b6113e3565b9050919050565b6000819050919050565b611a8883611a53565b611a9c611a9482611a75565b8484546119f7565b825550505050565b600090565b611ab1611aa4565b611abc818484611a7f565b505050565b5b81811015611ae057611ad5600082611aa9565b600181019050611ac2565b5050565b601f821115611b2557611af6816119c5565b611aff846119da565b81016020851015611b0e578190505b611b22611b1a856119da565b830182611ac1565b50505b505050565b600082821c905092915050565b6000611b4860001984600802611b2a565b1980831691505092915050565b6000611b618383611b37565b9150826002028217905092915050565b611b7a82611729565b67ffffffffffffffff811115611b9357611b926112b8565b5b611b9d8254611994565b611ba8828285611ae4565b600060209050601f831160018114611bdb5760008415611bc9578287015190505b611bd38582611b55565b865550611c3b565b601f198416611be9866119c5565b60005b82811015611c1157848901518255600182019150602085019450602081019050611bec565b86831015611c2e5784890151611c2a601f891682611b37565b8355505b6001600288020188555050505b505050505050565b7f4e487b7100000000000000000000000000000000000000000000000000000000600052601160045260246000fd5b6000611c7d826113e3565b91507fffffffffffffffffffffffffffffffffffffffffffffffffffffffffffffffff8203611caf57611cae611c43565b5b600182019050919050565b611cc3816115bc565b82525050565b611cd2816113e3565b82525050565b600082825260208201905092915050565b6000611cf482611729565b611cfe8185611cd8565b9350611d0e818560208601611745565b611d17816112a7565b840191505092915050565b611d2b81611807565b82525050565b600061016083016000830151611d4a6000860182611cba565b506020830151611d5d6020860182611cc9565b5060408301518482036040860152611d758282611ce9565b91505060608301518482036060860152611d8f8282611ce9565b91505060808301518482036080860152611da98282611ce9565b91505060a083015184820360a0860152611dc38282611ce9565b91505060c083015184820360c0860152611ddd8282611ce9565b91505060e083015184820360e0860152611df78282611ce9565b915050610100830151611e0e610100860182611cc9565b50610120830151611e23610120860182611cc9565b50610140830151611e38610140860182611d22565b508091505092915050565b60006040820190508181036000830152611e5d8185611d31565b9050611e6c6020830184611627565b9392505050565b7f596f7520617265206e6f7420746865206f776e6572206f662074686520636f6e60008201527f74656e7400000000000000000000000000000000000000000000000000000000602082015250565b6000611ecf602483611734565b9150611eda82611e73565b604082019050919050565b60006020820190508181036000830152611efe81611ec2565b9050919050565b6000606082019050611f1a6000830186611627565b611f276020830185611627565b611f346040830184611627565b949350505050565b7f596f752061726520746865206f776e65722e596f75206172652066726565207460008201527f6f2075736520796f7572206f776e20636f6e74656e7400000000000000000000602082015250565b6000611f98603683611734565b9150611fa382611f3c565b604082019050919050565b60006020820190508181036000830152611fc781611f8b565b9050919050565b7f416d6f756e74206f662045746865722070726f7669646564206973206c65737360008201527f207468616e20636f6e74656e7420707269636500000000000000000000000000602082015250565b600061202a603383611734565b915061203582611fce565b604082019050919050565b600060208201905081810360008301526120598161201d565b9050919050565b600061206b826113e3565b9150612076836113e3565b9250827fffffffffffffffffffffffffffffffffffffffffffffffffffffffffffffffff038211156120ab576120aa611c43565b5b828201905092915050565b60006120c1826113e3565b91506120cc836113e3565b9250828210156120df576120de611c43565b5b828203905092915050565b60006060820190506120ff600083018661171a565b61210c602083018561171a565b6121196040830184611627565b94935050505056fea2646970667358221220ce043a4153f6b7ea28dc0e0d195b2bcf6ab434aaf2cc0f569a7f312dad23c80e64736f6c634300080f0033",
  "immutableReferences": {},
  "source": "// SPDX-License-Identifier: MIT\npragma solidity ^0.8.15;\n\ncontract CopyrightManagement {\n    enum ContentType {\n        IMAGE,\n        AUDIO,\n        TEXT\n    }\n    struct Content {\n        address ownerAddress;\n        uint256 Id;\n        string pHash;\n        string IPFSAddress;\n        string title;\n        string ownerName;\n        string ownerEmail;\n        string desc;\n        uint256 price;\n        uint256 publishDate;\n        ContentType contentType;\n    }\n    struct Agreement {\n        uint256 id;\n        address licensee;\n        address licenser;\n        uint256 contentId;\n        string purposeOfUse;\n        uint256 timestamp;\n    }\n    event addContentEvent(\n        address indexed _caller,\n        Content _content,\n        uint256 timestamp\n    );\n    event updateContentEvent(\n        address indexed _caller,\n        uint256 indexed _contentId,\n        uint256 _lastPrice,\n        uint256 _currentPrice,\n        uint256 timestamp\n    );\n    event licensingEvent(\n        address _licensee,\n        address _licenser,\n        uint256 indexed _contentId,\n        uint256 timestamp\n    );\n\n    uint256 public contentCount;\n    uint256 public agreementCount;\n\n    mapping(uint256 => Content) public contents;\n    mapping(uint256 => Agreement) public agreements;\n    mapping(address => uint256) public balances;\n\n    function addContent(\n        string memory _pHash,\n        string memory _IPFSAddress,\n        string memory _title,\n        string memory _ownerName,\n        string memory _ownerEmail,\n        string memory _desc,\n        uint256 _price,\n        ContentType _contentType\n    ) public {\n        Content memory content = Content(\n            msg.sender,\n            contentCount,\n            _pHash,\n            _IPFSAddress,\n            _title,\n            _ownerName,\n            _ownerEmail,\n            _desc,\n            _price,\n            block.timestamp,\n            _contentType\n        );\n        contents[contentCount] = content;\n        contentCount++;\n        emit addContentEvent(msg.sender, content, block.timestamp);\n    }\n\n    function updateContentData(uint256 _id, uint256 _price) public {\n        require(\n            msg.sender == contents[_id].ownerAddress,\n            \"You are not the owner of the content\"\n        );\n        uint256 lastPrice = contents[_id].price;\n        contents[_id].price = _price;\n        emit updateContentEvent(\n            msg.sender,\n            _id,\n            lastPrice,\n            _price,\n            block.timestamp\n        );\n    }\n\n    function licensingContent(\n        uint256 _id,\n        string memory _purposeOfUse\n    ) public payable {\n        Content memory content = contents[_id];\n        require(\n            msg.sender != content.ownerAddress,\n            \"You are the owner.You are free to use your own content\"\n        );\n        require(\n            msg.value >= content.price,\n            \"Amount of Ether provided is less than content price\"\n        );\n        balances[content.ownerAddress] += content.price;\n        if (msg.value > content.price) {\n            uint256 excess = msg.value - content.price;\n            payable(msg.sender).transfer(excess);\n        }\n        Agreement memory agreement = Agreement(\n            agreementCount,\n            msg.sender,\n            content.ownerAddress,\n            content.Id,\n            _purposeOfUse,\n            block.timestamp\n        );\n        agreements[agreementCount] = agreement;\n        agreementCount++;\n        emit licensingEvent(\n            msg.sender,\n            content.ownerAddress,\n            content.Id,\n            block.timestamp\n        );\n    }\n\n    function withdraw() public payable {\n        uint refund = balances[msg.sender];\n        balances[msg.sender] = 0;\n        payable(msg.sender).transfer(refund);\n    }\n}\n",
  "sourcePath": "/home/katai/Documents/GitHub/digital-copyright-management/truffle/contracts/CopyrightManagement.sol",
  "compiler": {
    "name": "solc",
    "version": "0.8.15+commit.e14f2714.Emscripten.clang"
  },
  "schemaVersion": "3.4.11",
  "updatedAt": "2023-03-30T20:19:11.073Z",
  "networkType": "ethereum",
  "devdoc": {
    "kind": "dev",
    "methods": {},
    "version": 1
  },
  "userdoc": {
    "kind": "user",
    "methods": {},
    "version": 1
  }
}