{
  "contractName": "CopyrightManagement",
  "abi": [
    {
      "anonymous": false,
      "inputs": [
        {
          "indexed": true,
          "internalType": "address",
          "name": "_caller",
          "type": "address"
        },
        {
          "components": [
            {
              "internalType": "address",
              "name": "ownerAddress",
              "type": "address"
            },
            {
              "internalType": "uint256",
              "name": "Id",
              "type": "uint256"
            },
            {
              "internalType": "string",
              "name": "pHash",
              "type": "string"
            },
            {
              "internalType": "string",
              "name": "IPFSAddress",
              "type": "string"
            },
            {
              "internalType": "string",
              "name": "title",
              "type": "string"
            },
            {
              "internalType": "string",
              "name": "desc",
              "type": "string"
            },
            {
              "internalType": "string",
              "name": "fieldOfUse",
              "type": "string"
            },
            {
              "internalType": "uint256",
              "name": "price",
              "type": "uint256"
            },
            {
              "internalType": "uint256",
              "name": "publishDate",
              "type": "uint256"
            },
            {
              "internalType": "enum CopyrightManagement.ContentType",
              "name": "contentType",
              "type": "uint8"
            }
          ],
          "indexed": false,
          "internalType": "struct CopyrightManagement.Content",
          "name": "_content",
          "type": "tuple"
        },
        {
          "indexed": false,
          "internalType": "uint256",
          "name": "timestamp",
          "type": "uint256"
        }
      ],
      "name": "addContentEvent",
      "type": "event"
    },
    {
      "anonymous": false,
      "inputs": [
        {
          "indexed": true,
          "internalType": "address",
          "name": "_caller",
          "type": "address"
        },
        {
          "components": [
            {
              "internalType": "address",
              "name": "walletAddress",
              "type": "address"
            },
            {
              "internalType": "string",
              "name": "firstname",
              "type": "string"
            },
            {
              "internalType": "string",
              "name": "lastname",
              "type": "string"
            },
            {
              "internalType": "string",
              "name": "emailAddress",
              "type": "string"
            }
          ],
          "indexed": false,
          "internalType": "struct CopyrightManagement.User",
          "name": "_user",
          "type": "tuple"
        },
        {
          "indexed": false,
          "internalType": "uint256",
          "name": "timestamp",
          "type": "uint256"
        }
      ],
      "name": "addUserEvent",
      "type": "event"
    },
    {
      "anonymous": false,
      "inputs": [
        {
          "components": [
            {
              "internalType": "uint256",
              "name": "id",
              "type": "uint256"
            },
            {
              "internalType": "address",
              "name": "licensee",
              "type": "address"
            },
            {
              "internalType": "address",
              "name": "licenser",
              "type": "address"
            },
            {
              "internalType": "uint256",
              "name": "contentId",
              "type": "uint256"
            },
            {
              "internalType": "string",
              "name": "purposeOfUse",
              "type": "string"
            },
            {
              "internalType": "string",
              "name": "fieldOfUse",
              "type": "string"
            },
            {
              "internalType": "uint256",
              "name": "price",
              "type": "uint256"
            },
            {
              "internalType": "uint256",
              "name": "timestamp",
              "type": "uint256"
            }
          ],
          "indexed": false,
          "internalType": "struct CopyrightManagement.Agreement",
          "name": "_agreement",
          "type": "tuple"
        }
      ],
      "name": "licensingEvent",
      "type": "event"
    },
    {
      "anonymous": false,
      "inputs": [
        {
          "components": [
            {
              "internalType": "uint256",
              "name": "id",
              "type": "uint256"
            },
            {
              "internalType": "address",
              "name": "licensee",
              "type": "address"
            },
            {
              "internalType": "uint256",
              "name": "contentId",
              "type": "uint256"
            },
            {
              "internalType": "string",
              "name": "purposeOfUse",
              "type": "string"
            },
            {
              "internalType": "string",
              "name": "fieldOfUse",
              "type": "string"
            },
            {
              "internalType": "uint256",
              "name": "price",
              "type": "uint256"
            },
            {
              "internalType": "enum CopyrightManagement.RequestType",
              "name": "requestType",
              "type": "uint8"
            },
            {
              "internalType": "string",
              "name": "rejectReason",
              "type": "string"
            },
            {
              "internalType": "uint256",
              "name": "timestamp",
              "type": "uint256"
            }
          ],
          "indexed": false,
          "internalType": "struct CopyrightManagement.Request",
          "name": "_request",
          "type": "tuple"
        }
      ],
      "name": "requestEvent",
      "type": "event"
    },
    {
      "anonymous": false,
      "inputs": [
        {
          "indexed": false,
          "internalType": "address",
          "name": "_caller",
          "type": "address"
        },
        {
          "indexed": false,
          "internalType": "address",
          "name": "_receiver",
          "type": "address"
        },
        {
          "indexed": false,
          "internalType": "uint256",
          "name": "_amount",
          "type": "uint256"
        },
        {
          "indexed": false,
          "internalType": "uint256",
          "name": "_timestamp",
          "type": "uint256"
        }
      ],
      "name": "transferEvent",
      "type": "event"
    },
    {
      "anonymous": false,
      "inputs": [
        {
          "indexed": true,
          "internalType": "address",
          "name": "_caller",
          "type": "address"
        },
        {
          "indexed": true,
          "internalType": "uint256",
          "name": "_contentId",
          "type": "uint256"
        },
        {
          "indexed": false,
          "internalType": "uint256",
          "name": "_lastPrice",
          "type": "uint256"
        },
        {
          "indexed": false,
          "internalType": "uint256",
          "name": "_currentPrice",
          "type": "uint256"
        },
        {
          "indexed": false,
          "internalType": "string",
          "name": "_lastFieldOfUse",
          "type": "string"
        },
        {
          "indexed": false,
          "internalType": "string",
          "name": "_currentFieldOfUse",
          "type": "string"
        },
        {
          "indexed": false,
          "internalType": "uint256",
          "name": "timestamp",
          "type": "uint256"
        }
      ],
      "name": "updateContentEvent",
      "type": "event"
    },
    {
      "anonymous": false,
      "inputs": [
        {
          "indexed": true,
          "internalType": "address",
          "name": "_caller",
          "type": "address"
        },
        {
          "components": [
            {
              "internalType": "uint256",
              "name": "id",
              "type": "uint256"
            },
            {
              "internalType": "address",
              "name": "licensee",
              "type": "address"
            },
            {
              "internalType": "uint256",
              "name": "contentId",
              "type": "uint256"
            },
            {
              "internalType": "string",
              "name": "purposeOfUse",
              "type": "string"
            },
            {
              "internalType": "string",
              "name": "fieldOfUse",
              "type": "string"
            },
            {
              "internalType": "uint256",
              "name": "price",
              "type": "uint256"
            },
            {
              "internalType": "enum CopyrightManagement.RequestType",
              "name": "requestType",
              "type": "uint8"
            },
            {
              "internalType": "string",
              "name": "rejectReason",
              "type": "string"
            },
            {
              "internalType": "uint256",
              "name": "timestamp",
              "type": "uint256"
            }
          ],
          "indexed": false,
          "internalType": "struct CopyrightManagement.Request",
          "name": "_request",
          "type": "tuple"
        },
        {
          "indexed": false,
          "internalType": "uint256",
          "name": "timestamp",
          "type": "uint256"
        }
      ],
      "name": "updateRequestEvent",
      "type": "event"
    },
    {
      "inputs": [],
      "name": "agreementCount",
      "outputs": [
        {
          "internalType": "uint256",
          "name": "",
          "type": "uint256"
        }
      ],
      "stateMutability": "view",
      "type": "function",
      "constant": true
    },
    {
      "inputs": [
        {
          "internalType": "uint256",
          "name": "",
          "type": "uint256"
        }
      ],
      "name": "agreements",
      "outputs": [
        {
          "internalType": "uint256",
          "name": "id",
          "type": "uint256"
        },
        {
          "internalType": "address",
          "name": "licensee",
          "type": "address"
        },
        {
          "internalType": "address",
          "name": "licenser",
          "type": "address"
        },
        {
          "internalType": "uint256",
          "name": "contentId",
          "type": "uint256"
        },
        {
          "internalType": "string",
          "name": "purposeOfUse",
          "type": "string"
        },
        {
          "internalType": "string",
          "name": "fieldOfUse",
          "type": "string"
        },
        {
          "internalType": "uint256",
          "name": "price",
          "type": "uint256"
        },
        {
          "internalType": "uint256",
          "name": "timestamp",
          "type": "uint256"
        }
      ],
      "stateMutability": "view",
      "type": "function",
      "constant": true
    },
    {
      "inputs": [
        {
          "internalType": "address",
          "name": "",
          "type": "address"
        }
      ],
      "name": "balances",
      "outputs": [
        {
          "internalType": "uint256",
          "name": "",
          "type": "uint256"
        }
      ],
      "stateMutability": "view",
      "type": "function",
      "constant": true
    },
    {
      "inputs": [],
      "name": "contentCount",
      "outputs": [
        {
          "internalType": "uint256",
          "name": "",
          "type": "uint256"
        }
      ],
      "stateMutability": "view",
      "type": "function",
      "constant": true
    },
    {
      "inputs": [
        {
          "internalType": "uint256",
          "name": "",
          "type": "uint256"
        }
      ],
      "name": "contents",
      "outputs": [
        {
          "internalType": "address",
          "name": "ownerAddress",
          "type": "address"
        },
        {
          "internalType": "uint256",
          "name": "Id",
          "type": "uint256"
        },
        {
          "internalType": "string",
          "name": "pHash",
          "type": "string"
        },
        {
          "internalType": "string",
          "name": "IPFSAddress",
          "type": "string"
        },
        {
          "internalType": "string",
          "name": "title",
          "type": "string"
        },
        {
          "internalType": "string",
          "name": "desc",
          "type": "string"
        },
        {
          "internalType": "string",
          "name": "fieldOfUse",
          "type": "string"
        },
        {
          "internalType": "uint256",
          "name": "price",
          "type": "uint256"
        },
        {
          "internalType": "uint256",
          "name": "publishDate",
          "type": "uint256"
        },
        {
          "internalType": "enum CopyrightManagement.ContentType",
          "name": "contentType",
          "type": "uint8"
        }
      ],
      "stateMutability": "view",
      "type": "function",
      "constant": true
    },
    {
      "inputs": [],
      "name": "requestCount",
      "outputs": [
        {
          "internalType": "uint256",
          "name": "",
          "type": "uint256"
        }
      ],
      "stateMutability": "view",
      "type": "function",
      "constant": true
    },
    {
      "inputs": [
        {
          "internalType": "uint256",
          "name": "",
          "type": "uint256"
        }
      ],
      "name": "requests",
      "outputs": [
        {
          "internalType": "uint256",
          "name": "id",
          "type": "uint256"
        },
        {
          "internalType": "address",
          "name": "licensee",
          "type": "address"
        },
        {
          "internalType": "uint256",
          "name": "contentId",
          "type": "uint256"
        },
        {
          "internalType": "string",
          "name": "purposeOfUse",
          "type": "string"
        },
        {
          "internalType": "string",
          "name": "fieldOfUse",
          "type": "string"
        },
        {
          "internalType": "uint256",
          "name": "price",
          "type": "uint256"
        },
        {
          "internalType": "enum CopyrightManagement.RequestType",
          "name": "requestType",
          "type": "uint8"
        },
        {
          "internalType": "string",
          "name": "rejectReason",
          "type": "string"
        },
        {
          "internalType": "uint256",
          "name": "timestamp",
          "type": "uint256"
        }
      ],
      "stateMutability": "view",
      "type": "function",
      "constant": true
    },
    {
      "inputs": [],
      "name": "userCount",
      "outputs": [
        {
          "internalType": "uint256",
          "name": "",
          "type": "uint256"
        }
      ],
      "stateMutability": "view",
      "type": "function",
      "constant": true
    },
    {
      "inputs": [
        {
          "internalType": "address",
          "name": "",
          "type": "address"
        }
      ],
      "name": "users",
      "outputs": [
        {
          "internalType": "address",
          "name": "walletAddress",
          "type": "address"
        },
        {
          "internalType": "string",
          "name": "firstname",
          "type": "string"
        },
        {
          "internalType": "string",
          "name": "lastname",
          "type": "string"
        },
        {
          "internalType": "string",
          "name": "emailAddress",
          "type": "string"
        }
      ],
      "stateMutability": "view",
      "type": "function",
      "constant": true
    },
    {
      "inputs": [
        {
          "internalType": "uint256",
          "name": "",
          "type": "uint256"
        }
      ],
      "name": "usersList",
      "outputs": [
        {
          "internalType": "address",
          "name": "",
          "type": "address"
        }
      ],
      "stateMutability": "view",
      "type": "function",
      "constant": true
    },
    {
      "inputs": [
        {
          "internalType": "string",
          "name": "_firstname",
          "type": "string"
        },
        {
          "internalType": "string",
          "name": "_lastname",
          "type": "string"
        },
        {
          "internalType": "string",
          "name": "_email",
          "type": "string"
        }
      ],
      "name": "addUser",
      "outputs": [],
      "stateMutability": "nonpayable",
      "type": "function"
    },
    {
      "inputs": [
        {
          "internalType": "string",
          "name": "_firstname",
          "type": "string"
        },
        {
          "internalType": "string",
          "name": "_lastname",
          "type": "string"
        }
      ],
      "name": "updateUser",
      "outputs": [],
      "stateMutability": "nonpayable",
      "type": "function"
    },
    {
      "inputs": [
        {
          "internalType": "string",
          "name": "_pHash",
          "type": "string"
        },
        {
          "internalType": "string",
          "name": "_IPFSAddress",
          "type": "string"
        },
        {
          "internalType": "string",
          "name": "_title",
          "type": "string"
        },
        {
          "internalType": "string",
          "name": "_desc",
          "type": "string"
        },
        {
          "internalType": "string",
          "name": "_fieldOfUse",
          "type": "string"
        },
        {
          "internalType": "uint256",
          "name": "_price",
          "type": "uint256"
        },
        {
          "internalType": "enum CopyrightManagement.ContentType",
          "name": "_contentType",
          "type": "uint8"
        }
      ],
      "name": "addContent",
      "outputs": [],
      "stateMutability": "nonpayable",
      "type": "function"
    },
    {
      "inputs": [
        {
          "internalType": "uint256",
          "name": "_id",
          "type": "uint256"
        },
        {
          "internalType": "uint256",
          "name": "_price",
          "type": "uint256"
        },
        {
          "internalType": "string",
          "name": "_fieldOfUse",
          "type": "string"
        }
      ],
      "name": "updateContentData",
      "outputs": [],
      "stateMutability": "nonpayable",
      "type": "function"
    },
    {
      "inputs": [
        {
          "internalType": "uint256",
          "name": "_contentId",
          "type": "uint256"
        },
        {
          "internalType": "string",
          "name": "_purposeOfUse",
          "type": "string"
        },
        {
          "internalType": "string",
          "name": "_fieldOfUse",
          "type": "string"
        }
      ],
      "name": "requestAgreement",
      "outputs": [],
      "stateMutability": "payable",
      "type": "function",
      "payable": true
    },
    {
      "inputs": [
        {
          "internalType": "uint256",
          "name": "_requestId",
          "type": "uint256"
        },
        {
          "internalType": "string",
          "name": "_rejectReason",
          "type": "string"
        }
      ],
      "name": "rejectAgreement",
      "outputs": [],
      "stateMutability": "payable",
      "type": "function",
      "payable": true
    },
    {
      "inputs": [
        {
          "internalType": "uint256",
          "name": "_requestId",
          "type": "uint256"
        }
      ],
      "name": "approveAgreement",
      "outputs": [],
      "stateMutability": "payable",
      "type": "function",
      "payable": true
    }
  ],
  "bytecode": "0x608060405234801561001057600080fd5b50615ddf80620000216000396000f3fe6080604052600436106100fe5760003560e01c80639992f00411610095578063bb7bb27811610064578063bb7bb27814610351578063bd14de961461037c578063c2fc24ac146103c0578063cc459696146103dc578063dd4a242514610407576100fe565b80639992f00414610293578063a87430ba146102af578063b132d78b146102ef578063b5ecf9121461030b576100fe565b8063554e568e116100d1578063554e568e146101d15780635badbe4c146101fa57806381d12c581461022557806395c5fed41461026a576100fe565b806307973ccf1461010357806321dad4ca1461012e57806327e235e314610157578063502aa3b514610194575b600080fd5b34801561010f57600080fd5b50610118610430565b60405161012591906140b9565b60405180910390f35b34801561013a57600080fd5b506101556004803603810190610150919061425a565b610436565b005b34801561016357600080fd5b5061017e60048036038101906101799190614327565b610a11565b60405161018b91906140b9565b60405180910390f35b3480156101a057600080fd5b506101bb60048036038101906101b69190614354565b610a29565b6040516101c89190614390565b60405180910390f35b3480156101dd57600080fd5b506101f860048036038101906101f391906143d0565b610a5c565b005b34801561020657600080fd5b5061020f611115565b60405161021c91906140b9565b60405180910390f35b34801561023157600080fd5b5061024c60048036038101906102479190614354565b61111b565b604051610261999897969594939291906145fd565b60405180910390f35b34801561027657600080fd5b50610291600480360381019061028c919061469f565b61132e565b005b6102ad60048036038101906102a89190614746565b6115e8565b005b3480156102bb57600080fd5b506102d660048036038101906102d19190614327565b6121d4565b6040516102e694939291906147d1565b60405180910390f35b61030960048036038101906103049190614354565b6123bc565b005b34801561031757600080fd5b50610332600480360381019061032d9190614354565b612ffd565b6040516103489a99989796959493929190614873565b60405180910390f35b34801561035d57600080fd5b50610366613326565b60405161037391906140b9565b60405180910390f35b34801561038857600080fd5b506103a3600480360381019061039e9190614354565b61332c565b6040516103b7989796959493929190614932565b60405180910390f35b6103da60048036038101906103d591906149be565b6134c4565b005b3480156103e857600080fd5b506103f1613f63565b6040516103fe91906140b9565b60405180910390f35b34801561041357600080fd5b5061042e60048036038101906104299190614a1a565b613f69565b005b60005481565b336000600560008373ffffffffffffffffffffffffffffffffffffffff1673ffffffffffffffffffffffffffffffffffffffff168152602001908152602001600020600301805461048690614ac1565b9050036104c8576040517f08c379a00000000000000000000000000000000000000000000000000000000081526004016104bf90614b3e565b60405180910390fd5b600060066000868152602001908152602001600020604051806101400160405290816000820160009054906101000a900473ffffffffffffffffffffffffffffffffffffffff1673ffffffffffffffffffffffffffffffffffffffff1673ffffffffffffffffffffffffffffffffffffffff1681526020016001820154815260200160028201805461055990614ac1565b80601f016020809104026020016040519081016040528092919081815260200182805461058590614ac1565b80156105d25780601f106105a7576101008083540402835291602001916105d2565b820191906000526020600020905b8154815290600101906020018083116105b557829003601f168201915b505050505081526020016003820180546105eb90614ac1565b80601f016020809104026020016040519081016040528092919081815260200182805461061790614ac1565b80156106645780601f1061063957610100808354040283529160200191610664565b820191906000526020600020905b81548152906001019060200180831161064757829003601f168201915b5050505050815260200160048201805461067d90614ac1565b80601f01602080910402602001604051908101604052809291908181526020018280546106a990614ac1565b80156106f65780601f106106cb576101008083540402835291602001916106f6565b820191906000526020600020905b8154815290600101906020018083116106d957829003601f168201915b5050505050815260200160058201805461070f90614ac1565b80601f016020809104026020016040519081016040528092919081815260200182805461073b90614ac1565b80156107885780601f1061075d57610100808354040283529160200191610788565b820191906000526020600020905b81548152906001019060200180831161076b57829003601f168201915b505050505081526020016006820180546107a190614ac1565b80601f01602080910402602001604051908101604052809291908181526020018280546107cd90614ac1565b801561081a5780601f106107ef5761010080835404028352916020019161081a565b820191906000526020600020905b8154815290600101906020018083116107fd57829003601f168201915b5050505050815260200160078201548152602001600882015481526020016009820160009054906101000a900460ff16600281111561085c5761085b614586565b5b600281111561086e5761086d614586565b5b8152505090506000816040015151036108bc576040517f08c379a00000000000000000000000000000000000000000000000000000000081526004016108b390614baa565b60405180910390fd5b6006600086815260200190815260200160002060000160009054906101000a900473ffffffffffffffffffffffffffffffffffffffff1673ffffffffffffffffffffffffffffffffffffffff163373ffffffffffffffffffffffffffffffffffffffff1614610960576040517f08c379a000000000000000000000000000000000000000000000000000000000815260040161095790614c3c565b60405180910390fd5b60008160e00151905084600660008881526020019081526020016000206007018190555060008260c001519050846006600089815260200190815260200160002060060190816109b09190614e08565b50863373ffffffffffffffffffffffffffffffffffffffff167f35a9de6001b62afea3734b8acaa129015e5136b3053c72a11584f1b1a1997ca58489858a42604051610a00959493929190614eda565b60405180910390a350505050505050565b60096020528060005260406000206000915090505481565b60046020528060005260406000206000915054906101000a900473ffffffffffffffffffffffffffffffffffffffff1681565b336000600560008373ffffffffffffffffffffffffffffffffffffffff1673ffffffffffffffffffffffffffffffffffffffff1681526020019081526020016000206003018054610aac90614ac1565b905003610aee576040517f08c379a0000000000000000000000000000000000000000000000000000000008152600401610ae590614b3e565b60405180910390fd5b60005b600154811015610f0f57600060066000838152602001908152602001600020604051806101400160405290816000820160009054906101000a900473ffffffffffffffffffffffffffffffffffffffff1673ffffffffffffffffffffffffffffffffffffffff1673ffffffffffffffffffffffffffffffffffffffff16815260200160018201548152602001600282018054610b8c90614ac1565b80601f0160208091040260200160405190810160405280929190818152602001828054610bb890614ac1565b8015610c055780601f10610bda57610100808354040283529160200191610c05565b820191906000526020600020905b815481529060010190602001808311610be857829003601f168201915b50505050508152602001600382018054610c1e90614ac1565b80601f0160208091040260200160405190810160405280929190818152602001828054610c4a90614ac1565b8015610c975780601f10610c6c57610100808354040283529160200191610c97565b820191906000526020600020905b815481529060010190602001808311610c7a57829003601f168201915b50505050508152602001600482018054610cb090614ac1565b80601f0160208091040260200160405190810160405280929190818152602001828054610cdc90614ac1565b8015610d295780601f10610cfe57610100808354040283529160200191610d29565b820191906000526020600020905b815481529060010190602001808311610d0c57829003601f168201915b50505050508152602001600582018054610d4290614ac1565b80601f0160208091040260200160405190810160405280929190818152602001828054610d6e90614ac1565b8015610dbb5780601f10610d9057610100808354040283529160200191610dbb565b820191906000526020600020905b815481529060010190602001808311610d9e57829003601f168201915b50505050508152602001600682018054610dd490614ac1565b80601f0160208091040260200160405190810160405280929190818152602001828054610e0090614ac1565b8015610e4d5780601f10610e2257610100808354040283529160200191610e4d565b820191906000526020600020905b815481529060010190602001808311610e3057829003601f168201915b5050505050815260200160078201548152602001600882015481526020016009820160009054906101000a900460ff166002811115610e8f57610e8e614586565b5b6002811115610ea157610ea0614586565b5b815250509050898051906020012081604001518051906020012003610efb576040517f08c379a0000000000000000000000000000000000000000000000000000000008152600401610ef290614fad565b60405180910390fd5b508080610f0790614ffc565b915050610af1565b5060006040518061014001604052803373ffffffffffffffffffffffffffffffffffffffff16815260200160015481526020018a8152602001898152602001888152602001878152602001868152602001858152602001428152602001846002811115610f7f57610f7e614586565b5b81525090508060066000600154815260200190815260200160002060008201518160000160006101000a81548173ffffffffffffffffffffffffffffffffffffffff021916908373ffffffffffffffffffffffffffffffffffffffff1602179055506020820151816001015560408201518160020190816110009190614e08565b5060608201518160030190816110169190614e08565b50608082015181600401908161102c9190614e08565b5060a08201518160050190816110429190614e08565b5060c08201518160060190816110589190614e08565b5060e0820151816007015561010082015181600801556101208201518160090160006101000a81548160ff0219169083600281111561109a57611099614586565b5b0217905550905050600160008154809291906110b590614ffc565b91905055503373ffffffffffffffffffffffffffffffffffffffff167fe58afdfa444c389d4a617208a440acf11fbaf280c02f06810725e0c77bb57e5d82426040516111029291906151b1565b60405180910390a2505050505050505050565b60035481565b60086020528060005260406000206000915090508060000154908060010160009054906101000a900473ffffffffffffffffffffffffffffffffffffffff169080600201549080600301805461117090614ac1565b80601f016020809104026020016040519081016040528092919081815260200182805461119c90614ac1565b80156111e95780601f106111be576101008083540402835291602001916111e9565b820191906000526020600020905b8154815290600101906020018083116111cc57829003601f168201915b5050505050908060040180546111fe90614ac1565b80601f016020809104026020016040519081016040528092919081815260200182805461122a90614ac1565b80156112775780601f1061124c57610100808354040283529160200191611277565b820191906000526020600020905b81548152906001019060200180831161125a57829003601f168201915b5050505050908060050154908060060160009054906101000a900460ff16908060070180546112a590614ac1565b80601f01602080910402602001604051908101604052809291908181526020018280546112d190614ac1565b801561131e5780601f106112f35761010080835404028352916020019161131e565b820191906000526020600020905b81548152906001019060200180831161130157829003601f168201915b5050505050908060080154905089565b60005b600054811015611420578180519060200120600560006004600085815260200190815260200160002060009054906101000a900473ffffffffffffffffffffffffffffffffffffffff1673ffffffffffffffffffffffffffffffffffffffff1673ffffffffffffffffffffffffffffffffffffffff1681526020019081526020016000206003016040516113c59190615284565b60405180910390200361140d576040517f08c379a00000000000000000000000000000000000000000000000000000000081526004016114049061530d565b60405180910390fd5b808061141890614ffc565b915050611331565b50600060405180608001604052803373ffffffffffffffffffffffffffffffffffffffff16815260200185815260200184815260200183815250905080600560003373ffffffffffffffffffffffffffffffffffffffff1673ffffffffffffffffffffffffffffffffffffffff16815260200190815260200160002060008201518160000160006101000a81548173ffffffffffffffffffffffffffffffffffffffff021916908373ffffffffffffffffffffffffffffffffffffffff16021790555060208201518160010190816114f89190614e08565b50604082015181600201908161150e9190614e08565b5060608201518160030190816115249190614e08565b5090505033600460008054815260200190815260200160002060006101000a81548173ffffffffffffffffffffffffffffffffffffffff021916908373ffffffffffffffffffffffffffffffffffffffff16021790555060008081548092919061158d90614ffc565b91905055503373ffffffffffffffffffffffffffffffffffffffff167fd521c64de3d96338ed153816d99355c239df191097c0121d7491ecd878c4783682426040516115da92919061539e565b60405180910390a250505050565b336000600560008373ffffffffffffffffffffffffffffffffffffffff1673ffffffffffffffffffffffffffffffffffffffff168152602001908152602001600020600301805461163890614ac1565b90500361167a576040517f08c379a000000000000000000000000000000000000000000000000000000000815260040161167190614b3e565b60405180910390fd5b600060066000868152602001908152602001600020604051806101400160405290816000820160009054906101000a900473ffffffffffffffffffffffffffffffffffffffff1673ffffffffffffffffffffffffffffffffffffffff1673ffffffffffffffffffffffffffffffffffffffff1681526020016001820154815260200160028201805461170b90614ac1565b80601f016020809104026020016040519081016040528092919081815260200182805461173790614ac1565b80156117845780601f1061175957610100808354040283529160200191611784565b820191906000526020600020905b81548152906001019060200180831161176757829003601f168201915b5050505050815260200160038201805461179d90614ac1565b80601f01602080910402602001604051908101604052809291908181526020018280546117c990614ac1565b80156118165780601f106117eb57610100808354040283529160200191611816565b820191906000526020600020905b8154815290600101906020018083116117f957829003601f168201915b5050505050815260200160048201805461182f90614ac1565b80601f016020809104026020016040519081016040528092919081815260200182805461185b90614ac1565b80156118a85780601f1061187d576101008083540402835291602001916118a8565b820191906000526020600020905b81548152906001019060200180831161188b57829003601f168201915b505050505081526020016005820180546118c190614ac1565b80601f01602080910402602001604051908101604052809291908181526020018280546118ed90614ac1565b801561193a5780601f1061190f5761010080835404028352916020019161193a565b820191906000526020600020905b81548152906001019060200180831161191d57829003601f168201915b5050505050815260200160068201805461195390614ac1565b80601f016020809104026020016040519081016040528092919081815260200182805461197f90614ac1565b80156119cc5780601f106119a1576101008083540402835291602001916119cc565b820191906000526020600020905b8154815290600101906020018083116119af57829003601f168201915b5050505050815260200160078201548152602001600882015481526020016009820160009054906101000a900460ff166002811115611a0e57611a0d614586565b5b6002811115611a2057611a1f614586565b5b815250509050600081604001515103611a6e576040517f08c379a0000000000000000000000000000000000000000000000000000000008152600401611a6590614baa565b60405180910390fd5b806000015173ffffffffffffffffffffffffffffffffffffffff163373ffffffffffffffffffffffffffffffffffffffff1603611ae0576040517f08c379a0000000000000000000000000000000000000000000000000000000008152600401611ad790615440565b60405180910390fd5b8060e00151341015611b27576040517f08c379a0000000000000000000000000000000000000000000000000000000008152600401611b1e906154d2565b60405180910390fd5b60005b600354811015611ef75760006008600083815260200190815260200160002060405180610120016040529081600082015481526020016001820160009054906101000a900473ffffffffffffffffffffffffffffffffffffffff1673ffffffffffffffffffffffffffffffffffffffff1673ffffffffffffffffffffffffffffffffffffffff16815260200160028201548152602001600382018054611bcf90614ac1565b80601f0160208091040260200160405190810160405280929190818152602001828054611bfb90614ac1565b8015611c485780601f10611c1d57610100808354040283529160200191611c48565b820191906000526020600020905b815481529060010190602001808311611c2b57829003601f168201915b50505050508152602001600482018054611c6190614ac1565b80601f0160208091040260200160405190810160405280929190818152602001828054611c8d90614ac1565b8015611cda5780601f10611caf57610100808354040283529160200191611cda565b820191906000526020600020905b815481529060010190602001808311611cbd57829003601f168201915b50505050508152602001600582015481526020016006820160009054906101000a900460ff166002811115611d1257611d11614586565b5b6002811115611d2457611d23614586565b5b8152602001600782018054611d3890614ac1565b80601f0160208091040260200160405190810160405280929190818152602001828054611d6490614ac1565b8015611db15780601f10611d8657610100808354040283529160200191611db1565b820191906000526020600020905b815481529060010190602001808311611d9457829003601f168201915b505050505081526020016008820154815250509050868160400151148015611e0857503373ffffffffffffffffffffffffffffffffffffffff16816020015173ffffffffffffffffffffffffffffffffffffffff16145b15611ee35760006002811115611e2157611e20614586565b5b8160c001516002811115611e3857611e37614586565b5b03611e78576040517f08c379a0000000000000000000000000000000000000000000000000000000008152600401611e6f9061553e565b60405180910390fd5b600280811115611e8b57611e8a614586565b5b8160c001516002811115611ea257611ea1614586565b5b03611ee2576040517f08c379a0000000000000000000000000000000000000000000000000000000008152600401611ed9906155d0565b60405180910390fd5b5b508080611eef90614ffc565b915050611b2a565b508060e0015160096000836000015173ffffffffffffffffffffffffffffffffffffffff1673ffffffffffffffffffffffffffffffffffffffff1681526020019081526020016000206000828254611f4f91906155f0565b925050819055508060e00151341115611fbf5760008160e0015134611f749190615646565b90503373ffffffffffffffffffffffffffffffffffffffff166108fc829081150290604051600060405180830381858888f19350505050158015611fbc573d6000803e3d6000fd5b50505b600060405180610120016040528060035481526020013373ffffffffffffffffffffffffffffffffffffffff1681526020018781526020018681526020018581526020018360e0015181526020016000600281111561202157612020614586565b5b8152602001604051806020016040528060008152508152602001428152509050806008600060035481526020019081526020016000206000820151816000015560208201518160010160006101000a81548173ffffffffffffffffffffffffffffffffffffffff021916908373ffffffffffffffffffffffffffffffffffffffff1602179055506040820151816002015560608201518160030190816120c79190614e08565b5060808201518160040190816120dd9190614e08565b5060a0820151816005015560c08201518160060160006101000a81548160ff0219169083600281111561211357612112614586565b5b021790555060e082015181600701908161212d9190614e08565b5061010082015181600801559050506003600081548092919061214f90614ffc565b91905055507f481934050ca25b9b530e264c858d0c76bd0e5110eeebfff8a928ab2db72f8a8b81604051612183919061575c565b60405180910390a17f2e48574e89108f272024eec65c8d0780b12cdcaf8768e45745e07a3c3a05fe1333308460e00151426040516121c4949392919061577e565b60405180910390a1505050505050565b60056020528060005260406000206000915090508060000160009054906101000a900473ffffffffffffffffffffffffffffffffffffffff169080600101805461221d90614ac1565b80601f016020809104026020016040519081016040528092919081815260200182805461224990614ac1565b80156122965780601f1061226b57610100808354040283529160200191612296565b820191906000526020600020905b81548152906001019060200180831161227957829003601f168201915b5050505050908060020180546122ab90614ac1565b80601f01602080910402602001604051908101604052809291908181526020018280546122d790614ac1565b80156123245780601f106122f957610100808354040283529160200191612324565b820191906000526020600020905b81548152906001019060200180831161230757829003601f168201915b50505050509080600301805461233990614ac1565b80601f016020809104026020016040519081016040528092919081815260200182805461236590614ac1565b80156123b25780601f10612387576101008083540402835291602001916123b2565b820191906000526020600020905b81548152906001019060200180831161239557829003601f168201915b5050505050905084565b336000600560008373ffffffffffffffffffffffffffffffffffffffff1673ffffffffffffffffffffffffffffffffffffffff168152602001908152602001600020600301805461240c90614ac1565b90500361244e576040517f08c379a000000000000000000000000000000000000000000000000000000000815260040161244590614b3e565b60405180910390fd5b60006008600084815260200190815260200160002060405180610120016040529081600082015481526020016001820160009054906101000a900473ffffffffffffffffffffffffffffffffffffffff1673ffffffffffffffffffffffffffffffffffffffff1673ffffffffffffffffffffffffffffffffffffffff168152602001600282015481526020016003820180546124e990614ac1565b80601f016020809104026020016040519081016040528092919081815260200182805461251590614ac1565b80156125625780601f1061253757610100808354040283529160200191612562565b820191906000526020600020905b81548152906001019060200180831161254557829003601f168201915b5050505050815260200160048201805461257b90614ac1565b80601f01602080910402602001604051908101604052809291908181526020018280546125a790614ac1565b80156125f45780601f106125c9576101008083540402835291602001916125f4565b820191906000526020600020905b8154815290600101906020018083116125d757829003601f168201915b50505050508152602001600582015481526020016006820160009054906101000a900460ff16600281111561262c5761262b614586565b5b600281111561263e5761263d614586565b5b815260200160078201805461265290614ac1565b80601f016020809104026020016040519081016040528092919081815260200182805461267e90614ac1565b80156126cb5780601f106126a0576101008083540402835291602001916126cb565b820191906000526020600020905b8154815290600101906020018083116126ae57829003601f168201915b505050505081526020016008820154815250509050600081606001515103612728576040517f08c379a000000000000000000000000000000000000000000000000000000000815260040161271f9061580f565b60405180910390fd5b60006006600083604001518152602001908152602001600020604051806101400160405290816000820160009054906101000a900473ffffffffffffffffffffffffffffffffffffffff1673ffffffffffffffffffffffffffffffffffffffff1673ffffffffffffffffffffffffffffffffffffffff168152602001600182015481526020016002820180546127bd90614ac1565b80601f01602080910402602001604051908101604052809291908181526020018280546127e990614ac1565b80156128365780601f1061280b57610100808354040283529160200191612836565b820191906000526020600020905b81548152906001019060200180831161281957829003601f168201915b5050505050815260200160038201805461284f90614ac1565b80601f016020809104026020016040519081016040528092919081815260200182805461287b90614ac1565b80156128c85780601f1061289d576101008083540402835291602001916128c8565b820191906000526020600020905b8154815290600101906020018083116128ab57829003601f168201915b505050505081526020016004820180546128e190614ac1565b80601f016020809104026020016040519081016040528092919081815260200182805461290d90614ac1565b801561295a5780601f1061292f5761010080835404028352916020019161295a565b820191906000526020600020905b81548152906001019060200180831161293d57829003601f168201915b5050505050815260200160058201805461297390614ac1565b80601f016020809104026020016040519081016040528092919081815260200182805461299f90614ac1565b80156129ec5780601f106129c1576101008083540402835291602001916129ec565b820191906000526020600020905b8154815290600101906020018083116129cf57829003601f168201915b50505050508152602001600682018054612a0590614ac1565b80601f0160208091040260200160405190810160405280929190818152602001828054612a3190614ac1565b8015612a7e5780601f10612a5357610100808354040283529160200191612a7e565b820191906000526020600020905b815481529060010190602001808311612a6157829003601f168201915b5050505050815260200160078201548152602001600882015481526020016009820160009054906101000a900460ff166002811115612ac057612abf614586565b5b6002811115612ad257612ad1614586565b5b8152505090503373ffffffffffffffffffffffffffffffffffffffff16816000015173ffffffffffffffffffffffffffffffffffffffff1614612b4a576040517f08c379a0000000000000000000000000000000000000000000000000000000008152600401612b4190614c3c565b60405180910390fd5b600280811115612b5d57612b5c614586565b5b8260c001516002811115612b7457612b73614586565b5b03612bb4576040517f08c379a0000000000000000000000000000000000000000000000000000000008152600401612bab906158a1565b60405180910390fd5b60016002811115612bc857612bc7614586565b5b8260c001516002811115612bdf57612bde614586565b5b03612c1f576040517f08c379a0000000000000000000000000000000000000000000000000000000008152600401612c1690615933565b60405180910390fd5b6000600960003373ffffffffffffffffffffffffffffffffffffffff1673ffffffffffffffffffffffffffffffffffffffff1681526020019081526020016000205411612ca1576040517f08c379a0000000000000000000000000000000000000000000000000000000008152600401612c98906159c5565b60405180910390fd5b60026008600086815260200190815260200160002060060160006101000a81548160ff02191690836002811115612cdb57612cda614586565b5b021790555060006040518061010001604052806002548152602001846020015173ffffffffffffffffffffffffffffffffffffffff1681526020013373ffffffffffffffffffffffffffffffffffffffff1681526020018360200151815260200184606001518152602001846080015181526020018460a001518152602001428152509050806007600060025481526020019081526020016000206000820151816000015560208201518160010160006101000a81548173ffffffffffffffffffffffffffffffffffffffff021916908373ffffffffffffffffffffffffffffffffffffffff16021790555060408201518160020160006101000a81548173ffffffffffffffffffffffffffffffffffffffff021916908373ffffffffffffffffffffffffffffffffffffffff160217905550606082015181600301556080820151816004019081612e2d9190614e08565b5060a0820151816005019081612e439190614e08565b5060c0820151816006015560e0820151816007015590505060026000815480929190612e6e90614ffc565b91905055508260a00151600960003373ffffffffffffffffffffffffffffffffffffffff1673ffffffffffffffffffffffffffffffffffffffff1681526020019081526020016000206000828254612ec69190615646565b925050819055503373ffffffffffffffffffffffffffffffffffffffff166108fc8460a001519081150290604051600060405180830381858888f19350505050158015612f17573d6000803e3d6000fd5b503373ffffffffffffffffffffffffffffffffffffffff167fc055548580fd244033e69bfd8ad917152bee6f74fcf66d788135e42893e7f52b6008600088815260200190815260200160002042604051612f72929190615c0e565b60405180910390a27f2e48574e89108f272024eec65c8d0780b12cdcaf8768e45745e07a3c3a05fe138360200151338560a0015142604051612fb7949392919061577e565b60405180910390a17f87fc50195f588964fff2fc8f23b73506b4b7169ad0e9d1d9ad19338bfe01372a81604051612fee9190615cf5565b60405180910390a15050505050565b60066020528060005260406000206000915090508060000160009054906101000a900473ffffffffffffffffffffffffffffffffffffffff169080600101549080600201805461304c90614ac1565b80601f016020809104026020016040519081016040528092919081815260200182805461307890614ac1565b80156130c55780601f1061309a576101008083540402835291602001916130c5565b820191906000526020600020905b8154815290600101906020018083116130a857829003601f168201915b5050505050908060030180546130da90614ac1565b80601f016020809104026020016040519081016040528092919081815260200182805461310690614ac1565b80156131535780601f1061312857610100808354040283529160200191613153565b820191906000526020600020905b81548152906001019060200180831161313657829003601f168201915b50505050509080600401805461316890614ac1565b80601f016020809104026020016040519081016040528092919081815260200182805461319490614ac1565b80156131e15780601f106131b6576101008083540402835291602001916131e1565b820191906000526020600020905b8154815290600101906020018083116131c457829003601f168201915b5050505050908060050180546131f690614ac1565b80601f016020809104026020016040519081016040528092919081815260200182805461322290614ac1565b801561326f5780601f106132445761010080835404028352916020019161326f565b820191906000526020600020905b81548152906001019060200180831161325257829003601f168201915b50505050509080600601805461328490614ac1565b80601f01602080910402602001604051908101604052809291908181526020018280546132b090614ac1565b80156132fd5780601f106132d2576101008083540402835291602001916132fd565b820191906000526020600020905b8154815290600101906020018083116132e057829003601f168201915b5050505050908060070154908060080154908060090160009054906101000a900460ff1690508a565b60025481565b60076020528060005260406000206000915090508060000154908060010160009054906101000a900473ffffffffffffffffffffffffffffffffffffffff16908060020160009054906101000a900473ffffffffffffffffffffffffffffffffffffffff16908060030154908060040180546133a790614ac1565b80601f01602080910402602001604051908101604052809291908181526020018280546133d390614ac1565b80156134205780601f106133f557610100808354040283529160200191613420565b820191906000526020600020905b81548152906001019060200180831161340357829003601f168201915b50505050509080600501805461343590614ac1565b80601f016020809104026020016040519081016040528092919081815260200182805461346190614ac1565b80156134ae5780601f10613483576101008083540402835291602001916134ae565b820191906000526020600020905b81548152906001019060200180831161349157829003601f168201915b5050505050908060060154908060070154905088565b336000600560008373ffffffffffffffffffffffffffffffffffffffff1673ffffffffffffffffffffffffffffffffffffffff168152602001908152602001600020600301805461351490614ac1565b905003613556576040517f08c379a000000000000000000000000000000000000000000000000000000000815260040161354d90614b3e565b60405180910390fd5b60006008600085815260200190815260200160002060405180610120016040529081600082015481526020016001820160009054906101000a900473ffffffffffffffffffffffffffffffffffffffff1673ffffffffffffffffffffffffffffffffffffffff1673ffffffffffffffffffffffffffffffffffffffff168152602001600282015481526020016003820180546135f190614ac1565b80601f016020809104026020016040519081016040528092919081815260200182805461361d90614ac1565b801561366a5780601f1061363f5761010080835404028352916020019161366a565b820191906000526020600020905b81548152906001019060200180831161364d57829003601f168201915b5050505050815260200160048201805461368390614ac1565b80601f01602080910402602001604051908101604052809291908181526020018280546136af90614ac1565b80156136fc5780601f106136d1576101008083540402835291602001916136fc565b820191906000526020600020905b8154815290600101906020018083116136df57829003601f168201915b50505050508152602001600582015481526020016006820160009054906101000a900460ff16600281111561373457613733614586565b5b600281111561374657613745614586565b5b815260200160078201805461375a90614ac1565b80601f016020809104026020016040519081016040528092919081815260200182805461378690614ac1565b80156137d35780601f106137a8576101008083540402835291602001916137d3565b820191906000526020600020905b8154815290600101906020018083116137b657829003601f168201915b505050505081526020016008820154815250509050600081606001515103613830576040517f08c379a00000000000000000000000000000000000000000000000000000000081526004016138279061580f565b60405180910390fd5b60006006600083604001518152602001908152602001600020604051806101400160405290816000820160009054906101000a900473ffffffffffffffffffffffffffffffffffffffff1673ffffffffffffffffffffffffffffffffffffffff1673ffffffffffffffffffffffffffffffffffffffff168152602001600182015481526020016002820180546138c590614ac1565b80601f01602080910402602001604051908101604052809291908181526020018280546138f190614ac1565b801561393e5780601f106139135761010080835404028352916020019161393e565b820191906000526020600020905b81548152906001019060200180831161392157829003601f168201915b5050505050815260200160038201805461395790614ac1565b80601f016020809104026020016040519081016040528092919081815260200182805461398390614ac1565b80156139d05780601f106139a5576101008083540402835291602001916139d0565b820191906000526020600020905b8154815290600101906020018083116139b357829003601f168201915b505050505081526020016004820180546139e990614ac1565b80601f0160208091040260200160405190810160405280929190818152602001828054613a1590614ac1565b8015613a625780601f10613a3757610100808354040283529160200191613a62565b820191906000526020600020905b815481529060010190602001808311613a4557829003601f168201915b50505050508152602001600582018054613a7b90614ac1565b80601f0160208091040260200160405190810160405280929190818152602001828054613aa790614ac1565b8015613af45780601f10613ac957610100808354040283529160200191613af4565b820191906000526020600020905b815481529060010190602001808311613ad757829003601f168201915b50505050508152602001600682018054613b0d90614ac1565b80601f0160208091040260200160405190810160405280929190818152602001828054613b3990614ac1565b8015613b865780601f10613b5b57610100808354040283529160200191613b86565b820191906000526020600020905b815481529060010190602001808311613b6957829003601f168201915b5050505050815260200160078201548152602001600882015481526020016009820160009054906101000a900460ff166002811115613bc857613bc7614586565b5b6002811115613bda57613bd9614586565b5b8152505090503373ffffffffffffffffffffffffffffffffffffffff16816000015173ffffffffffffffffffffffffffffffffffffffff1614613c52576040517f08c379a0000000000000000000000000000000000000000000000000000000008152600401613c4990614c3c565b60405180910390fd5b600280811115613c6557613c64614586565b5b8260c001516002811115613c7c57613c7b614586565b5b03613cbc576040517f08c379a0000000000000000000000000000000000000000000000000000000008152600401613cb3906158a1565b60405180910390fd5b60016002811115613cd057613ccf614586565b5b8260c001516002811115613ce757613ce6614586565b5b03613d27576040517f08c379a0000000000000000000000000000000000000000000000000000000008152600401613d1e90615d89565b60405180910390fd5b6000600960003373ffffffffffffffffffffffffffffffffffffffff1673ffffffffffffffffffffffffffffffffffffffff1681526020019081526020016000205411613da9576040517f08c379a0000000000000000000000000000000000000000000000000000000008152600401613da0906159c5565b60405180910390fd5b8160a00151600960003373ffffffffffffffffffffffffffffffffffffffff1673ffffffffffffffffffffffffffffffffffffffff1681526020019081526020016000206000828254613dfc9190615646565b92505081905550816020015173ffffffffffffffffffffffffffffffffffffffff166108fc8360a001519081150290604051600060405180830381858888f19350505050158015613e51573d6000803e3d6000fd5b5060016008600087815260200190815260200160002060060160006101000a81548160ff02191690836002811115613e8c57613e8b614586565b5b021790555083600860008781526020019081526020016000206007019081613eb49190614e08565b503373ffffffffffffffffffffffffffffffffffffffff167fc055548580fd244033e69bfd8ad917152bee6f74fcf66d788135e42893e7f52b6008600088815260200190815260200160002042604051613f0f929190615c0e565b60405180910390a27f2e48574e89108f272024eec65c8d0780b12cdcaf8768e45745e07a3c3a05fe133383602001518460a0015142604051613f54949392919061577e565b60405180910390a15050505050565b60015481565b336000600560008373ffffffffffffffffffffffffffffffffffffffff1673ffffffffffffffffffffffffffffffffffffffff1681526020019081526020016000206003018054613fb990614ac1565b905003613ffb576040517f08c379a0000000000000000000000000000000000000000000000000000000008152600401613ff290614b3e565b60405180910390fd5b82600560003373ffffffffffffffffffffffffffffffffffffffff1673ffffffffffffffffffffffffffffffffffffffff168152602001908152602001600020600101908161404a9190614e08565b5081600560003373ffffffffffffffffffffffffffffffffffffffff1673ffffffffffffffffffffffffffffffffffffffff168152602001908152602001600020600201908161409a9190614e08565b50505050565b6000819050919050565b6140b3816140a0565b82525050565b60006020820190506140ce60008301846140aa565b92915050565b6000604051905090565b600080fd5b600080fd5b6140f1816140a0565b81146140fc57600080fd5b50565b60008135905061410e816140e8565b92915050565b600080fd5b600080fd5b6000601f19601f8301169050919050565b7f4e487b7100000000000000000000000000000000000000000000000000000000600052604160045260246000fd5b6141678261411e565b810181811067ffffffffffffffff821117156141865761418561412f565b5b80604052505050565b60006141996140d4565b90506141a5828261415e565b919050565b600067ffffffffffffffff8211156141c5576141c461412f565b5b6141ce8261411e565b9050602081019050919050565b82818337600083830152505050565b60006141fd6141f8846141aa565b61418f565b90508281526020810184848401111561421957614218614119565b5b6142248482856141db565b509392505050565b600082601f83011261424157614240614114565b5b81356142518482602086016141ea565b91505092915050565b600080600060608486031215614273576142726140de565b5b6000614281868287016140ff565b9350506020614292868287016140ff565b925050604084013567ffffffffffffffff8111156142b3576142b26140e3565b5b6142bf8682870161422c565b9150509250925092565b600073ffffffffffffffffffffffffffffffffffffffff82169050919050565b60006142f4826142c9565b9050919050565b614304816142e9565b811461430f57600080fd5b50565b600081359050614321816142fb565b92915050565b60006020828403121561433d5761433c6140de565b5b600061434b84828501614312565b91505092915050565b60006020828403121561436a576143696140de565b5b6000614378848285016140ff565b91505092915050565b61438a816142e9565b82525050565b60006020820190506143a56000830184614381565b92915050565b600381106143b857600080fd5b50565b6000813590506143ca816143ab565b92915050565b600080600080600080600060e0888a0312156143ef576143ee6140de565b5b600088013567ffffffffffffffff81111561440d5761440c6140e3565b5b6144198a828b0161422c565b975050602088013567ffffffffffffffff81111561443a576144396140e3565b5b6144468a828b0161422c565b965050604088013567ffffffffffffffff811115614467576144666140e3565b5b6144738a828b0161422c565b955050606088013567ffffffffffffffff811115614494576144936140e3565b5b6144a08a828b0161422c565b945050608088013567ffffffffffffffff8111156144c1576144c06140e3565b5b6144cd8a828b0161422c565b93505060a06144de8a828b016140ff565b92505060c06144ef8a828b016143bb565b91505092959891949750929550565b600081519050919050565b600082825260208201905092915050565b60005b8381101561453857808201518184015260208101905061451d565b83811115614547576000848401525b50505050565b6000614558826144fe565b6145628185614509565b935061457281856020860161451a565b61457b8161411e565b840191505092915050565b7f4e487b7100000000000000000000000000000000000000000000000000000000600052602160045260246000fd5b600381106145c6576145c5614586565b5b50565b60008190506145d7826145b5565b919050565b60006145e7826145c9565b9050919050565b6145f7816145dc565b82525050565b600061012082019050614613600083018c6140aa565b614620602083018b614381565b61462d604083018a6140aa565b818103606083015261463f818961454d565b90508181036080830152614653818861454d565b905061466260a08301876140aa565b61466f60c08301866145ee565b81810360e0830152614681818561454d565b90506146916101008301846140aa565b9a9950505050505050505050565b6000806000606084860312156146b8576146b76140de565b5b600084013567ffffffffffffffff8111156146d6576146d56140e3565b5b6146e28682870161422c565b935050602084013567ffffffffffffffff811115614703576147026140e3565b5b61470f8682870161422c565b925050604084013567ffffffffffffffff8111156147305761472f6140e3565b5b61473c8682870161422c565b9150509250925092565b60008060006060848603121561475f5761475e6140de565b5b600061476d868287016140ff565b935050602084013567ffffffffffffffff81111561478e5761478d6140e3565b5b61479a8682870161422c565b925050604084013567ffffffffffffffff8111156147bb576147ba6140e3565b5b6147c78682870161422c565b9150509250925092565b60006080820190506147e66000830187614381565b81810360208301526147f8818661454d565b9050818103604083015261480c818561454d565b90508181036060830152614820818461454d565b905095945050505050565b6003811061483c5761483b614586565b5b50565b600081905061484d8261482b565b919050565b600061485d8261483f565b9050919050565b61486d81614852565b82525050565b600061014082019050614889600083018d614381565b614896602083018c6140aa565b81810360408301526148a8818b61454d565b905081810360608301526148bc818a61454d565b905081810360808301526148d0818961454d565b905081810360a08301526148e4818861454d565b905081810360c08301526148f8818761454d565b905061490760e08301866140aa565b6149156101008301856140aa565b614923610120830184614864565b9b9a5050505050505050505050565b600061010082019050614948600083018b6140aa565b614955602083018a614381565b6149626040830189614381565b61496f60608301886140aa565b8181036080830152614981818761454d565b905081810360a0830152614995818661454d565b90506149a460c08301856140aa565b6149b160e08301846140aa565b9998505050505050505050565b600080604083850312156149d5576149d46140de565b5b60006149e3858286016140ff565b925050602083013567ffffffffffffffff811115614a0457614a036140e3565b5b614a108582860161422c565b9150509250929050565b60008060408385031215614a3157614a306140de565b5b600083013567ffffffffffffffff811115614a4f57614a4e6140e3565b5b614a5b8582860161422c565b925050602083013567ffffffffffffffff811115614a7c57614a7b6140e3565b5b614a888582860161422c565b9150509250929050565b7f4e487b7100000000000000000000000000000000000000000000000000000000600052602260045260246000fd5b60006002820490506001821680614ad957607f821691505b602082108103614aec57614aeb614a92565b5b50919050565b7f596f75206e65656420746f2062652077686974656c6973746564000000000000600082015250565b6000614b28601a83614509565b9150614b3382614af2565b602082019050919050565b60006020820190508181036000830152614b5781614b1b565b9050919050565b7f636f6e74656e7420646f6573206e6f7420657869737473000000000000000000600082015250565b6000614b94601783614509565b9150614b9f82614b5e565b602082019050919050565b60006020820190508181036000830152614bc381614b87565b9050919050565b7f596f7520617265206e6f7420746865206f776e6572206f662074686520636f6e60008201527f74656e7400000000000000000000000000000000000000000000000000000000602082015250565b6000614c26602483614509565b9150614c3182614bca565b604082019050919050565b60006020820190508181036000830152614c5581614c19565b9050919050565b60008190508160005260206000209050919050565b60006020601f8301049050919050565b600082821b905092915050565b600060088302614cbe7fffffffffffffffffffffffffffffffffffffffffffffffffffffffffffffffff82614c81565b614cc88683614c81565b95508019841693508086168417925050509392505050565b6000819050919050565b6000614d05614d00614cfb846140a0565b614ce0565b6140a0565b9050919050565b6000819050919050565b614d1f83614cea565b614d33614d2b82614d0c565b848454614c8e565b825550505050565b600090565b614d48614d3b565b614d53818484614d16565b505050565b5b81811015614d7757614d6c600082614d40565b600181019050614d59565b5050565b601f821115614dbc57614d8d81614c5c565b614d9684614c71565b81016020851015614da5578190505b614db9614db185614c71565b830182614d58565b50505b505050565b600082821c905092915050565b6000614ddf60001984600802614dc1565b1980831691505092915050565b6000614df88383614dce565b9150826002028217905092915050565b614e11826144fe565b67ffffffffffffffff811115614e2a57614e2961412f565b5b614e348254614ac1565b614e3f828285614d7b565b600060209050601f831160018114614e725760008415614e60578287015190505b614e6a8582614dec565b865550614ed2565b601f198416614e8086614c5c565b60005b82811015614ea857848901518255600182019150602085019450602081019050614e83565b86831015614ec55784890151614ec1601f891682614dce565b8355505b6001600288020188555050505b505050505050565b600060a082019050614eef60008301886140aa565b614efc60208301876140aa565b8181036040830152614f0e818661454d565b90508181036060830152614f22818561454d565b9050614f3160808301846140aa565b9695505050505050565b7f436f6e74656e7420776974682073616d65206861736820616c7265616479206560008201527f7869737400000000000000000000000000000000000000000000000000000000602082015250565b6000614f97602483614509565b9150614fa282614f3b565b604082019050919050565b60006020820190508181036000830152614fc681614f8a565b9050919050565b7f4e487b7100000000000000000000000000000000000000000000000000000000600052601160045260246000fd5b6000615007826140a0565b91507fffffffffffffffffffffffffffffffffffffffffffffffffffffffffffffffff820361503957615038614fcd565b5b600182019050919050565b61504d816142e9565b82525050565b61505c816140a0565b82525050565b600082825260208201905092915050565b600061507e826144fe565b6150888185615062565b935061509881856020860161451a565b6150a18161411e565b840191505092915050565b6150b581614852565b82525050565b6000610140830160008301516150d46000860182615044565b5060208301516150e76020860182615053565b50604083015184820360408601526150ff8282615073565b915050606083015184820360608601526151198282615073565b915050608083015184820360808601526151338282615073565b91505060a083015184820360a086015261514d8282615073565b91505060c083015184820360c08601526151678282615073565b91505060e083015161517c60e0860182615053565b50610100830151615191610100860182615053565b506101208301516151a66101208601826150ac565b508091505092915050565b600060408201905081810360008301526151cb81856150bb565b90506151da60208301846140aa565b9392505050565b600081905092915050565b60008190508160005260206000209050919050565b6000815461520e81614ac1565b61521881866151e1565b9450600182166000811461523357600181146152485761527b565b60ff198316865281151582028601935061527b565b615251856151ec565b60005b8381101561527357815481890152600182019150602081019050615254565b838801955050505b50505092915050565b60006152908284615201565b915081905092915050565b7f757365722077697468207468652073616d6520656d61696c20616c726561647960008201527f2065786973747300000000000000000000000000000000000000000000000000602082015250565b60006152f7602783614509565b91506153028261529b565b604082019050919050565b60006020820190508181036000830152615326816152ea565b9050919050565b60006080830160008301516153456000860182615044565b506020830151848203602086015261535d8282615073565b915050604083015184820360408601526153778282615073565b915050606083015184820360608601526153918282615073565b9150508091505092915050565b600060408201905081810360008301526153b8818561532d565b90506153c760208301846140aa565b9392505050565b7f596f752061726520746865206f776e65722e596f75206172652066726565207460008201527f6f2075736520796f7572206f776e20636f6e74656e7400000000000000000000602082015250565b600061542a603683614509565b9150615435826153ce565b604082019050919050565b600060208201905081810360008301526154598161541d565b9050919050565b7f416d6f756e74206f662045746865722070726f7669646564206973206c65737360008201527f207468616e20636f6e74656e7420707269636500000000000000000000000000602082015250565b60006154bc603383614509565b91506154c782615460565b604082019050919050565b600060208201905081810360008301526154eb816154af565b9050919050565b7f546865726520657869737420612070656e64696e672072657175657374000000600082015250565b6000615528601d83614509565b9150615533826154f2565b602082019050919050565b600060208201905081810360008301526155578161551b565b9050919050565b7f596f7572207265717565737420746f20757365207468697320636f6e74656e7460008201527f20686173206265656e20617070726f7665640000000000000000000000000000602082015250565b60006155ba603283614509565b91506155c58261555e565b604082019050919050565b600060208201905081810360008301526155e9816155ad565b9050919050565b60006155fb826140a0565b9150615606836140a0565b9250827fffffffffffffffffffffffffffffffffffffffffffffffffffffffffffffffff0382111561563b5761563a614fcd565b5b828201905092915050565b6000615651826140a0565b915061565c836140a0565b92508282101561566f5761566e614fcd565b5b828203905092915050565b615683816145dc565b82525050565b6000610120830160008301516156a26000860182615053565b5060208301516156b56020860182615044565b5060408301516156c86040860182615053565b50606083015184820360608601526156e08282615073565b915050608083015184820360808601526156fa8282615073565b91505060a083015161570f60a0860182615053565b5060c083015161572260c086018261567a565b5060e083015184820360e086015261573a8282615073565b915050610100830151615751610100860182615053565b508091505092915050565b600060208201905081810360008301526157768184615689565b905092915050565b60006080820190506157936000830187614381565b6157a06020830186614381565b6157ad60408301856140aa565b6157ba60608301846140aa565b95945050505050565b7f5265717565737420646f6573206e6f7420657869737400000000000000000000600082015250565b60006157f9601683614509565b9150615804826157c3565b602082019050919050565b60006020820190508181036000830152615828816157ec565b9050919050565b7f54686520726571756573742068617320616c7265616479206265656e2061707060008201527f726f766564000000000000000000000000000000000000000000000000000000602082015250565b600061588b602583614509565b91506158968261582f565b604082019050919050565b600060208201905081810360008301526158ba8161587e565b9050919050565b7f596f752063616e6e6f7420617070726f76652072656a6563746564207265717560008201527f6573740000000000000000000000000000000000000000000000000000000000602082015250565b600061591d602383614509565b9150615928826158c1565b604082019050919050565b6000602082019050818103600083015261594c81615910565b9050919050565b7f596f752068617665206e6f2062616c616e6365206c65667420696e207468652060008201527f736d61727420636f6e7472616374000000000000000000000000000000000000602082015250565b60006159af602e83614509565b91506159ba82615953565b604082019050919050565b600060208201905081810360008301526159de816159a2565b9050919050565b60008160001c9050919050565b6000819050919050565b6000615a0f615a0a836159e5565b6159f2565b9050919050565b600073ffffffffffffffffffffffffffffffffffffffff82169050919050565b6000615a49615a44836159e5565b615a16565b9050919050565b60008154615a5d81614ac1565b615a678186615062565b94506001821660008114615a825760018114615a9857615acb565b60ff198316865281151560200286019350615acb565b615aa185614c5c565b60005b83811015615ac357815481890152600182019150602081019050615aa4565b808801955050505b50505092915050565b600060ff82169050919050565b6000615af4615aef836159e5565b615ad4565b9050919050565b600061012083016000808401549050615b13816159fc565b615b206000870182615053565b5060018401549050615b3181615a36565b615b3e6020870182615044565b5060028401549050615b4f816159fc565b615b5c6040870182615053565b50600384018583036060870152615b738382615a50565b925050600484018583036080870152615b8c8382615a50565b92505060058401549050615b9f816159fc565b615bac60a0870182615053565b5060068401549050615bbd81615ae1565b615bca60c087018261567a565b506007840185830360e0870152615be18382615a50565b92505060088401549050615bf4816159fc565b615c02610100870182615053565b50819250505092915050565b60006040820190508181036000830152615c288185615afb565b9050615c3760208301846140aa565b9392505050565b600061010083016000830151615c576000860182615053565b506020830151615c6a6020860182615044565b506040830151615c7d6040860182615044565b506060830151615c906060860182615053565b5060808301518482036080860152615ca88282615073565b91505060a083015184820360a0860152615cc28282615073565b91505060c0830151615cd760c0860182615053565b5060e0830151615cea60e0860182615053565b508091505092915050565b60006020820190508181036000830152615d0f8184615c3e565b905092915050565b7f596f752063616e6e6f742072656a65637420612072656a65637465642072657160008201527f7565737400000000000000000000000000000000000000000000000000000000602082015250565b6000615d73602483614509565b9150615d7e82615d17565b604082019050919050565b60006020820190508181036000830152615da281615d66565b905091905056fea2646970667358221220e73d2e0eb0e393dcdd3d2fed987bb5f36bfdf506e23ce66f0d887a06201e071e64736f6c634300080f0033",
  "immutableReferences": {},
  "source": "// SPDX-License-Identifier: MIT\npragma solidity ^0.8.15;\n\ncontract CopyrightManagement {\n    enum ContentType {\n        IMAGE,\n        AUDIO,\n        TEXT\n    }\n    enum RequestType {\n        PENDING,\n        REJECTED,\n        APPROVED\n    }\n    struct User {\n        address walletAddress;\n        string firstname;\n        string lastname;\n        string emailAddress;\n    }\n    struct Content {\n        address ownerAddress;\n        uint256 Id;\n        string pHash;\n        string IPFSAddress;\n        string title;\n        string desc;\n        string fieldOfUse;\n        uint256 price;\n        uint256 publishDate;\n        ContentType contentType;\n    }\n    struct Agreement {\n        uint256 id;\n        address licensee;\n        address licenser;\n        uint256 contentId;\n        string purposeOfUse;\n        string fieldOfUse;\n        uint256 price;\n        uint256 timestamp;\n    }\n    struct Request {\n        uint256 id;\n        address licensee;\n        uint256 contentId;\n        string purposeOfUse;\n        string fieldOfUse;\n        uint256 price;\n        RequestType requestType;\n        string rejectReason;\n        uint256 timestamp;\n    }\n    event addUserEvent(address indexed _caller, User _user, uint256 timestamp);\n    event addContentEvent(\n        address indexed _caller,\n        Content _content,\n        uint256 timestamp\n    );\n    event updateContentEvent(\n        address indexed _caller,\n        uint256 indexed _contentId,\n        uint256 _lastPrice,\n        uint256 _currentPrice,\n        string _lastFieldOfUse,\n        string _currentFieldOfUse,\n        uint256 timestamp\n    );\n    event licensingEvent(Agreement _agreement);\n    event requestEvent(Request _request);\n    event updateRequestEvent(\n        address indexed _caller,\n        Request _request,\n        uint256 timestamp\n    );\n    event transferEvent(\n        address _caller,\n        address _receiver,\n        uint256 _amount,\n        uint256 _timestamp\n    );\n\n    uint256 public userCount;\n    uint256 public contentCount;\n    uint256 public agreementCount;\n    uint256 public requestCount;\n    mapping(uint256 => address) public usersList;\n    mapping(address => User) public users;\n    mapping(uint256 => Content) public contents;\n    mapping(uint256 => Agreement) public agreements;\n    mapping(uint256 => Request) public requests;\n    mapping(address => uint256) public balances;\n\n    modifier isWhitelisted(address _address) {\n        require(\n            bytes(users[_address].emailAddress).length != 0,\n            \"You need to be whitelisted\"\n        );\n        _;\n    }\n\n    function addUser(\n        string memory _firstname,\n        string memory _lastname,\n        string memory _email\n    ) public {\n        for (uint i = 0; i < userCount; i++) {\n            require(\n                keccak256(bytes(users[usersList[i]].emailAddress)) !=\n                    keccak256(bytes(_email)),\n                \"user with the same email already exists\"\n            );\n        }\n        User memory user = User(msg.sender, _firstname, _lastname, _email);\n        users[msg.sender] = user;\n        usersList[userCount] = msg.sender;\n        userCount++;\n        emit addUserEvent(msg.sender, user, block.timestamp);\n    }\n\n    function updateUser(\n        string memory _firstname,\n        string memory _lastname\n    ) public isWhitelisted(msg.sender) {\n        users[msg.sender].firstname = _firstname;\n        users[msg.sender].lastname = _lastname;\n    }\n\n    function addContent(\n        string memory _pHash,\n        string memory _IPFSAddress,\n        string memory _title,\n        string memory _desc,\n        string memory _fieldOfUse,\n        uint256 _price,\n        ContentType _contentType\n    ) public isWhitelisted(msg.sender) {\n        for (uint256 i = 0; i < contentCount; i++) {\n            Content memory tmpContent = contents[i];\n            require(\n                keccak256(bytes(tmpContent.pHash)) != keccak256(bytes(_pHash)),\n                \"Content with same hash already exist\"\n            );\n        }\n        Content memory content = Content(\n            msg.sender,\n            contentCount,\n            _pHash,\n            _IPFSAddress,\n            _title,\n            _desc,\n            _fieldOfUse,\n            _price,\n            block.timestamp,\n            _contentType\n        );\n        contents[contentCount] = content;\n        contentCount++;\n        emit addContentEvent(msg.sender, content, block.timestamp);\n    }\n\n    function updateContentData(\n        uint256 _id,\n        uint256 _price,\n        string memory _fieldOfUse\n    ) public isWhitelisted(msg.sender) {\n        Content memory content = contents[_id];\n        require((bytes(content.pHash)).length != 0, \"content does not exists\");\n        require(\n            msg.sender == contents[_id].ownerAddress,\n            \"You are not the owner of the content\"\n        );\n        uint256 lastPrice = content.price;\n        contents[_id].price = _price;\n        string memory lastFieldOfUse = content.fieldOfUse;\n        contents[_id].fieldOfUse = _fieldOfUse;\n\n        emit updateContentEvent(\n            msg.sender,\n            _id,\n            lastPrice,\n            _price,\n            lastFieldOfUse,\n            _fieldOfUse,\n            block.timestamp\n        );\n    }\n\n    function requestAgreement(\n        uint256 _contentId,\n        string memory _purposeOfUse,\n        string memory _fieldOfUse\n    ) public payable isWhitelisted(msg.sender) {\n        Content memory content = contents[_contentId];\n        require((bytes(content.pHash)).length != 0, \"content does not exists\");\n        require(\n            msg.sender != content.ownerAddress,\n            \"You are the owner.You are free to use your own content\"\n        );\n        require(\n            msg.value >= content.price,\n            \"Amount of Ether provided is less than content price\"\n        );\n        for (uint256 i = 0; i < requestCount; i++) {\n            Request memory tmpRequest = requests[i];\n            if (\n                tmpRequest.contentId == _contentId &&\n                tmpRequest.licensee == msg.sender\n            ) {\n                require(\n                    tmpRequest.requestType != RequestType.PENDING,\n                    \"There exist a pending request\"\n                );\n                require(\n                    tmpRequest.requestType != RequestType.APPROVED,\n                    \"Your request to use this content has been approved\"\n                );\n            }\n        }\n\n        balances[content.ownerAddress] += content.price;\n        if (msg.value > content.price) {\n            uint256 excess = msg.value - content.price;\n            payable(msg.sender).transfer(excess);\n        }\n        Request memory request = Request(\n            requestCount,\n            msg.sender,\n            _contentId,\n            _purposeOfUse,\n            _fieldOfUse,\n            content.price,\n            RequestType.PENDING,\n            \"\",\n            block.timestamp\n        );\n        requests[requestCount] = request;\n        requestCount++;\n        emit requestEvent(request);\n        emit transferEvent(\n            msg.sender,\n            address(this),\n            content.price,\n            block.timestamp\n        );\n    }\n\n    function rejectAgreement(\n        uint256 _requestId,\n        string memory _rejectReason\n    ) public payable isWhitelisted(msg.sender) {\n        Request memory request = requests[_requestId];\n        require(\n            bytes(request.purposeOfUse).length != 0,\n            \"Request does not exist\"\n        );\n        Content memory content = contents[request.contentId];\n        require(\n            content.ownerAddress == msg.sender,\n            \"You are not the owner of the content\"\n        );\n        require(\n            request.requestType != RequestType.APPROVED,\n            \"The request has already been approved\"\n        );\n        require(\n            request.requestType != RequestType.REJECTED,\n            \"You cannot reject a rejected request\"\n        );\n        require(\n            balances[msg.sender] > 0,\n            \"You have no balance left in the smart contract\"\n        );\n        balances[msg.sender] -= request.price;\n        payable(request.licensee).transfer(request.price);\n        requests[_requestId].requestType = RequestType.REJECTED;\n        requests[_requestId].rejectReason = _rejectReason;\n        emit updateRequestEvent(\n            msg.sender,\n            requests[_requestId],\n            block.timestamp\n        );\n        emit transferEvent(\n            msg.sender,\n            request.licensee,\n            request.price,\n            block.timestamp\n        );\n    }\n\n    function approveAgreement(\n        uint256 _requestId\n    ) public payable isWhitelisted(msg.sender) {\n        Request memory request = requests[_requestId];\n        require(\n            bytes(request.purposeOfUse).length != 0,\n            \"Request does not exist\"\n        );\n        Content memory content = contents[request.contentId];\n        require(\n            content.ownerAddress == msg.sender,\n            \"You are not the owner of the content\"\n        );\n        require(\n            request.requestType != RequestType.APPROVED,\n            \"The request has already been approved\"\n        );\n        require(\n            request.requestType != RequestType.REJECTED,\n            \"You cannot approve rejected request\"\n        );\n        require(\n            balances[msg.sender] > 0,\n            \"You have no balance left in the smart contract\"\n        );\n        requests[_requestId].requestType = RequestType.APPROVED;\n        Agreement memory agreement = Agreement(\n            agreementCount,\n            request.licensee,\n            msg.sender,\n            content.Id,\n            request.purposeOfUse,\n            request.fieldOfUse,\n            request.price,\n            block.timestamp\n        );\n        agreements[agreementCount] = agreement;\n        agreementCount++;\n        balances[msg.sender] -= request.price;\n        payable(msg.sender).transfer(request.price);\n        emit updateRequestEvent(\n            msg.sender,\n            requests[_requestId],\n            block.timestamp\n        );\n        emit transferEvent(\n            request.licensee,\n            msg.sender,\n            request.price,\n            block.timestamp\n        );\n        emit licensingEvent(agreement);\n    }\n}\n",
  "sourcePath": "/home/katai/Documents/GitHub/digital-copyright-management/truffle/contracts/CopyrightManagement.sol",
  "compiler": {
    "name": "solc",
    "version": "0.8.15+commit.e14f2714.Emscripten.clang"
  },
  "schemaVersion": "3.4.11",
  "updatedAt": "2023-05-07T16:55:51.296Z",
  "networkType": "ethereum",
  "devdoc": {
    "kind": "dev",
    "methods": {},
    "version": 1
  },
  "userdoc": {
    "kind": "user",
    "methods": {},
    "version": 1
  }
}