{
  "contractName": "CopyrightManagement",
  "abi": [
    {
      "inputs": [],
      "name": "imageCount",
      "outputs": [
        {
          "internalType": "uint256",
          "name": "",
          "type": "uint256"
        }
      ],
      "stateMutability": "view",
      "type": "function",
      "constant": true
    },
    {
      "inputs": [
        {
          "internalType": "uint256",
          "name": "",
          "type": "uint256"
        }
      ],
      "name": "images",
      "outputs": [
        {
          "internalType": "address",
          "name": "ownerAddress",
          "type": "address"
        },
        {
          "internalType": "uint256",
          "name": "imageID",
          "type": "uint256"
        },
        {
          "internalType": "string",
          "name": "pHash",
          "type": "string"
        },
        {
          "internalType": "string",
          "name": "IPFSAddress",
          "type": "string"
        },
        {
          "internalType": "string",
          "name": "imageTitle",
          "type": "string"
        },
        {
          "internalType": "string",
          "name": "ownerName",
          "type": "string"
        },
        {
          "internalType": "string",
          "name": "ownerEmail",
          "type": "string"
        },
        {
          "internalType": "uint256",
          "name": "publishDate",
          "type": "uint256"
        }
      ],
      "stateMutability": "view",
      "type": "function",
      "constant": true
    },
    {
      "inputs": [
        {
          "internalType": "string",
          "name": "_pHash",
          "type": "string"
        },
        {
          "internalType": "string",
          "name": "_IPFSAddress",
          "type": "string"
        },
        {
          "internalType": "string",
          "name": "_imageTitle",
          "type": "string"
        },
        {
          "internalType": "string",
          "name": "_ownerName",
          "type": "string"
        },
        {
          "internalType": "string",
          "name": "_ownerEmail",
          "type": "string"
        }
      ],
      "name": "addImage",
      "outputs": [],
      "stateMutability": "nonpayable",
      "type": "function"
    }
  ],
  "bytecode": "0x608060405234801561001057600080fd5b50610d06806100206000396000f3fe608060405234801561001057600080fd5b50600436106100415760003560e01c80636bcb21dd14610046578063848564821461006257806392053b6314610099575b600080fd5b610060600480360381019061005b919061067d565b6100b7565b005b61007c600480360381019061007791906107ba565b61020d565b6040516100909897969594939291906108bf565b60405180910390f35b6100a161051d565b6040516100ae9190610960565b60405180910390f35b60006040518061010001604052803373ffffffffffffffffffffffffffffffffffffffff168152602001600054815260200187815260200186815260200185815260200184815260200183815260200142815250905080600160008054815260200190815260200160002060008201518160000160006101000a81548173ffffffffffffffffffffffffffffffffffffffff021916908373ffffffffffffffffffffffffffffffffffffffff1602179055506020820151816001015560408201518160020190816101889190610b87565b50606082015181600301908161019e9190610b87565b5060808201518160040190816101b49190610b87565b5060a08201518160050190816101ca9190610b87565b5060c08201518160060190816101e09190610b87565b5060e0820151816007015590505060008081548092919061020090610c88565b9190505550505050505050565b60016020528060005260406000206000915090508060000160009054906101000a900473ffffffffffffffffffffffffffffffffffffffff169080600101549080600201805461025c906109aa565b80601f0160208091040260200160405190810160405280929190818152602001828054610288906109aa565b80156102d55780601f106102aa576101008083540402835291602001916102d5565b820191906000526020600020905b8154815290600101906020018083116102b857829003601f168201915b5050505050908060030180546102ea906109aa565b80601f0160208091040260200160405190810160405280929190818152602001828054610316906109aa565b80156103635780601f1061033857610100808354040283529160200191610363565b820191906000526020600020905b81548152906001019060200180831161034657829003601f168201915b505050505090806004018054610378906109aa565b80601f01602080910402602001604051908101604052809291908181526020018280546103a4906109aa565b80156103f15780601f106103c6576101008083540402835291602001916103f1565b820191906000526020600020905b8154815290600101906020018083116103d457829003601f168201915b505050505090806005018054610406906109aa565b80601f0160208091040260200160405190810160405280929190818152602001828054610432906109aa565b801561047f5780601f106104545761010080835404028352916020019161047f565b820191906000526020600020905b81548152906001019060200180831161046257829003601f168201915b505050505090806006018054610494906109aa565b80601f01602080910402602001604051908101604052809291908181526020018280546104c0906109aa565b801561050d5780601f106104e25761010080835404028352916020019161050d565b820191906000526020600020905b8154815290600101906020018083116104f057829003601f168201915b5050505050908060070154905088565b60005481565b6000604051905090565b600080fd5b600080fd5b600080fd5b600080fd5b6000601f19601f8301169050919050565b7f4e487b7100000000000000000000000000000000000000000000000000000000600052604160045260246000fd5b61058a82610541565b810181811067ffffffffffffffff821117156105a9576105a8610552565b5b80604052505050565b60006105bc610523565b90506105c88282610581565b919050565b600067ffffffffffffffff8211156105e8576105e7610552565b5b6105f182610541565b9050602081019050919050565b82818337600083830152505050565b600061062061061b846105cd565b6105b2565b90508281526020810184848401111561063c5761063b61053c565b5b6106478482856105fe565b509392505050565b600082601f83011261066457610663610537565b5b813561067484826020860161060d565b91505092915050565b600080600080600060a086880312156106995761069861052d565b5b600086013567ffffffffffffffff8111156106b7576106b6610532565b5b6106c38882890161064f565b955050602086013567ffffffffffffffff8111156106e4576106e3610532565b5b6106f08882890161064f565b945050604086013567ffffffffffffffff81111561071157610710610532565b5b61071d8882890161064f565b935050606086013567ffffffffffffffff81111561073e5761073d610532565b5b61074a8882890161064f565b925050608086013567ffffffffffffffff81111561076b5761076a610532565b5b6107778882890161064f565b9150509295509295909350565b6000819050919050565b61079781610784565b81146107a257600080fd5b50565b6000813590506107b48161078e565b92915050565b6000602082840312156107d0576107cf61052d565b5b60006107de848285016107a5565b91505092915050565b600073ffffffffffffffffffffffffffffffffffffffff82169050919050565b6000610812826107e7565b9050919050565b61082281610807565b82525050565b61083181610784565b82525050565b600081519050919050565b600082825260208201905092915050565b60005b83811015610871578082015181840152602081019050610856565b83811115610880576000848401525b50505050565b600061089182610837565b61089b8185610842565b93506108ab818560208601610853565b6108b481610541565b840191505092915050565b6000610100820190506108d5600083018b610819565b6108e2602083018a610828565b81810360408301526108f48189610886565b905081810360608301526109088188610886565b9050818103608083015261091c8187610886565b905081810360a08301526109308186610886565b905081810360c08301526109448185610886565b905061095360e0830184610828565b9998505050505050505050565b60006020820190506109756000830184610828565b92915050565b7f4e487b7100000000000000000000000000000000000000000000000000000000600052602260045260246000fd5b600060028204905060018216806109c257607f821691505b6020821081036109d5576109d461097b565b5b50919050565b60008190508160005260206000209050919050565b60006020601f8301049050919050565b600082821b905092915050565b600060088302610a3d7fffffffffffffffffffffffffffffffffffffffffffffffffffffffffffffffff82610a00565b610a478683610a00565b95508019841693508086168417925050509392505050565b6000819050919050565b6000610a84610a7f610a7a84610784565b610a5f565b610784565b9050919050565b6000819050919050565b610a9e83610a69565b610ab2610aaa82610a8b565b848454610a0d565b825550505050565b600090565b610ac7610aba565b610ad2818484610a95565b505050565b5b81811015610af657610aeb600082610abf565b600181019050610ad8565b5050565b601f821115610b3b57610b0c816109db565b610b15846109f0565b81016020851015610b24578190505b610b38610b30856109f0565b830182610ad7565b50505b505050565b600082821c905092915050565b6000610b5e60001984600802610b40565b1980831691505092915050565b6000610b778383610b4d565b9150826002028217905092915050565b610b9082610837565b67ffffffffffffffff811115610ba957610ba8610552565b5b610bb382546109aa565b610bbe828285610afa565b600060209050601f831160018114610bf15760008415610bdf578287015190505b610be98582610b6b565b865550610c51565b601f198416610bff866109db565b60005b82811015610c2757848901518255600182019150602085019450602081019050610c02565b86831015610c445784890151610c40601f891682610b4d565b8355505b6001600288020188555050505b505050505050565b7f4e487b7100000000000000000000000000000000000000000000000000000000600052601160045260246000fd5b6000610c9382610784565b91507fffffffffffffffffffffffffffffffffffffffffffffffffffffffffffffffff8203610cc557610cc4610c59565b5b60018201905091905056fea26469706673582212207314dce9a5481ab14c5d1214573abec3f13c6d37fcae3216a7fa98e9a91279d964736f6c634300080f0033",
  "immutableReferences": {},
  "source": "// SPDX-License-Identifier: MIT\npragma solidity ^0.8.15;\n\ncontract CopyrightManagement {\n    \n    uint public imageCount;\n\n    mapping(uint => ImageInfo) public images;\n\n    struct ImageInfo{\n        address ownerAddress;\n        uint imageID;\n        string pHash; \n        string IPFSAddress;\n        string imageTitle;\n        string ownerName; \n        string ownerEmail;\n        uint publishDate;\n    }\n\n    function addImage(string memory _pHash, string memory _IPFSAddress, string memory _imageTitle, string memory _ownerName, string memory _ownerEmail) public {\n        ImageInfo memory image = ImageInfo(msg.sender,imageCount,_pHash,_IPFSAddress,_imageTitle,_ownerName,_ownerEmail,block.timestamp);\n        images[imageCount] = image;\n        imageCount++; \n    }\n\n}",
  "sourcePath": "/home/katai/Documents/GitHub/digital-copyright-management/truffle/contracts/CopyrightManagement.sol",
  "compiler": {
    "name": "solc",
    "version": "0.8.15+commit.e14f2714.Emscripten.clang"
  },
  "schemaVersion": "3.4.11",
  "updatedAt": "2022-12-15T23:01:36.485Z",
  "networkType": "ethereum",
  "devdoc": {
    "kind": "dev",
    "methods": {},
    "version": 1
  },
  "userdoc": {
    "kind": "user",
    "methods": {},
    "version": 1
  }
}