{
  "contractName": "CopyrightManagement",
  "abi": [
    {
      "anonymous": false,
      "inputs": [
        {
          "components": [
            {
              "internalType": "address",
              "name": "ownerAddress",
              "type": "address"
            },
            {
              "internalType": "uint256",
              "name": "Id",
              "type": "uint256"
            },
            {
              "internalType": "string",
              "name": "pHash",
              "type": "string"
            },
            {
              "internalType": "string",
              "name": "IPFSAddress",
              "type": "string"
            },
            {
              "internalType": "string",
              "name": "title",
              "type": "string"
            },
            {
              "internalType": "string",
              "name": "ownerName",
              "type": "string"
            },
            {
              "internalType": "string",
              "name": "ownerEmail",
              "type": "string"
            },
            {
              "internalType": "string",
              "name": "desc",
              "type": "string"
            },
            {
              "internalType": "uint256",
              "name": "price",
              "type": "uint256"
            },
            {
              "internalType": "uint256",
              "name": "publishDate",
              "type": "uint256"
            },
            {
              "internalType": "enum CopyrightManagement.ContentType",
              "name": "contentType",
              "type": "uint8"
            }
          ],
          "indexed": false,
          "internalType": "struct CopyrightManagement.Content",
          "name": "_content",
          "type": "tuple"
        },
        {
          "indexed": false,
          "internalType": "enum CopyrightManagement.Action",
          "name": "_action",
          "type": "uint8"
        }
      ],
      "name": "addContentEvent",
      "type": "event"
    },
    {
      "anonymous": false,
      "inputs": [
        {
          "indexed": false,
          "internalType": "address",
          "name": "_lisensee",
          "type": "address"
        },
        {
          "indexed": false,
          "internalType": "address",
          "name": "_lisenser",
          "type": "address"
        },
        {
          "indexed": true,
          "internalType": "uint256",
          "name": "_contentId",
          "type": "uint256"
        },
        {
          "indexed": false,
          "internalType": "enum CopyrightManagement.Action",
          "name": "_action",
          "type": "uint8"
        }
      ],
      "name": "licensingEvent",
      "type": "event"
    },
    {
      "anonymous": false,
      "inputs": [
        {
          "indexed": true,
          "internalType": "address",
          "name": "_caller",
          "type": "address"
        },
        {
          "indexed": true,
          "internalType": "uint256",
          "name": "_contentId",
          "type": "uint256"
        },
        {
          "indexed": false,
          "internalType": "uint256",
          "name": "_lastPrice",
          "type": "uint256"
        },
        {
          "indexed": false,
          "internalType": "uint256",
          "name": "_currentPrice",
          "type": "uint256"
        },
        {
          "indexed": false,
          "internalType": "enum CopyrightManagement.Action",
          "name": "_action",
          "type": "uint8"
        }
      ],
      "name": "updateContentPriceEvent",
      "type": "event"
    },
    {
      "inputs": [],
      "name": "agreementCount",
      "outputs": [
        {
          "internalType": "uint256",
          "name": "",
          "type": "uint256"
        }
      ],
      "stateMutability": "view",
      "type": "function",
      "constant": true
    },
    {
      "inputs": [
        {
          "internalType": "uint256",
          "name": "",
          "type": "uint256"
        }
      ],
      "name": "agreements",
      "outputs": [
        {
          "internalType": "uint256",
          "name": "id",
          "type": "uint256"
        },
        {
          "internalType": "address",
          "name": "licensee",
          "type": "address"
        },
        {
          "internalType": "address",
          "name": "licenser",
          "type": "address"
        },
        {
          "internalType": "uint256",
          "name": "contentId",
          "type": "uint256"
        },
        {
          "internalType": "string",
          "name": "purposeOfUse",
          "type": "string"
        },
        {
          "internalType": "uint256",
          "name": "timestamp",
          "type": "uint256"
        }
      ],
      "stateMutability": "view",
      "type": "function",
      "constant": true
    },
    {
      "inputs": [
        {
          "internalType": "address",
          "name": "",
          "type": "address"
        }
      ],
      "name": "balances",
      "outputs": [
        {
          "internalType": "uint256",
          "name": "",
          "type": "uint256"
        }
      ],
      "stateMutability": "view",
      "type": "function",
      "constant": true
    },
    {
      "inputs": [],
      "name": "contentCount",
      "outputs": [
        {
          "internalType": "uint256",
          "name": "",
          "type": "uint256"
        }
      ],
      "stateMutability": "view",
      "type": "function",
      "constant": true
    },
    {
      "inputs": [
        {
          "internalType": "uint256",
          "name": "",
          "type": "uint256"
        }
      ],
      "name": "contents",
      "outputs": [
        {
          "internalType": "address",
          "name": "ownerAddress",
          "type": "address"
        },
        {
          "internalType": "uint256",
          "name": "Id",
          "type": "uint256"
        },
        {
          "internalType": "string",
          "name": "pHash",
          "type": "string"
        },
        {
          "internalType": "string",
          "name": "IPFSAddress",
          "type": "string"
        },
        {
          "internalType": "string",
          "name": "title",
          "type": "string"
        },
        {
          "internalType": "string",
          "name": "ownerName",
          "type": "string"
        },
        {
          "internalType": "string",
          "name": "ownerEmail",
          "type": "string"
        },
        {
          "internalType": "string",
          "name": "desc",
          "type": "string"
        },
        {
          "internalType": "uint256",
          "name": "price",
          "type": "uint256"
        },
        {
          "internalType": "uint256",
          "name": "publishDate",
          "type": "uint256"
        },
        {
          "internalType": "enum CopyrightManagement.ContentType",
          "name": "contentType",
          "type": "uint8"
        }
      ],
      "stateMutability": "view",
      "type": "function",
      "constant": true
    },
    {
      "inputs": [
        {
          "internalType": "string",
          "name": "_pHash",
          "type": "string"
        },
        {
          "internalType": "string",
          "name": "_IPFSAddress",
          "type": "string"
        },
        {
          "internalType": "string",
          "name": "_title",
          "type": "string"
        },
        {
          "internalType": "string",
          "name": "_ownerName",
          "type": "string"
        },
        {
          "internalType": "string",
          "name": "_ownerEmail",
          "type": "string"
        },
        {
          "internalType": "string",
          "name": "_desc",
          "type": "string"
        },
        {
          "internalType": "uint256",
          "name": "_price",
          "type": "uint256"
        },
        {
          "internalType": "enum CopyrightManagement.ContentType",
          "name": "_contentType",
          "type": "uint8"
        }
      ],
      "name": "addContent",
      "outputs": [],
      "stateMutability": "nonpayable",
      "type": "function"
    },
    {
      "inputs": [
        {
          "internalType": "uint256",
          "name": "_id",
          "type": "uint256"
        },
        {
          "internalType": "string",
          "name": "_desc",
          "type": "string"
        },
        {
          "internalType": "uint256",
          "name": "_price",
          "type": "uint256"
        }
      ],
      "name": "updateContentData",
      "outputs": [],
      "stateMutability": "nonpayable",
      "type": "function"
    },
    {
      "inputs": [
        {
          "internalType": "uint256",
          "name": "_id",
          "type": "uint256"
        },
        {
          "internalType": "string",
          "name": "_purposeOfUse",
          "type": "string"
        }
      ],
      "name": "licensingContent",
      "outputs": [],
      "stateMutability": "payable",
      "type": "function",
      "payable": true
    },
    {
      "inputs": [],
      "name": "withdraw",
      "outputs": [],
      "stateMutability": "payable",
      "type": "function",
      "payable": true
    }
  ],
  "bytecode": "0x608060405234801561001057600080fd5b506121df806100206000396000f3fe6080604052600436106100865760003560e01c8063b5ecf91211610059578063b5ecf91214610117578063bb7bb2781461015e578063bd14de9614610189578063c819eab9146101cb578063cc459696146101f457610086565b8063049bfc891461008b57806327e235e3146100b45780633ccfd60b146100f1578063b2e975ea146100fb575b600080fd5b34801561009757600080fd5b506100b260048036038101906100ad919061144f565b61021f565b005b3480156100c057600080fd5b506100db60048036038101906100d6919061160b565b610429565b6040516100e89190611647565b60405180910390f35b6100f9610441565b005b61011560048036038101906101109190611662565b610514565b005b34801561012357600080fd5b5061013e600480360381019061013991906116be565b610c7b565b6040516101559b9a999897969594939291906117f9565b60405180910390f35b34801561016a57600080fd5b50610173611032565b6040516101809190611647565b60405180910390f35b34801561019557600080fd5b506101b060048036038101906101ab91906116be565b611038565b6040516101c2969594939291906118ce565b60405180910390f35b3480156101d757600080fd5b506101f260048036038101906101ed9190611936565b61113c565b005b34801561020057600080fd5b50610209611294565b6040516102169190611647565b60405180910390f35b60006040518061016001604052803373ffffffffffffffffffffffffffffffffffffffff16815260200160005481526020018a815260200189815260200188815260200187815260200186815260200185815260200184815260200142815260200183600281111561029457610293611782565b5b815250905080600260008054815260200190815260200160002060008201518160000160006101000a81548173ffffffffffffffffffffffffffffffffffffffff021916908373ffffffffffffffffffffffffffffffffffffffff1602179055506020820151816001015560408201518160020190816103149190611bb1565b50606082015181600301908161032a9190611bb1565b5060808201518160040190816103409190611bb1565b5060a08201518160050190816103569190611bb1565b5060c082015181600601908161036c9190611bb1565b5060e08201518160070190816103829190611bb1565b506101008201518160080155610120820151816009015561014082015181600a0160006101000a81548160ff021916908360028111156103c5576103c4611782565b5b02179055509050506000808154809291906103df90611cb2565b91905055507f147fa28688d38a6d851a92fa757620d96bf77242df97abbcf7d58e8f345f17aa816000604051610416929190611ecb565b60405180910390a1505050505050505050565b60046020528060005260406000206000915090505481565b6000600460003373ffffffffffffffffffffffffffffffffffffffff1673ffffffffffffffffffffffffffffffffffffffff1681526020019081526020016000205490506000600460003373ffffffffffffffffffffffffffffffffffffffff1673ffffffffffffffffffffffffffffffffffffffff168152602001908152602001600020819055503373ffffffffffffffffffffffffffffffffffffffff166108fc829081150290604051600060405180830381858888f19350505050158015610510573d6000803e3d6000fd5b5050565b600060026000848152602001908152602001600020604051806101600160405290816000820160009054906101000a900473ffffffffffffffffffffffffffffffffffffffff1673ffffffffffffffffffffffffffffffffffffffff1673ffffffffffffffffffffffffffffffffffffffff168152602001600182015481526020016002820180546105a5906119d4565b80601f01602080910402602001604051908101604052809291908181526020018280546105d1906119d4565b801561061e5780601f106105f35761010080835404028352916020019161061e565b820191906000526020600020905b81548152906001019060200180831161060157829003601f168201915b50505050508152602001600382018054610637906119d4565b80601f0160208091040260200160405190810160405280929190818152602001828054610663906119d4565b80156106b05780601f10610685576101008083540402835291602001916106b0565b820191906000526020600020905b81548152906001019060200180831161069357829003601f168201915b505050505081526020016004820180546106c9906119d4565b80601f01602080910402602001604051908101604052809291908181526020018280546106f5906119d4565b80156107425780601f1061071757610100808354040283529160200191610742565b820191906000526020600020905b81548152906001019060200180831161072557829003601f168201915b5050505050815260200160058201805461075b906119d4565b80601f0160208091040260200160405190810160405280929190818152602001828054610787906119d4565b80156107d45780601f106107a9576101008083540402835291602001916107d4565b820191906000526020600020905b8154815290600101906020018083116107b757829003601f168201915b505050505081526020016006820180546107ed906119d4565b80601f0160208091040260200160405190810160405280929190818152602001828054610819906119d4565b80156108665780601f1061083b57610100808354040283529160200191610866565b820191906000526020600020905b81548152906001019060200180831161084957829003601f168201915b5050505050815260200160078201805461087f906119d4565b80601f01602080910402602001604051908101604052809291908181526020018280546108ab906119d4565b80156108f85780601f106108cd576101008083540402835291602001916108f8565b820191906000526020600020905b8154815290600101906020018083116108db57829003601f168201915b505050505081526020016008820154815260200160098201548152602001600a820160009054906101000a900460ff16600281111561093a57610939611782565b5b600281111561094c5761094b611782565b5b815250509050806000015173ffffffffffffffffffffffffffffffffffffffff163373ffffffffffffffffffffffffffffffffffffffff16036109c4576040517f08c379a00000000000000000000000000000000000000000000000000000000081526004016109bb90611f6d565b60405180910390fd5b806101000151341015610a0c576040517f08c379a0000000000000000000000000000000000000000000000000000000008152600401610a0390611fff565b60405180910390fd5b80610100015160046000836000015173ffffffffffffffffffffffffffffffffffffffff1673ffffffffffffffffffffffffffffffffffffffff1681526020019081526020016000206000828254610a64919061201f565b92505081905550806101000151341115610ad657600081610100015134610a8b9190612075565b90503373ffffffffffffffffffffffffffffffffffffffff166108fc829081150290604051600060405180830381858888f19350505050158015610ad3573d6000803e3d6000fd5b50505b60006040518060c0016040528060015481526020013373ffffffffffffffffffffffffffffffffffffffff168152602001836000015173ffffffffffffffffffffffffffffffffffffffff16815260200183602001518152602001848152602001428152509050806003600060015481526020019081526020016000206000820151816000015560208201518160010160006101000a81548173ffffffffffffffffffffffffffffffffffffffff021916908373ffffffffffffffffffffffffffffffffffffffff16021790555060408201518160020160006101000a81548173ffffffffffffffffffffffffffffffffffffffff021916908373ffffffffffffffffffffffffffffffffffffffff160217905550606082015181600301556080820151816004019081610c0a9190611bb1565b5060a0820151816005015590505060016000815480929190610c2b90611cb2565b919050555081602001517fdd49f30d880cedb7597278f7ecbac762d5918e87fd7a175b43d3c71f2e98a1d43384600001516002604051610c6d939291906120a9565b60405180910390a250505050565b60026020528060005260406000206000915090508060000160009054906101000a900473ffffffffffffffffffffffffffffffffffffffff1690806001015490806002018054610cca906119d4565b80601f0160208091040260200160405190810160405280929190818152602001828054610cf6906119d4565b8015610d435780601f10610d1857610100808354040283529160200191610d43565b820191906000526020600020905b815481529060010190602001808311610d2657829003601f168201915b505050505090806003018054610d58906119d4565b80601f0160208091040260200160405190810160405280929190818152602001828054610d84906119d4565b8015610dd15780601f10610da657610100808354040283529160200191610dd1565b820191906000526020600020905b815481529060010190602001808311610db457829003601f168201915b505050505090806004018054610de6906119d4565b80601f0160208091040260200160405190810160405280929190818152602001828054610e12906119d4565b8015610e5f5780601f10610e3457610100808354040283529160200191610e5f565b820191906000526020600020905b815481529060010190602001808311610e4257829003601f168201915b505050505090806005018054610e74906119d4565b80601f0160208091040260200160405190810160405280929190818152602001828054610ea0906119d4565b8015610eed5780601f10610ec257610100808354040283529160200191610eed565b820191906000526020600020905b815481529060010190602001808311610ed057829003601f168201915b505050505090806006018054610f02906119d4565b80601f0160208091040260200160405190810160405280929190818152602001828054610f2e906119d4565b8015610f7b5780601f10610f5057610100808354040283529160200191610f7b565b820191906000526020600020905b815481529060010190602001808311610f5e57829003601f168201915b505050505090806007018054610f90906119d4565b80601f0160208091040260200160405190810160405280929190818152602001828054610fbc906119d4565b80156110095780601f10610fde57610100808354040283529160200191611009565b820191906000526020600020905b815481529060010190602001808311610fec57829003601f168201915b50505050509080600801549080600901549080600a0160009054906101000a900460ff1690508b565b60015481565b60036020528060005260406000206000915090508060000154908060010160009054906101000a900473ffffffffffffffffffffffffffffffffffffffff16908060020160009054906101000a900473ffffffffffffffffffffffffffffffffffffffff16908060030154908060040180546110b3906119d4565b80601f01602080910402602001604051908101604052809291908181526020018280546110df906119d4565b801561112c5780601f106111015761010080835404028352916020019161112c565b820191906000526020600020905b81548152906001019060200180831161110f57829003601f168201915b5050505050908060050154905086565b6002600084815260200190815260200160002060000160009054906101000a900473ffffffffffffffffffffffffffffffffffffffff1673ffffffffffffffffffffffffffffffffffffffff163373ffffffffffffffffffffffffffffffffffffffff16146111e0576040517f08c379a00000000000000000000000000000000000000000000000000000000081526004016111d790612152565b60405180910390fd5b6000600260008581526020019081526020016000206008015490508260026000868152602001908152602001600020600701908161121e9190611bb1565b50816002600086815260200190815260200160002060080181905550833373ffffffffffffffffffffffffffffffffffffffff167f578e57a7562675d67d4a59c5ef4e993520e62c6ac8cca17fd2021fb8868a98e48385600160405161128693929190612172565b60405180910390a350505050565b60005481565b6000604051905090565b600080fd5b600080fd5b600080fd5b600080fd5b6000601f19601f8301169050919050565b7f4e487b7100000000000000000000000000000000000000000000000000000000600052604160045260246000fd5b611301826112b8565b810181811067ffffffffffffffff821117156113205761131f6112c9565b5b80604052505050565b600061133361129a565b905061133f82826112f8565b919050565b600067ffffffffffffffff82111561135f5761135e6112c9565b5b611368826112b8565b9050602081019050919050565b82818337600083830152505050565b600061139761139284611344565b611329565b9050828152602081018484840111156113b3576113b26112b3565b5b6113be848285611375565b509392505050565b600082601f8301126113db576113da6112ae565b5b81356113eb848260208601611384565b91505092915050565b6000819050919050565b611407816113f4565b811461141257600080fd5b50565b600081359050611424816113fe565b92915050565b6003811061143757600080fd5b50565b6000813590506114498161142a565b92915050565b600080600080600080600080610100898b0312156114705761146f6112a4565b5b600089013567ffffffffffffffff81111561148e5761148d6112a9565b5b61149a8b828c016113c6565b985050602089013567ffffffffffffffff8111156114bb576114ba6112a9565b5b6114c78b828c016113c6565b975050604089013567ffffffffffffffff8111156114e8576114e76112a9565b5b6114f48b828c016113c6565b965050606089013567ffffffffffffffff811115611515576115146112a9565b5b6115218b828c016113c6565b955050608089013567ffffffffffffffff811115611542576115416112a9565b5b61154e8b828c016113c6565b94505060a089013567ffffffffffffffff81111561156f5761156e6112a9565b5b61157b8b828c016113c6565b93505060c061158c8b828c01611415565b92505060e061159d8b828c0161143a565b9150509295985092959890939650565b600073ffffffffffffffffffffffffffffffffffffffff82169050919050565b60006115d8826115ad565b9050919050565b6115e8816115cd565b81146115f357600080fd5b50565b600081359050611605816115df565b92915050565b600060208284031215611621576116206112a4565b5b600061162f848285016115f6565b91505092915050565b611641816113f4565b82525050565b600060208201905061165c6000830184611638565b92915050565b60008060408385031215611679576116786112a4565b5b600061168785828601611415565b925050602083013567ffffffffffffffff8111156116a8576116a76112a9565b5b6116b4858286016113c6565b9150509250929050565b6000602082840312156116d4576116d36112a4565b5b60006116e284828501611415565b91505092915050565b6116f4816115cd565b82525050565b600081519050919050565b600082825260208201905092915050565b60005b83811015611734578082015181840152602081019050611719565b83811115611743576000848401525b50505050565b6000611754826116fa565b61175e8185611705565b935061176e818560208601611716565b611777816112b8565b840191505092915050565b7f4e487b7100000000000000000000000000000000000000000000000000000000600052602160045260246000fd5b600381106117c2576117c1611782565b5b50565b60008190506117d3826117b1565b919050565b60006117e3826117c5565b9050919050565b6117f3816117d8565b82525050565b60006101608201905061180f600083018e6116eb565b61181c602083018d611638565b818103604083015261182e818c611749565b90508181036060830152611842818b611749565b90508181036080830152611856818a611749565b905081810360a083015261186a8189611749565b905081810360c083015261187e8188611749565b905081810360e08301526118928187611749565b90506118a2610100830186611638565b6118b0610120830185611638565b6118be6101408301846117ea565b9c9b505050505050505050505050565b600060c0820190506118e36000830189611638565b6118f060208301886116eb565b6118fd60408301876116eb565b61190a6060830186611638565b818103608083015261191c8185611749565b905061192b60a0830184611638565b979650505050505050565b60008060006060848603121561194f5761194e6112a4565b5b600061195d86828701611415565b935050602084013567ffffffffffffffff81111561197e5761197d6112a9565b5b61198a868287016113c6565b925050604061199b86828701611415565b9150509250925092565b7f4e487b7100000000000000000000000000000000000000000000000000000000600052602260045260246000fd5b600060028204905060018216806119ec57607f821691505b6020821081036119ff576119fe6119a5565b5b50919050565b60008190508160005260206000209050919050565b60006020601f8301049050919050565b600082821b905092915050565b600060088302611a677fffffffffffffffffffffffffffffffffffffffffffffffffffffffffffffffff82611a2a565b611a718683611a2a565b95508019841693508086168417925050509392505050565b6000819050919050565b6000611aae611aa9611aa4846113f4565b611a89565b6113f4565b9050919050565b6000819050919050565b611ac883611a93565b611adc611ad482611ab5565b848454611a37565b825550505050565b600090565b611af1611ae4565b611afc818484611abf565b505050565b5b81811015611b2057611b15600082611ae9565b600181019050611b02565b5050565b601f821115611b6557611b3681611a05565b611b3f84611a1a565b81016020851015611b4e578190505b611b62611b5a85611a1a565b830182611b01565b50505b505050565b600082821c905092915050565b6000611b8860001984600802611b6a565b1980831691505092915050565b6000611ba18383611b77565b9150826002028217905092915050565b611bba826116fa565b67ffffffffffffffff811115611bd357611bd26112c9565b5b611bdd82546119d4565b611be8828285611b24565b600060209050601f831160018114611c1b5760008415611c09578287015190505b611c138582611b95565b865550611c7b565b601f198416611c2986611a05565b60005b82811015611c5157848901518255600182019150602085019450602081019050611c2c565b86831015611c6e5784890151611c6a601f891682611b77565b8355505b6001600288020188555050505b505050505050565b7f4e487b7100000000000000000000000000000000000000000000000000000000600052601160045260246000fd5b6000611cbd826113f4565b91507fffffffffffffffffffffffffffffffffffffffffffffffffffffffffffffffff8203611cef57611cee611c83565b5b600182019050919050565b611d03816115cd565b82525050565b611d12816113f4565b82525050565b600082825260208201905092915050565b6000611d34826116fa565b611d3e8185611d18565b9350611d4e818560208601611716565b611d57816112b8565b840191505092915050565b611d6b816117d8565b82525050565b600061016083016000830151611d8a6000860182611cfa565b506020830151611d9d6020860182611d09565b5060408301518482036040860152611db58282611d29565b91505060608301518482036060860152611dcf8282611d29565b91505060808301518482036080860152611de98282611d29565b91505060a083015184820360a0860152611e038282611d29565b91505060c083015184820360c0860152611e1d8282611d29565b91505060e083015184820360e0860152611e378282611d29565b915050610100830151611e4e610100860182611d09565b50610120830151611e63610120860182611d09565b50610140830151611e78610140860182611d62565b508091505092915050565b60038110611e9457611e93611782565b5b50565b6000819050611ea582611e83565b919050565b6000611eb582611e97565b9050919050565b611ec581611eaa565b82525050565b60006040820190508181036000830152611ee58185611d71565b9050611ef46020830184611ebc565b9392505050565b7f596f752061726520746865206f776e65722e596f75206172652066726565207460008201527f6f2075736520796f7572206f776e20636f6e74656e7400000000000000000000602082015250565b6000611f57603683611705565b9150611f6282611efb565b604082019050919050565b60006020820190508181036000830152611f8681611f4a565b9050919050565b7f416d6f756e74206f662045746865722070726f7669646564206973206c65737360008201527f207468616e20636f6e74656e7420707269636500000000000000000000000000602082015250565b6000611fe9603383611705565b9150611ff482611f8d565b604082019050919050565b6000602082019050818103600083015261201881611fdc565b9050919050565b600061202a826113f4565b9150612035836113f4565b9250827fffffffffffffffffffffffffffffffffffffffffffffffffffffffffffffffff0382111561206a57612069611c83565b5b828201905092915050565b6000612080826113f4565b915061208b836113f4565b92508282101561209e5761209d611c83565b5b828203905092915050565b60006060820190506120be60008301866116eb565b6120cb60208301856116eb565b6120d86040830184611ebc565b949350505050565b7f596f7520617265206e6f7420746865206f776e6572206f662074686520636f6e60008201527f74656e7400000000000000000000000000000000000000000000000000000000602082015250565b600061213c602483611705565b9150612147826120e0565b604082019050919050565b6000602082019050818103600083015261216b8161212f565b9050919050565b60006060820190506121876000830186611638565b6121946020830185611638565b6121a16040830184611ebc565b94935050505056fea2646970667358221220fea3401f66e85e5f3be6843c2b66fcf85c11efcedb78ad8a0d699b371f65502b64736f6c634300080f0033",
  "immutableReferences": {},
  "source": "// SPDX-License-Identifier: MIT\npragma solidity ^0.8.15;\n\ncontract CopyrightManagement {\n    enum ContentType {\n        IMAGE,\n        AUDIO,\n        TEXT\n    }\n    enum Action {\n        CREATE,\n        UPDATE,\n        Licensing\n    }\n    struct Content {\n        address ownerAddress;\n        uint256 Id;\n        string pHash;\n        string IPFSAddress;\n        string title;\n        string ownerName;\n        string ownerEmail;\n        string desc;\n        uint256 price;\n        uint256 publishDate;\n        ContentType contentType;\n    }\n    struct Agreement {\n        uint256 id;\n        address licensee;\n        address licenser;\n        uint256 contentId;\n        string purposeOfUse;\n        uint256 timestamp;\n    }\n    event addContentEvent(Content _content, Action _action);\n    event updateContentPriceEvent(\n        address indexed _caller,\n        uint256 indexed _contentId,\n        uint256 _lastPrice,\n        uint256 _currentPrice,\n        Action _action\n    );\n    event licensingEvent(\n        address _lisensee,\n        address _lisenser,\n        uint256 indexed _contentId,\n        Action _action\n    );\n\n    uint256 public contentCount;\n    uint256 public agreementCount;\n\n    mapping(uint256 => Content) public contents;\n    mapping(uint256 => Agreement) public agreements;\n    mapping(address => uint256) public balances;\n\n    function addContent(\n        string memory _pHash,\n        string memory _IPFSAddress,\n        string memory _title,\n        string memory _ownerName,\n        string memory _ownerEmail,\n        string memory _desc,\n        uint256 _price,\n        ContentType _contentType\n    ) public {\n        Content memory content = Content(\n            msg.sender,\n            contentCount,\n            _pHash,\n            _IPFSAddress,\n            _title,\n            _ownerName,\n            _ownerEmail,\n            _desc,\n            _price,\n            block.timestamp,\n            _contentType\n        );\n        contents[contentCount] = content;\n        contentCount++;\n        emit addContentEvent(content, Action.CREATE);\n    }\n\n    function updateContentData(\n        uint256 _id,\n        string memory _desc,\n        uint256 _price\n    ) public {\n        require(\n            msg.sender == contents[_id].ownerAddress,\n            \"You are not the owner of the content\"\n        );\n        uint256 lastPrice = contents[_id].price;\n        contents[_id].desc = _desc;\n        contents[_id].price = _price;\n        emit updateContentPriceEvent(\n            msg.sender,\n            _id,\n            lastPrice,\n            _price,\n            Action.UPDATE\n        );\n    }\n\n    function licensingContent(\n        uint256 _id,\n        string memory _purposeOfUse\n    ) public payable {\n        Content memory content = contents[_id];\n        require(\n            msg.sender != content.ownerAddress,\n            \"You are the owner.You are free to use your own content\"\n        );\n        require(\n            msg.value >= content.price,\n            \"Amount of Ether provided is less than content price\"\n        );\n        balances[content.ownerAddress] += content.price;\n        if (msg.value > content.price) {\n            uint256 excess = msg.value - content.price;\n            payable(msg.sender).transfer(excess);\n        }\n        Agreement memory agreement = Agreement(\n            agreementCount,\n            msg.sender,\n            content.ownerAddress,\n            content.Id,\n            _purposeOfUse,\n            block.timestamp\n        );\n        agreements[agreementCount] = agreement;\n        agreementCount++;\n        emit licensingEvent(\n            msg.sender,\n            content.ownerAddress,\n            content.Id,\n            Action.Licensing\n        );\n    }\n\n    function withdraw() public payable {\n        uint refund = balances[msg.sender];\n        balances[msg.sender] = 0;\n        payable(msg.sender).transfer(refund);\n    }\n}\n",
  "sourcePath": "/home/katai/Documents/GitHub/digital-copyright-management/truffle/contracts/CopyrightManagement.sol",
  "compiler": {
    "name": "solc",
    "version": "0.8.15+commit.e14f2714.Emscripten.clang"
  },
  "schemaVersion": "3.4.11",
  "updatedAt": "2023-03-28T17:55:27.787Z",
  "networkType": "ethereum",
  "devdoc": {
    "kind": "dev",
    "methods": {},
    "version": 1
  },
  "userdoc": {
    "kind": "user",
    "methods": {},
    "version": 1
  }
}