{
  "contractName": "CopyrightManagement",
  "abi": [
    {
      "anonymous": false,
      "inputs": [
        {
          "indexed": true,
          "internalType": "address",
          "name": "_caller",
          "type": "address"
        },
        {
          "components": [
            {
              "internalType": "address",
              "name": "ownerAddress",
              "type": "address"
            },
            {
              "internalType": "uint256",
              "name": "Id",
              "type": "uint256"
            },
            {
              "internalType": "string",
              "name": "pHash",
              "type": "string"
            },
            {
              "internalType": "string",
              "name": "IPFSAddress",
              "type": "string"
            },
            {
              "internalType": "string",
              "name": "title",
              "type": "string"
            },
            {
              "internalType": "string",
              "name": "ownerName",
              "type": "string"
            },
            {
              "internalType": "string",
              "name": "ownerEmail",
              "type": "string"
            },
            {
              "internalType": "string",
              "name": "desc",
              "type": "string"
            },
            {
              "internalType": "string",
              "name": "fieldOfUse",
              "type": "string"
            },
            {
              "internalType": "uint256",
              "name": "price",
              "type": "uint256"
            },
            {
              "internalType": "uint256",
              "name": "publishDate",
              "type": "uint256"
            },
            {
              "internalType": "enum CopyrightManagement.ContentType",
              "name": "contentType",
              "type": "uint8"
            }
          ],
          "indexed": false,
          "internalType": "struct CopyrightManagement.Content",
          "name": "_content",
          "type": "tuple"
        },
        {
          "indexed": false,
          "internalType": "uint256",
          "name": "timestamp",
          "type": "uint256"
        }
      ],
      "name": "addContentEvent",
      "type": "event"
    },
    {
      "anonymous": false,
      "inputs": [
        {
          "components": [
            {
              "internalType": "uint256",
              "name": "id",
              "type": "uint256"
            },
            {
              "internalType": "address",
              "name": "licensee",
              "type": "address"
            },
            {
              "internalType": "address",
              "name": "licenser",
              "type": "address"
            },
            {
              "internalType": "uint256",
              "name": "contentId",
              "type": "uint256"
            },
            {
              "internalType": "string",
              "name": "purposeOfUse",
              "type": "string"
            },
            {
              "internalType": "string",
              "name": "fieldOfUse",
              "type": "string"
            },
            {
              "internalType": "uint256",
              "name": "price",
              "type": "uint256"
            },
            {
              "internalType": "uint256",
              "name": "timestamp",
              "type": "uint256"
            }
          ],
          "indexed": false,
          "internalType": "struct CopyrightManagement.Agreement",
          "name": "_agreement",
          "type": "tuple"
        }
      ],
      "name": "licensingEvent",
      "type": "event"
    },
    {
      "anonymous": false,
      "inputs": [
        {
          "components": [
            {
              "internalType": "uint256",
              "name": "id",
              "type": "uint256"
            },
            {
              "internalType": "address",
              "name": "licensee",
              "type": "address"
            },
            {
              "internalType": "uint256",
              "name": "contentId",
              "type": "uint256"
            },
            {
              "internalType": "string",
              "name": "purposeOfUse",
              "type": "string"
            },
            {
              "internalType": "string",
              "name": "fieldOfUse",
              "type": "string"
            },
            {
              "internalType": "uint256",
              "name": "price",
              "type": "uint256"
            },
            {
              "internalType": "enum CopyrightManagement.RequestType",
              "name": "requestType",
              "type": "uint8"
            },
            {
              "internalType": "string",
              "name": "rejectReason",
              "type": "string"
            },
            {
              "internalType": "uint256",
              "name": "timestamp",
              "type": "uint256"
            }
          ],
          "indexed": false,
          "internalType": "struct CopyrightManagement.Request",
          "name": "_request",
          "type": "tuple"
        }
      ],
      "name": "requestEvent",
      "type": "event"
    },
    {
      "anonymous": false,
      "inputs": [
        {
          "indexed": false,
          "internalType": "address",
          "name": "_caller",
          "type": "address"
        },
        {
          "indexed": false,
          "internalType": "address",
          "name": "_receiver",
          "type": "address"
        },
        {
          "indexed": false,
          "internalType": "uint256",
          "name": "_amount",
          "type": "uint256"
        },
        {
          "indexed": false,
          "internalType": "uint256",
          "name": "_timestamp",
          "type": "uint256"
        }
      ],
      "name": "transferEvent",
      "type": "event"
    },
    {
      "anonymous": false,
      "inputs": [
        {
          "indexed": true,
          "internalType": "address",
          "name": "_caller",
          "type": "address"
        },
        {
          "indexed": true,
          "internalType": "uint256",
          "name": "_contentId",
          "type": "uint256"
        },
        {
          "indexed": false,
          "internalType": "uint256",
          "name": "_lastPrice",
          "type": "uint256"
        },
        {
          "indexed": false,
          "internalType": "uint256",
          "name": "_currentPrice",
          "type": "uint256"
        },
        {
          "indexed": false,
          "internalType": "string",
          "name": "_lastFieldOfUse",
          "type": "string"
        },
        {
          "indexed": false,
          "internalType": "string",
          "name": "_currentFieldOfUse",
          "type": "string"
        },
        {
          "indexed": false,
          "internalType": "uint256",
          "name": "timestamp",
          "type": "uint256"
        }
      ],
      "name": "updateContentEvent",
      "type": "event"
    },
    {
      "anonymous": false,
      "inputs": [
        {
          "indexed": true,
          "internalType": "address",
          "name": "_caller",
          "type": "address"
        },
        {
          "components": [
            {
              "internalType": "uint256",
              "name": "id",
              "type": "uint256"
            },
            {
              "internalType": "address",
              "name": "licensee",
              "type": "address"
            },
            {
              "internalType": "uint256",
              "name": "contentId",
              "type": "uint256"
            },
            {
              "internalType": "string",
              "name": "purposeOfUse",
              "type": "string"
            },
            {
              "internalType": "string",
              "name": "fieldOfUse",
              "type": "string"
            },
            {
              "internalType": "uint256",
              "name": "price",
              "type": "uint256"
            },
            {
              "internalType": "enum CopyrightManagement.RequestType",
              "name": "requestType",
              "type": "uint8"
            },
            {
              "internalType": "string",
              "name": "rejectReason",
              "type": "string"
            },
            {
              "internalType": "uint256",
              "name": "timestamp",
              "type": "uint256"
            }
          ],
          "indexed": false,
          "internalType": "struct CopyrightManagement.Request",
          "name": "_request",
          "type": "tuple"
        },
        {
          "indexed": false,
          "internalType": "uint256",
          "name": "timestamp",
          "type": "uint256"
        }
      ],
      "name": "updateRequestEvent",
      "type": "event"
    },
    {
      "inputs": [],
      "name": "agreementCount",
      "outputs": [
        {
          "internalType": "uint256",
          "name": "",
          "type": "uint256"
        }
      ],
      "stateMutability": "view",
      "type": "function",
      "constant": true
    },
    {
      "inputs": [
        {
          "internalType": "uint256",
          "name": "",
          "type": "uint256"
        }
      ],
      "name": "agreements",
      "outputs": [
        {
          "internalType": "uint256",
          "name": "id",
          "type": "uint256"
        },
        {
          "internalType": "address",
          "name": "licensee",
          "type": "address"
        },
        {
          "internalType": "address",
          "name": "licenser",
          "type": "address"
        },
        {
          "internalType": "uint256",
          "name": "contentId",
          "type": "uint256"
        },
        {
          "internalType": "string",
          "name": "purposeOfUse",
          "type": "string"
        },
        {
          "internalType": "string",
          "name": "fieldOfUse",
          "type": "string"
        },
        {
          "internalType": "uint256",
          "name": "price",
          "type": "uint256"
        },
        {
          "internalType": "uint256",
          "name": "timestamp",
          "type": "uint256"
        }
      ],
      "stateMutability": "view",
      "type": "function",
      "constant": true
    },
    {
      "inputs": [
        {
          "internalType": "address",
          "name": "",
          "type": "address"
        }
      ],
      "name": "balances",
      "outputs": [
        {
          "internalType": "uint256",
          "name": "",
          "type": "uint256"
        }
      ],
      "stateMutability": "view",
      "type": "function",
      "constant": true
    },
    {
      "inputs": [],
      "name": "contentCount",
      "outputs": [
        {
          "internalType": "uint256",
          "name": "",
          "type": "uint256"
        }
      ],
      "stateMutability": "view",
      "type": "function",
      "constant": true
    },
    {
      "inputs": [
        {
          "internalType": "uint256",
          "name": "",
          "type": "uint256"
        }
      ],
      "name": "contents",
      "outputs": [
        {
          "internalType": "address",
          "name": "ownerAddress",
          "type": "address"
        },
        {
          "internalType": "uint256",
          "name": "Id",
          "type": "uint256"
        },
        {
          "internalType": "string",
          "name": "pHash",
          "type": "string"
        },
        {
          "internalType": "string",
          "name": "IPFSAddress",
          "type": "string"
        },
        {
          "internalType": "string",
          "name": "title",
          "type": "string"
        },
        {
          "internalType": "string",
          "name": "ownerName",
          "type": "string"
        },
        {
          "internalType": "string",
          "name": "ownerEmail",
          "type": "string"
        },
        {
          "internalType": "string",
          "name": "desc",
          "type": "string"
        },
        {
          "internalType": "string",
          "name": "fieldOfUse",
          "type": "string"
        },
        {
          "internalType": "uint256",
          "name": "price",
          "type": "uint256"
        },
        {
          "internalType": "uint256",
          "name": "publishDate",
          "type": "uint256"
        },
        {
          "internalType": "enum CopyrightManagement.ContentType",
          "name": "contentType",
          "type": "uint8"
        }
      ],
      "stateMutability": "view",
      "type": "function",
      "constant": true
    },
    {
      "inputs": [],
      "name": "requestCount",
      "outputs": [
        {
          "internalType": "uint256",
          "name": "",
          "type": "uint256"
        }
      ],
      "stateMutability": "view",
      "type": "function",
      "constant": true
    },
    {
      "inputs": [
        {
          "internalType": "uint256",
          "name": "",
          "type": "uint256"
        }
      ],
      "name": "requests",
      "outputs": [
        {
          "internalType": "uint256",
          "name": "id",
          "type": "uint256"
        },
        {
          "internalType": "address",
          "name": "licensee",
          "type": "address"
        },
        {
          "internalType": "uint256",
          "name": "contentId",
          "type": "uint256"
        },
        {
          "internalType": "string",
          "name": "purposeOfUse",
          "type": "string"
        },
        {
          "internalType": "string",
          "name": "fieldOfUse",
          "type": "string"
        },
        {
          "internalType": "uint256",
          "name": "price",
          "type": "uint256"
        },
        {
          "internalType": "enum CopyrightManagement.RequestType",
          "name": "requestType",
          "type": "uint8"
        },
        {
          "internalType": "string",
          "name": "rejectReason",
          "type": "string"
        },
        {
          "internalType": "uint256",
          "name": "timestamp",
          "type": "uint256"
        }
      ],
      "stateMutability": "view",
      "type": "function",
      "constant": true
    },
    {
      "inputs": [
        {
          "internalType": "string",
          "name": "_pHash",
          "type": "string"
        },
        {
          "internalType": "string",
          "name": "_IPFSAddress",
          "type": "string"
        },
        {
          "internalType": "string",
          "name": "_title",
          "type": "string"
        },
        {
          "internalType": "string",
          "name": "_ownerName",
          "type": "string"
        },
        {
          "internalType": "string",
          "name": "_ownerEmail",
          "type": "string"
        },
        {
          "internalType": "string",
          "name": "_desc",
          "type": "string"
        },
        {
          "internalType": "string",
          "name": "_fieldOfUse",
          "type": "string"
        },
        {
          "internalType": "uint256",
          "name": "_price",
          "type": "uint256"
        },
        {
          "internalType": "enum CopyrightManagement.ContentType",
          "name": "_contentType",
          "type": "uint8"
        }
      ],
      "name": "addContent",
      "outputs": [],
      "stateMutability": "nonpayable",
      "type": "function"
    },
    {
      "inputs": [
        {
          "internalType": "uint256",
          "name": "_id",
          "type": "uint256"
        },
        {
          "internalType": "uint256",
          "name": "_price",
          "type": "uint256"
        },
        {
          "internalType": "string",
          "name": "_fieldOfUse",
          "type": "string"
        }
      ],
      "name": "updateContentData",
      "outputs": [],
      "stateMutability": "nonpayable",
      "type": "function"
    },
    {
      "inputs": [
        {
          "internalType": "uint256",
          "name": "_contentId",
          "type": "uint256"
        },
        {
          "internalType": "string",
          "name": "_purposeOfUse",
          "type": "string"
        },
        {
          "internalType": "string",
          "name": "_fieldOfUse",
          "type": "string"
        }
      ],
      "name": "requestAgreement",
      "outputs": [],
      "stateMutability": "payable",
      "type": "function",
      "payable": true
    },
    {
      "inputs": [
        {
          "internalType": "uint256",
          "name": "_requestId",
          "type": "uint256"
        },
        {
          "internalType": "string",
          "name": "_rejectReason",
          "type": "string"
        }
      ],
      "name": "rejectAgreement",
      "outputs": [],
      "stateMutability": "payable",
      "type": "function",
      "payable": true
    },
    {
      "inputs": [
        {
          "internalType": "uint256",
          "name": "_requestId",
          "type": "uint256"
        }
      ],
      "name": "approveAgreement",
      "outputs": [],
      "stateMutability": "payable",
      "type": "function",
      "payable": true
    }
  ],
  "bytecode": "0x608060405234801561001057600080fd5b5061529a806100206000396000f3fe6080604052600436106100a75760003560e01c8063b132d78b11610064578063b132d78b146101c7578063b5ecf912146101e3578063bb7bb2781461022b578063bd14de9614610256578063c2fc24ac1461029a578063cc459696146102b6576100a7565b806321dad4ca146100ac57806327e235e3146100d55780635badbe4c1461011257806381d12c581461013d578063855d40d3146101825780639992f004146101ab575b600080fd5b3480156100b857600080fd5b506100d360048036038101906100ce9190613a80565b6102e1565b005b3480156100e157600080fd5b506100fc60048036038101906100f79190613b4d565b610907565b6040516101099190613b89565b60405180910390f35b34801561011e57600080fd5b5061012761091f565b6040516101349190613b89565b60405180910390f35b34801561014957600080fd5b50610164600480360381019061015f9190613ba4565b610925565b60405161017999989796959493929190613cdf565b60405180910390f35b34801561018e57600080fd5b506101a960048036038101906101a49190613da6565b610b38565b005b6101c560048036038101906101c09190613f34565b610d76565b005b6101e160048036038101906101dc9190613ba4565b6119f9565b005b3480156101ef57600080fd5b5061020a60048036038101906102059190613ba4565b612751565b6040516102229c9b9a99989796959493929190614007565b60405180910390f35b34801561023757600080fd5b50610240612b96565b60405161024d9190613b89565b60405180910390f35b34801561026257600080fd5b5061027d60048036038101906102789190613ba4565b612b9c565b6040516102919897969594939291906140f2565b60405180910390f35b6102b460048036038101906102af919061417e565b612d34565b005b3480156102c257600080fd5b506102cb6138ea565b6040516102d89190613b89565b60405180910390f35b6003600084815260200190815260200160002060000160009054906101000a900473ffffffffffffffffffffffffffffffffffffffff1673ffffffffffffffffffffffffffffffffffffffff163373ffffffffffffffffffffffffffffffffffffffff1614610385576040517f08c379a000000000000000000000000000000000000000000000000000000000815260040161037c9061424c565b60405180910390fd5b600060036000858152602001908152602001600020604051806101800160405290816000820160009054906101000a900473ffffffffffffffffffffffffffffffffffffffff1673ffffffffffffffffffffffffffffffffffffffff1673ffffffffffffffffffffffffffffffffffffffff168152602001600182015481526020016002820180546104169061429b565b80601f01602080910402602001604051908101604052809291908181526020018280546104429061429b565b801561048f5780601f106104645761010080835404028352916020019161048f565b820191906000526020600020905b81548152906001019060200180831161047257829003601f168201915b505050505081526020016003820180546104a89061429b565b80601f01602080910402602001604051908101604052809291908181526020018280546104d49061429b565b80156105215780601f106104f657610100808354040283529160200191610521565b820191906000526020600020905b81548152906001019060200180831161050457829003601f168201915b5050505050815260200160048201805461053a9061429b565b80601f01602080910402602001604051908101604052809291908181526020018280546105669061429b565b80156105b35780601f10610588576101008083540402835291602001916105b3565b820191906000526020600020905b81548152906001019060200180831161059657829003601f168201915b505050505081526020016005820180546105cc9061429b565b80601f01602080910402602001604051908101604052809291908181526020018280546105f89061429b565b80156106455780601f1061061a57610100808354040283529160200191610645565b820191906000526020600020905b81548152906001019060200180831161062857829003601f168201915b5050505050815260200160068201805461065e9061429b565b80601f016020809104026020016040519081016040528092919081815260200182805461068a9061429b565b80156106d75780601f106106ac576101008083540402835291602001916106d7565b820191906000526020600020905b8154815290600101906020018083116106ba57829003601f168201915b505050505081526020016007820180546106f09061429b565b80601f016020809104026020016040519081016040528092919081815260200182805461071c9061429b565b80156107695780601f1061073e57610100808354040283529160200191610769565b820191906000526020600020905b81548152906001019060200180831161074c57829003601f168201915b505050505081526020016008820180546107829061429b565b80601f01602080910402602001604051908101604052809291908181526020018280546107ae9061429b565b80156107fb5780601f106107d0576101008083540402835291602001916107fb565b820191906000526020600020905b8154815290600101906020018083116107de57829003601f168201915b5050505050815260200160098201548152602001600a8201548152602001600b820160009054906101000a900460ff16600281111561083d5761083c613c68565b5b600281111561084f5761084e613c68565b5b8152505090506000816101200151905083600360008781526020019081526020016000206009018190555060008261010001519050836003600088815260200190815260200160002060080190816108a79190614478565b50853373ffffffffffffffffffffffffffffffffffffffff167f35a9de6001b62afea3734b8acaa129015e5136b3053c72a11584f1b1a1997ca584888589426040516108f795949392919061454a565b60405180910390a3505050505050565b60066020528060005260406000206000915090505481565b60025481565b60056020528060005260406000206000915090508060000154908060010160009054906101000a900473ffffffffffffffffffffffffffffffffffffffff169080600201549080600301805461097a9061429b565b80601f01602080910402602001604051908101604052809291908181526020018280546109a69061429b565b80156109f35780601f106109c8576101008083540402835291602001916109f3565b820191906000526020600020905b8154815290600101906020018083116109d657829003601f168201915b505050505090806004018054610a089061429b565b80601f0160208091040260200160405190810160405280929190818152602001828054610a349061429b565b8015610a815780601f10610a5657610100808354040283529160200191610a81565b820191906000526020600020905b815481529060010190602001808311610a6457829003601f168201915b5050505050908060050154908060060160009054906101000a900460ff1690806007018054610aaf9061429b565b80601f0160208091040260200160405190810160405280929190818152602001828054610adb9061429b565b8015610b285780601f10610afd57610100808354040283529160200191610b28565b820191906000526020600020905b815481529060010190602001808311610b0b57829003601f168201915b5050505050908060080154905089565b60006040518061018001604052803373ffffffffffffffffffffffffffffffffffffffff16815260200160005481526020018b81526020018a8152602001898152602001888152602001878152602001868152602001858152602001848152602001428152602001836002811115610bb357610bb2613c68565b5b815250905080600360008054815260200190815260200160002060008201518160000160006101000a81548173ffffffffffffffffffffffffffffffffffffffff021916908373ffffffffffffffffffffffffffffffffffffffff160217905550602082015181600101556040820151816002019081610c339190614478565b506060820151816003019081610c499190614478565b506080820151816004019081610c5f9190614478565b5060a0820151816005019081610c759190614478565b5060c0820151816006019081610c8b9190614478565b5060e0820151816007019081610ca19190614478565b50610100820151816008019081610cb89190614478565b50610120820151816009015561014082015181600a015561016082015181600b0160006101000a81548160ff02191690836002811115610cfb57610cfa613c68565b5b0217905550905050600080815480929190610d15906145da565b91905055503373ffffffffffffffffffffffffffffffffffffffff167f0a7fcb2f3b6d410262fb53cdd5a1423bec3dc73a948675ba2bc036f04e8b45ef8242604051610d629291906147c7565b60405180910390a250505050505050505050565b600060036000858152602001908152602001600020604051806101800160405290816000820160009054906101000a900473ffffffffffffffffffffffffffffffffffffffff1673ffffffffffffffffffffffffffffffffffffffff1673ffffffffffffffffffffffffffffffffffffffff16815260200160018201548152602001600282018054610e079061429b565b80601f0160208091040260200160405190810160405280929190818152602001828054610e339061429b565b8015610e805780601f10610e5557610100808354040283529160200191610e80565b820191906000526020600020905b815481529060010190602001808311610e6357829003601f168201915b50505050508152602001600382018054610e999061429b565b80601f0160208091040260200160405190810160405280929190818152602001828054610ec59061429b565b8015610f125780601f10610ee757610100808354040283529160200191610f12565b820191906000526020600020905b815481529060010190602001808311610ef557829003601f168201915b50505050508152602001600482018054610f2b9061429b565b80601f0160208091040260200160405190810160405280929190818152602001828054610f579061429b565b8015610fa45780601f10610f7957610100808354040283529160200191610fa4565b820191906000526020600020905b815481529060010190602001808311610f8757829003601f168201915b50505050508152602001600582018054610fbd9061429b565b80601f0160208091040260200160405190810160405280929190818152602001828054610fe99061429b565b80156110365780601f1061100b57610100808354040283529160200191611036565b820191906000526020600020905b81548152906001019060200180831161101957829003601f168201915b5050505050815260200160068201805461104f9061429b565b80601f016020809104026020016040519081016040528092919081815260200182805461107b9061429b565b80156110c85780601f1061109d576101008083540402835291602001916110c8565b820191906000526020600020905b8154815290600101906020018083116110ab57829003601f168201915b505050505081526020016007820180546110e19061429b565b80601f016020809104026020016040519081016040528092919081815260200182805461110d9061429b565b801561115a5780601f1061112f5761010080835404028352916020019161115a565b820191906000526020600020905b81548152906001019060200180831161113d57829003601f168201915b505050505081526020016008820180546111739061429b565b80601f016020809104026020016040519081016040528092919081815260200182805461119f9061429b565b80156111ec5780601f106111c1576101008083540402835291602001916111ec565b820191906000526020600020905b8154815290600101906020018083116111cf57829003601f168201915b5050505050815260200160098201548152602001600a8201548152602001600b820160009054906101000a900460ff16600281111561122e5761122d613c68565b5b60028111156112405761123f613c68565b5b815250509050806000015173ffffffffffffffffffffffffffffffffffffffff163373ffffffffffffffffffffffffffffffffffffffff16036112b8576040517f08c379a00000000000000000000000000000000000000000000000000000000081526004016112af90614869565b60405180910390fd5b806101200151341015611300576040517f08c379a00000000000000000000000000000000000000000000000000000000081526004016112f7906148fb565b60405180910390fd5b600081608001515103611348576040517f08c379a000000000000000000000000000000000000000000000000000000000815260040161133f90614967565b60405180910390fd5b60005b6002548110156117185760006005600083815260200190815260200160002060405180610120016040529081600082015481526020016001820160009054906101000a900473ffffffffffffffffffffffffffffffffffffffff1673ffffffffffffffffffffffffffffffffffffffff1673ffffffffffffffffffffffffffffffffffffffff168152602001600282015481526020016003820180546113f09061429b565b80601f016020809104026020016040519081016040528092919081815260200182805461141c9061429b565b80156114695780601f1061143e57610100808354040283529160200191611469565b820191906000526020600020905b81548152906001019060200180831161144c57829003601f168201915b505050505081526020016004820180546114829061429b565b80601f01602080910402602001604051908101604052809291908181526020018280546114ae9061429b565b80156114fb5780601f106114d0576101008083540402835291602001916114fb565b820191906000526020600020905b8154815290600101906020018083116114de57829003601f168201915b50505050508152602001600582015481526020016006820160009054906101000a900460ff16600281111561153357611532613c68565b5b600281111561154557611544613c68565b5b81526020016007820180546115599061429b565b80601f01602080910402602001604051908101604052809291908181526020018280546115859061429b565b80156115d25780601f106115a7576101008083540402835291602001916115d2565b820191906000526020600020905b8154815290600101906020018083116115b557829003601f168201915b50505050508152602001600882015481525050905085816040015114801561162957503373ffffffffffffffffffffffffffffffffffffffff16816020015173ffffffffffffffffffffffffffffffffffffffff16145b15611704576000600281111561164257611641613c68565b5b8160c00151600281111561165957611658613c68565b5b03611699576040517f08c379a0000000000000000000000000000000000000000000000000000000008152600401611690906149d3565b60405180910390fd5b6002808111156116ac576116ab613c68565b5b8160c0015160028111156116c3576116c2613c68565b5b03611703576040517f08c379a00000000000000000000000000000000000000000000000000000000081526004016116fa90614a65565b60405180910390fd5b5b508080611710906145da565b91505061134b565b5080610120015160066000836000015173ffffffffffffffffffffffffffffffffffffffff1673ffffffffffffffffffffffffffffffffffffffff16815260200190815260200160002060008282546117719190614a85565b925050819055508061012001513411156117e3576000816101200151346117989190614adb565b90503373ffffffffffffffffffffffffffffffffffffffff166108fc829081150290604051600060405180830381858888f193505050501580156117e0573d6000803e3d6000fd5b50505b600060405180610120016040528060025481526020013373ffffffffffffffffffffffffffffffffffffffff16815260200186815260200185815260200184815260200183610120015181526020016000600281111561184657611845613c68565b5b8152602001604051806020016040528060008152508152602001428152509050806005600060025481526020019081526020016000206000820151816000015560208201518160010160006101000a81548173ffffffffffffffffffffffffffffffffffffffff021916908373ffffffffffffffffffffffffffffffffffffffff1602179055506040820151816002015560608201518160030190816118ec9190614478565b5060808201518160040190816119029190614478565b5060a0820151816005015560c08201518160060160006101000a81548160ff0219169083600281111561193857611937613c68565b5b021790555060e08201518160070190816119529190614478565b50610100820151816008015590505060026000815480929190611974906145da565b91905055507f481934050ca25b9b530e264c858d0c76bd0e5110eeebfff8a928ab2db72f8a8b816040516119a89190614bf1565b60405180910390a17f2e48574e89108f272024eec65c8d0780b12cdcaf8768e45745e07a3c3a05fe133330846101200151426040516119ea9493929190614c13565b60405180910390a15050505050565b60006005600083815260200190815260200160002060405180610120016040529081600082015481526020016001820160009054906101000a900473ffffffffffffffffffffffffffffffffffffffff1673ffffffffffffffffffffffffffffffffffffffff1673ffffffffffffffffffffffffffffffffffffffff16815260200160028201548152602001600382018054611a949061429b565b80601f0160208091040260200160405190810160405280929190818152602001828054611ac09061429b565b8015611b0d5780601f10611ae257610100808354040283529160200191611b0d565b820191906000526020600020905b815481529060010190602001808311611af057829003601f168201915b50505050508152602001600482018054611b269061429b565b80601f0160208091040260200160405190810160405280929190818152602001828054611b529061429b565b8015611b9f5780601f10611b7457610100808354040283529160200191611b9f565b820191906000526020600020905b815481529060010190602001808311611b8257829003601f168201915b50505050508152602001600582015481526020016006820160009054906101000a900460ff166002811115611bd757611bd6613c68565b5b6002811115611be957611be8613c68565b5b8152602001600782018054611bfd9061429b565b80601f0160208091040260200160405190810160405280929190818152602001828054611c299061429b565b8015611c765780601f10611c4b57610100808354040283529160200191611c76565b820191906000526020600020905b815481529060010190602001808311611c5957829003601f168201915b50505050508152602001600882015481525050905060006003600083604001518152602001908152602001600020604051806101800160405290816000820160009054906101000a900473ffffffffffffffffffffffffffffffffffffffff1673ffffffffffffffffffffffffffffffffffffffff1673ffffffffffffffffffffffffffffffffffffffff16815260200160018201548152602001600282018054611d209061429b565b80601f0160208091040260200160405190810160405280929190818152602001828054611d4c9061429b565b8015611d995780601f10611d6e57610100808354040283529160200191611d99565b820191906000526020600020905b815481529060010190602001808311611d7c57829003601f168201915b50505050508152602001600382018054611db29061429b565b80601f0160208091040260200160405190810160405280929190818152602001828054611dde9061429b565b8015611e2b5780601f10611e0057610100808354040283529160200191611e2b565b820191906000526020600020905b815481529060010190602001808311611e0e57829003601f168201915b50505050508152602001600482018054611e449061429b565b80601f0160208091040260200160405190810160405280929190818152602001828054611e709061429b565b8015611ebd5780601f10611e9257610100808354040283529160200191611ebd565b820191906000526020600020905b815481529060010190602001808311611ea057829003601f168201915b50505050508152602001600582018054611ed69061429b565b80601f0160208091040260200160405190810160405280929190818152602001828054611f029061429b565b8015611f4f5780601f10611f2457610100808354040283529160200191611f4f565b820191906000526020600020905b815481529060010190602001808311611f3257829003601f168201915b50505050508152602001600682018054611f689061429b565b80601f0160208091040260200160405190810160405280929190818152602001828054611f949061429b565b8015611fe15780601f10611fb657610100808354040283529160200191611fe1565b820191906000526020600020905b815481529060010190602001808311611fc457829003601f168201915b50505050508152602001600782018054611ffa9061429b565b80601f01602080910402602001604051908101604052809291908181526020018280546120269061429b565b80156120735780601f1061204857610100808354040283529160200191612073565b820191906000526020600020905b81548152906001019060200180831161205657829003601f168201915b5050505050815260200160088201805461208c9061429b565b80601f01602080910402602001604051908101604052809291908181526020018280546120b89061429b565b80156121055780601f106120da57610100808354040283529160200191612105565b820191906000526020600020905b8154815290600101906020018083116120e857829003601f168201915b5050505050815260200160098201548152602001600a8201548152602001600b820160009054906101000a900460ff16600281111561214757612146613c68565b5b600281111561215957612158613c68565b5b8152505090506000816080015151036121a7576040517f08c379a000000000000000000000000000000000000000000000000000000000815260040161219e90614967565b60405180910390fd5b3373ffffffffffffffffffffffffffffffffffffffff16816000015173ffffffffffffffffffffffffffffffffffffffff1614612219576040517f08c379a00000000000000000000000000000000000000000000000000000000081526004016122109061424c565b60405180910390fd5b60028081111561222c5761222b613c68565b5b8260c00151600281111561224357612242613c68565b5b03612283576040517f08c379a000000000000000000000000000000000000000000000000000000000815260040161227a90614cca565b60405180910390fd5b6001600281111561229757612296613c68565b5b8260c0015160028111156122ae576122ad613c68565b5b036122ee576040517f08c379a00000000000000000000000000000000000000000000000000000000081526004016122e590614d5c565b60405180910390fd5b6000600660003373ffffffffffffffffffffffffffffffffffffffff1673ffffffffffffffffffffffffffffffffffffffff1681526020019081526020016000205411612370576040517f08c379a000000000000000000000000000000000000000000000000000000000815260040161236790614dee565b60405180910390fd5b8160a00151600660003373ffffffffffffffffffffffffffffffffffffffff1673ffffffffffffffffffffffffffffffffffffffff1681526020019081526020016000205410156123f6576040517f08c379a00000000000000000000000000000000000000000000000000000000081526004016123ed90614e80565b60405180910390fd5b60026005600085815260200190815260200160002060060160006101000a81548160ff021916908360028111156124305761242f613c68565b5b021790555060006040518061010001604052806001548152602001846020015173ffffffffffffffffffffffffffffffffffffffff1681526020013373ffffffffffffffffffffffffffffffffffffffff1681526020018360200151815260200184606001518152602001846080015181526020018460a001518152602001428152509050806004600060015481526020019081526020016000206000820151816000015560208201518160010160006101000a81548173ffffffffffffffffffffffffffffffffffffffff021916908373ffffffffffffffffffffffffffffffffffffffff16021790555060408201518160020160006101000a81548173ffffffffffffffffffffffffffffffffffffffff021916908373ffffffffffffffffffffffffffffffffffffffff1602179055506060820151816003015560808201518160040190816125829190614478565b5060a08201518160050190816125989190614478565b5060c0820151816006015560e08201518160070155905050600160008154809291906125c3906145da565b91905055508260a00151600660003373ffffffffffffffffffffffffffffffffffffffff1673ffffffffffffffffffffffffffffffffffffffff168152602001908152602001600020600082825461261b9190614adb565b925050819055503373ffffffffffffffffffffffffffffffffffffffff166108fc8460a001519081150290604051600060405180830381858888f1935050505015801561266c573d6000803e3d6000fd5b503373ffffffffffffffffffffffffffffffffffffffff167fc055548580fd244033e69bfd8ad917152bee6f74fcf66d788135e42893e7f52b60056000878152602001908152602001600020426040516126c79291906150c9565b60405180910390a27f2e48574e89108f272024eec65c8d0780b12cdcaf8768e45745e07a3c3a05fe138360200151338560a001514260405161270c9493929190614c13565b60405180910390a17f87fc50195f588964fff2fc8f23b73506b4b7169ad0e9d1d9ad19338bfe01372a8160405161274391906151b0565b60405180910390a150505050565b60036020528060005260406000206000915090508060000160009054906101000a900473ffffffffffffffffffffffffffffffffffffffff16908060010154908060020180546127a09061429b565b80601f01602080910402602001604051908101604052809291908181526020018280546127cc9061429b565b80156128195780601f106127ee57610100808354040283529160200191612819565b820191906000526020600020905b8154815290600101906020018083116127fc57829003601f168201915b50505050509080600301805461282e9061429b565b80601f016020809104026020016040519081016040528092919081815260200182805461285a9061429b565b80156128a75780601f1061287c576101008083540402835291602001916128a7565b820191906000526020600020905b81548152906001019060200180831161288a57829003601f168201915b5050505050908060040180546128bc9061429b565b80601f01602080910402602001604051908101604052809291908181526020018280546128e89061429b565b80156129355780601f1061290a57610100808354040283529160200191612935565b820191906000526020600020905b81548152906001019060200180831161291857829003601f168201915b50505050509080600501805461294a9061429b565b80601f01602080910402602001604051908101604052809291908181526020018280546129769061429b565b80156129c35780601f10612998576101008083540402835291602001916129c3565b820191906000526020600020905b8154815290600101906020018083116129a657829003601f168201915b5050505050908060060180546129d89061429b565b80601f0160208091040260200160405190810160405280929190818152602001828054612a049061429b565b8015612a515780601f10612a2657610100808354040283529160200191612a51565b820191906000526020600020905b815481529060010190602001808311612a3457829003601f168201915b505050505090806007018054612a669061429b565b80601f0160208091040260200160405190810160405280929190818152602001828054612a929061429b565b8015612adf5780601f10612ab457610100808354040283529160200191612adf565b820191906000526020600020905b815481529060010190602001808311612ac257829003601f168201915b505050505090806008018054612af49061429b565b80601f0160208091040260200160405190810160405280929190818152602001828054612b209061429b565b8015612b6d5780601f10612b4257610100808354040283529160200191612b6d565b820191906000526020600020905b815481529060010190602001808311612b5057829003601f168201915b50505050509080600901549080600a01549080600b0160009054906101000a900460ff1690508c565b60015481565b60046020528060005260406000206000915090508060000154908060010160009054906101000a900473ffffffffffffffffffffffffffffffffffffffff16908060020160009054906101000a900473ffffffffffffffffffffffffffffffffffffffff1690806003015490806004018054612c179061429b565b80601f0160208091040260200160405190810160405280929190818152602001828054612c439061429b565b8015612c905780601f10612c6557610100808354040283529160200191612c90565b820191906000526020600020905b815481529060010190602001808311612c7357829003601f168201915b505050505090806005018054612ca59061429b565b80601f0160208091040260200160405190810160405280929190818152602001828054612cd19061429b565b8015612d1e5780601f10612cf357610100808354040283529160200191612d1e565b820191906000526020600020905b815481529060010190602001808311612d0157829003601f168201915b5050505050908060060154908060070154905088565b60006005600084815260200190815260200160002060405180610120016040529081600082015481526020016001820160009054906101000a900473ffffffffffffffffffffffffffffffffffffffff1673ffffffffffffffffffffffffffffffffffffffff1673ffffffffffffffffffffffffffffffffffffffff16815260200160028201548152602001600382018054612dcf9061429b565b80601f0160208091040260200160405190810160405280929190818152602001828054612dfb9061429b565b8015612e485780601f10612e1d57610100808354040283529160200191612e48565b820191906000526020600020905b815481529060010190602001808311612e2b57829003601f168201915b50505050508152602001600482018054612e619061429b565b80601f0160208091040260200160405190810160405280929190818152602001828054612e8d9061429b565b8015612eda5780601f10612eaf57610100808354040283529160200191612eda565b820191906000526020600020905b815481529060010190602001808311612ebd57829003601f168201915b50505050508152602001600582015481526020016006820160009054906101000a900460ff166002811115612f1257612f11613c68565b5b6002811115612f2457612f23613c68565b5b8152602001600782018054612f389061429b565b80601f0160208091040260200160405190810160405280929190818152602001828054612f649061429b565b8015612fb15780601f10612f8657610100808354040283529160200191612fb1565b820191906000526020600020905b815481529060010190602001808311612f9457829003601f168201915b50505050508152602001600882015481525050905060006003600083604001518152602001908152602001600020604051806101800160405290816000820160009054906101000a900473ffffffffffffffffffffffffffffffffffffffff1673ffffffffffffffffffffffffffffffffffffffff1673ffffffffffffffffffffffffffffffffffffffff1681526020016001820154815260200160028201805461305b9061429b565b80601f01602080910402602001604051908101604052809291908181526020018280546130879061429b565b80156130d45780601f106130a9576101008083540402835291602001916130d4565b820191906000526020600020905b8154815290600101906020018083116130b757829003601f168201915b505050505081526020016003820180546130ed9061429b565b80601f01602080910402602001604051908101604052809291908181526020018280546131199061429b565b80156131665780601f1061313b57610100808354040283529160200191613166565b820191906000526020600020905b81548152906001019060200180831161314957829003601f168201915b5050505050815260200160048201805461317f9061429b565b80601f01602080910402602001604051908101604052809291908181526020018280546131ab9061429b565b80156131f85780601f106131cd576101008083540402835291602001916131f8565b820191906000526020600020905b8154815290600101906020018083116131db57829003601f168201915b505050505081526020016005820180546132119061429b565b80601f016020809104026020016040519081016040528092919081815260200182805461323d9061429b565b801561328a5780601f1061325f5761010080835404028352916020019161328a565b820191906000526020600020905b81548152906001019060200180831161326d57829003601f168201915b505050505081526020016006820180546132a39061429b565b80601f01602080910402602001604051908101604052809291908181526020018280546132cf9061429b565b801561331c5780601f106132f15761010080835404028352916020019161331c565b820191906000526020600020905b8154815290600101906020018083116132ff57829003601f168201915b505050505081526020016007820180546133359061429b565b80601f01602080910402602001604051908101604052809291908181526020018280546133619061429b565b80156133ae5780601f10613383576101008083540402835291602001916133ae565b820191906000526020600020905b81548152906001019060200180831161339157829003601f168201915b505050505081526020016008820180546133c79061429b565b80601f01602080910402602001604051908101604052809291908181526020018280546133f39061429b565b80156134405780601f1061341557610100808354040283529160200191613440565b820191906000526020600020905b81548152906001019060200180831161342357829003601f168201915b5050505050815260200160098201548152602001600a8201548152602001600b820160009054906101000a900460ff16600281111561348257613481613c68565b5b600281111561349457613493613c68565b5b8152505090506000816080015151036134e2576040517f08c379a00000000000000000000000000000000000000000000000000000000081526004016134d990614967565b60405180910390fd5b3373ffffffffffffffffffffffffffffffffffffffff16816000015173ffffffffffffffffffffffffffffffffffffffff1614613554576040517f08c379a000000000000000000000000000000000000000000000000000000000815260040161354b9061424c565b60405180910390fd5b60028081111561356757613566613c68565b5b8260c00151600281111561357e5761357d613c68565b5b036135be576040517f08c379a00000000000000000000000000000000000000000000000000000000081526004016135b590614cca565b60405180910390fd5b600160028111156135d2576135d1613c68565b5b8260c0015160028111156135e9576135e8613c68565b5b03613629576040517f08c379a000000000000000000000000000000000000000000000000000000000815260040161362090615244565b60405180910390fd5b6000600660003373ffffffffffffffffffffffffffffffffffffffff1673ffffffffffffffffffffffffffffffffffffffff16815260200190815260200160002054116136ab576040517f08c379a00000000000000000000000000000000000000000000000000000000081526004016136a290614dee565b60405180910390fd5b8160a00151600660003373ffffffffffffffffffffffffffffffffffffffff1673ffffffffffffffffffffffffffffffffffffffff168152602001908152602001600020541015613731576040517f08c379a000000000000000000000000000000000000000000000000000000000815260040161372890614e80565b60405180910390fd5b60016005600086815260200190815260200160002060060160006101000a81548160ff0219169083600281111561376b5761376a613c68565b5b0217905550826005600086815260200190815260200160002060070190816137939190614478565b508160a00151600660003373ffffffffffffffffffffffffffffffffffffffff1673ffffffffffffffffffffffffffffffffffffffff16815260200190815260200160002060008282546137e79190614adb565b92505081905550816020015173ffffffffffffffffffffffffffffffffffffffff166108fc8360a001519081150290604051600060405180830381858888f1935050505015801561383c573d6000803e3d6000fd5b503373ffffffffffffffffffffffffffffffffffffffff167fc055548580fd244033e69bfd8ad917152bee6f74fcf66d788135e42893e7f52b60056000878152602001908152602001600020426040516138979291906150c9565b60405180910390a27f2e48574e89108f272024eec65c8d0780b12cdcaf8768e45745e07a3c3a05fe133383602001518460a00151426040516138dc9493929190614c13565b60405180910390a150505050565b60005481565b6000604051905090565b600080fd5b600080fd5b6000819050919050565b61391781613904565b811461392257600080fd5b50565b6000813590506139348161390e565b92915050565b600080fd5b600080fd5b6000601f19601f8301169050919050565b7f4e487b7100000000000000000000000000000000000000000000000000000000600052604160045260246000fd5b61398d82613944565b810181811067ffffffffffffffff821117156139ac576139ab613955565b5b80604052505050565b60006139bf6138f0565b90506139cb8282613984565b919050565b600067ffffffffffffffff8211156139eb576139ea613955565b5b6139f482613944565b9050602081019050919050565b82818337600083830152505050565b6000613a23613a1e846139d0565b6139b5565b905082815260208101848484011115613a3f57613a3e61393f565b5b613a4a848285613a01565b509392505050565b600082601f830112613a6757613a6661393a565b5b8135613a77848260208601613a10565b91505092915050565b600080600060608486031215613a9957613a986138fa565b5b6000613aa786828701613925565b9350506020613ab886828701613925565b925050604084013567ffffffffffffffff811115613ad957613ad86138ff565b5b613ae586828701613a52565b9150509250925092565b600073ffffffffffffffffffffffffffffffffffffffff82169050919050565b6000613b1a82613aef565b9050919050565b613b2a81613b0f565b8114613b3557600080fd5b50565b600081359050613b4781613b21565b92915050565b600060208284031215613b6357613b626138fa565b5b6000613b7184828501613b38565b91505092915050565b613b8381613904565b82525050565b6000602082019050613b9e6000830184613b7a565b92915050565b600060208284031215613bba57613bb96138fa565b5b6000613bc884828501613925565b91505092915050565b613bda81613b0f565b82525050565b600081519050919050565b600082825260208201905092915050565b60005b83811015613c1a578082015181840152602081019050613bff565b83811115613c29576000848401525b50505050565b6000613c3a82613be0565b613c448185613beb565b9350613c54818560208601613bfc565b613c5d81613944565b840191505092915050565b7f4e487b7100000000000000000000000000000000000000000000000000000000600052602160045260246000fd5b60038110613ca857613ca7613c68565b5b50565b6000819050613cb982613c97565b919050565b6000613cc982613cab565b9050919050565b613cd981613cbe565b82525050565b600061012082019050613cf5600083018c613b7a565b613d02602083018b613bd1565b613d0f604083018a613b7a565b8181036060830152613d218189613c2f565b90508181036080830152613d358188613c2f565b9050613d4460a0830187613b7a565b613d5160c0830186613cd0565b81810360e0830152613d638185613c2f565b9050613d73610100830184613b7a565b9a9950505050505050505050565b60038110613d8e57600080fd5b50565b600081359050613da081613d81565b92915050565b60008060008060008060008060006101208a8c031215613dc957613dc86138fa565b5b60008a013567ffffffffffffffff811115613de757613de66138ff565b5b613df38c828d01613a52565b99505060208a013567ffffffffffffffff811115613e1457613e136138ff565b5b613e208c828d01613a52565b98505060408a013567ffffffffffffffff811115613e4157613e406138ff565b5b613e4d8c828d01613a52565b97505060608a013567ffffffffffffffff811115613e6e57613e6d6138ff565b5b613e7a8c828d01613a52565b96505060808a013567ffffffffffffffff811115613e9b57613e9a6138ff565b5b613ea78c828d01613a52565b95505060a08a013567ffffffffffffffff811115613ec857613ec76138ff565b5b613ed48c828d01613a52565b94505060c08a013567ffffffffffffffff811115613ef557613ef46138ff565b5b613f018c828d01613a52565b93505060e0613f128c828d01613925565b925050610100613f248c828d01613d91565b9150509295985092959850929598565b600080600060608486031215613f4d57613f4c6138fa565b5b6000613f5b86828701613925565b935050602084013567ffffffffffffffff811115613f7c57613f7b6138ff565b5b613f8886828701613a52565b925050604084013567ffffffffffffffff811115613fa957613fa86138ff565b5b613fb586828701613a52565b9150509250925092565b60038110613fd057613fcf613c68565b5b50565b6000819050613fe182613fbf565b919050565b6000613ff182613fd3565b9050919050565b61400181613fe6565b82525050565b60006101808201905061401d600083018f613bd1565b61402a602083018e613b7a565b818103604083015261403c818d613c2f565b90508181036060830152614050818c613c2f565b90508181036080830152614064818b613c2f565b905081810360a0830152614078818a613c2f565b905081810360c083015261408c8189613c2f565b905081810360e08301526140a08188613c2f565b90508181036101008301526140b58187613c2f565b90506140c5610120830186613b7a565b6140d3610140830185613b7a565b6140e1610160830184613ff8565b9d9c50505050505050505050505050565b600061010082019050614108600083018b613b7a565b614115602083018a613bd1565b6141226040830189613bd1565b61412f6060830188613b7a565b81810360808301526141418187613c2f565b905081810360a08301526141558186613c2f565b905061416460c0830185613b7a565b61417160e0830184613b7a565b9998505050505050505050565b60008060408385031215614195576141946138fa565b5b60006141a385828601613925565b925050602083013567ffffffffffffffff8111156141c4576141c36138ff565b5b6141d085828601613a52565b9150509250929050565b7f596f7520617265206e6f7420746865206f776e6572206f662074686520636f6e60008201527f74656e7400000000000000000000000000000000000000000000000000000000602082015250565b6000614236602483613beb565b9150614241826141da565b604082019050919050565b6000602082019050818103600083015261426581614229565b9050919050565b7f4e487b7100000000000000000000000000000000000000000000000000000000600052602260045260246000fd5b600060028204905060018216806142b357607f821691505b6020821081036142c6576142c561426c565b5b50919050565b60008190508160005260206000209050919050565b60006020601f8301049050919050565b600082821b905092915050565b60006008830261432e7fffffffffffffffffffffffffffffffffffffffffffffffffffffffffffffffff826142f1565b61433886836142f1565b95508019841693508086168417925050509392505050565b6000819050919050565b600061437561437061436b84613904565b614350565b613904565b9050919050565b6000819050919050565b61438f8361435a565b6143a361439b8261437c565b8484546142fe565b825550505050565b600090565b6143b86143ab565b6143c3818484614386565b505050565b5b818110156143e7576143dc6000826143b0565b6001810190506143c9565b5050565b601f82111561442c576143fd816142cc565b614406846142e1565b81016020851015614415578190505b614429614421856142e1565b8301826143c8565b50505b505050565b600082821c905092915050565b600061444f60001984600802614431565b1980831691505092915050565b6000614468838361443e565b9150826002028217905092915050565b61448182613be0565b67ffffffffffffffff81111561449a57614499613955565b5b6144a4825461429b565b6144af8282856143eb565b600060209050601f8311600181146144e257600084156144d0578287015190505b6144da858261445c565b865550614542565b601f1984166144f0866142cc565b60005b82811015614518578489015182556001820191506020850194506020810190506144f3565b868310156145355784890151614531601f89168261443e565b8355505b6001600288020188555050505b505050505050565b600060a08201905061455f6000830188613b7a565b61456c6020830187613b7a565b818103604083015261457e8186613c2f565b905081810360608301526145928185613c2f565b90506145a16080830184613b7a565b9695505050505050565b7f4e487b7100000000000000000000000000000000000000000000000000000000600052601160045260246000fd5b60006145e582613904565b91507fffffffffffffffffffffffffffffffffffffffffffffffffffffffffffffffff8203614617576146166145ab565b5b600182019050919050565b61462b81613b0f565b82525050565b61463a81613904565b82525050565b600082825260208201905092915050565b600061465c82613be0565b6146668185614640565b9350614676818560208601613bfc565b61467f81613944565b840191505092915050565b61469381613fe6565b82525050565b6000610180830160008301516146b26000860182614622565b5060208301516146c56020860182614631565b50604083015184820360408601526146dd8282614651565b915050606083015184820360608601526146f78282614651565b915050608083015184820360808601526147118282614651565b91505060a083015184820360a086015261472b8282614651565b91505060c083015184820360c08601526147458282614651565b91505060e083015184820360e086015261475f8282614651565b91505061010083015184820361010086015261477b8282614651565b915050610120830151614792610120860182614631565b506101408301516147a7610140860182614631565b506101608301516147bc61016086018261468a565b508091505092915050565b600060408201905081810360008301526147e18185614699565b90506147f06020830184613b7a565b9392505050565b7f596f752061726520746865206f776e65722e596f75206172652066726565207460008201527f6f2075736520796f7572206f776e20636f6e74656e7400000000000000000000602082015250565b6000614853603683613beb565b915061485e826147f7565b604082019050919050565b6000602082019050818103600083015261488281614846565b9050919050565b7f416d6f756e74206f662045746865722070726f7669646564206973206c65737360008201527f207468616e20636f6e74656e7420707269636500000000000000000000000000602082015250565b60006148e5603383613beb565b91506148f082614889565b604082019050919050565b60006020820190508181036000830152614914816148d8565b9050919050565b7f636f6e74656e7420646f6573206e6f7420657869737473000000000000000000600082015250565b6000614951601783613beb565b915061495c8261491b565b602082019050919050565b6000602082019050818103600083015261498081614944565b9050919050565b7f54686572652065786973742070656e64696e6720726571756573740000000000600082015250565b60006149bd601b83613beb565b91506149c882614987565b602082019050919050565b600060208201905081810360008301526149ec816149b0565b9050919050565b7f596f7572207265717565737420746f20757365207468697320636f6e74656e7460008201527f20686173206265656e20617070726f7665640000000000000000000000000000602082015250565b6000614a4f603283613beb565b9150614a5a826149f3565b604082019050919050565b60006020820190508181036000830152614a7e81614a42565b9050919050565b6000614a9082613904565b9150614a9b83613904565b9250827fffffffffffffffffffffffffffffffffffffffffffffffffffffffffffffffff03821115614ad057614acf6145ab565b5b828201905092915050565b6000614ae682613904565b9150614af183613904565b925082821015614b0457614b036145ab565b5b828203905092915050565b614b1881613cbe565b82525050565b600061012083016000830151614b376000860182614631565b506020830151614b4a6020860182614622565b506040830151614b5d6040860182614631565b5060608301518482036060860152614b758282614651565b91505060808301518482036080860152614b8f8282614651565b91505060a0830151614ba460a0860182614631565b5060c0830151614bb760c0860182614b0f565b5060e083015184820360e0860152614bcf8282614651565b915050610100830151614be6610100860182614631565b508091505092915050565b60006020820190508181036000830152614c0b8184614b1e565b905092915050565b6000608082019050614c286000830187613bd1565b614c356020830186613bd1565b614c426040830185613b7a565b614c4f6060830184613b7a565b95945050505050565b7f54686520726571756573742068617320616c7265616479206265656e2061707060008201527f726f766564000000000000000000000000000000000000000000000000000000602082015250565b6000614cb4602583613beb565b9150614cbf82614c58565b604082019050919050565b60006020820190508181036000830152614ce381614ca7565b9050919050565b7f596f752063616e6e6f7420617070726f76652072656a6563746564207265717560008201527f6573740000000000000000000000000000000000000000000000000000000000602082015250565b6000614d46602383613beb565b9150614d5182614cea565b604082019050919050565b60006020820190508181036000830152614d7581614d39565b9050919050565b7f596f752068617665206e6f2062616c616e6365206c65667420696e207468652060008201527f736d61727420636f6e7472616374000000000000000000000000000000000000602082015250565b6000614dd8602e83613beb565b9150614de382614d7c565b604082019050919050565b60006020820190508181036000830152614e0781614dcb565b9050919050565b7f4974207365656d73206c696b65207468657265206973206e6f2070656e64696e60008201527f67207265717565737420666f7220796f75000000000000000000000000000000602082015250565b6000614e6a603183613beb565b9150614e7582614e0e565b604082019050919050565b60006020820190508181036000830152614e9981614e5d565b9050919050565b60008160001c9050919050565b6000819050919050565b6000614eca614ec583614ea0565b614ead565b9050919050565b600073ffffffffffffffffffffffffffffffffffffffff82169050919050565b6000614f04614eff83614ea0565b614ed1565b9050919050565b60008154614f188161429b565b614f228186614640565b94506001821660008114614f3d5760018114614f5357614f86565b60ff198316865281151560200286019350614f86565b614f5c856142cc565b60005b83811015614f7e57815481890152600182019150602081019050614f5f565b808801955050505b50505092915050565b600060ff82169050919050565b6000614faf614faa83614ea0565b614f8f565b9050919050565b600061012083016000808401549050614fce81614eb7565b614fdb6000870182614631565b5060018401549050614fec81614ef1565b614ff96020870182614622565b506002840154905061500a81614eb7565b6150176040870182614631565b5060038401858303606087015261502e8382614f0b565b9250506004840185830360808701526150478382614f0b565b9250506005840154905061505a81614eb7565b61506760a0870182614631565b506006840154905061507881614f9c565b61508560c0870182614b0f565b506007840185830360e087015261509c8382614f0b565b925050600884015490506150af81614eb7565b6150bd610100870182614631565b50819250505092915050565b600060408201905081810360008301526150e38185614fb6565b90506150f26020830184613b7a565b9392505050565b6000610100830160008301516151126000860182614631565b5060208301516151256020860182614622565b5060408301516151386040860182614622565b50606083015161514b6060860182614631565b50608083015184820360808601526151638282614651565b91505060a083015184820360a086015261517d8282614651565b91505060c083015161519260c0860182614631565b5060e08301516151a560e0860182614631565b508091505092915050565b600060208201905081810360008301526151ca81846150f9565b905092915050565b7f596f752063616e6e6f742072656a6563742072656a656374656420726571756560008201527f7374000000000000000000000000000000000000000000000000000000000000602082015250565b600061522e602283613beb565b9150615239826151d2565b604082019050919050565b6000602082019050818103600083015261525d81615221565b905091905056fea2646970667358221220988809b89c337d22c2e3fdcb348b2c964a0816993b93ed2564340d1bb6a7444564736f6c634300080f0033",
  "immutableReferences": {},
  "source": "// SPDX-License-Identifier: MIT\npragma solidity ^0.8.15;\n\ncontract CopyrightManagement {\n    enum ContentType {\n        IMAGE,\n        AUDIO,\n        TEXT\n    }\n    enum RequestType {\n        PENDING,\n        REJECTED,\n        APPROVED\n    }\n    struct Content {\n        address ownerAddress;\n        uint256 Id;\n        string pHash;\n        string IPFSAddress;\n        string title;\n        string ownerName;\n        string ownerEmail;\n        string desc;\n        string fieldOfUse;\n        uint256 price;\n        uint256 publishDate;\n        ContentType contentType;\n    }\n    struct Agreement {\n        uint256 id;\n        address licensee;\n        address licenser;\n        uint256 contentId;\n        string purposeOfUse;\n        string fieldOfUse;\n        uint256 price;\n        uint256 timestamp;\n    }\n    struct Request {\n        uint256 id;\n        address licensee;\n        uint256 contentId;\n        string purposeOfUse;\n        string fieldOfUse;\n        uint256 price;\n        RequestType requestType;\n        string rejectReason;\n        uint256 timestamp;\n    }\n    event addContentEvent(\n        address indexed _caller,\n        Content _content,\n        uint256 timestamp\n    );\n    event updateContentEvent(\n        address indexed _caller,\n        uint256 indexed _contentId,\n        uint256 _lastPrice,\n        uint256 _currentPrice,\n        string _lastFieldOfUse,\n        string _currentFieldOfUse,\n        uint256 timestamp\n    );\n    event licensingEvent(Agreement _agreement);\n    event requestEvent(Request _request);\n    event updateRequestEvent(\n        address indexed _caller,\n        Request _request,\n        uint256 timestamp\n    );\n\n    uint256 public contentCount;\n    uint256 public agreementCount;\n    uint256 public requestCount;\n\n    mapping(uint256 => Content) public contents;\n    mapping(uint256 => Agreement) public agreements;\n    mapping(uint256 => Request) public requests;\n    mapping(address => uint256) public balances;\n\n    event transferEvent(\n        address _caller,\n        address _receiver,\n        uint256 _amount,\n        uint256 _timestamp\n    );\n\n    function addContent(\n        string memory _pHash,\n        string memory _IPFSAddress,\n        string memory _title,\n        string memory _ownerName,\n        string memory _ownerEmail,\n        string memory _desc,\n        string memory _fieldOfUse,\n        uint256 _price,\n        ContentType _contentType\n    ) public {\n        Content memory content = Content(\n            msg.sender,\n            contentCount,\n            _pHash,\n            _IPFSAddress,\n            _title,\n            _ownerName,\n            _ownerEmail,\n            _desc,\n            _fieldOfUse,\n            _price,\n            block.timestamp,\n            _contentType\n        );\n        contents[contentCount] = content;\n        contentCount++;\n        emit addContentEvent(msg.sender, content, block.timestamp);\n    }\n\n    function updateContentData(\n        uint256 _id,\n        uint256 _price,\n        string memory _fieldOfUse\n    ) public {\n        require(\n            msg.sender == contents[_id].ownerAddress,\n            \"You are not the owner of the content\"\n        );\n        Content memory content = contents[_id];\n        uint256 lastPrice = content.price;\n        contents[_id].price = _price;\n        string memory lastFieldOfUse = content.fieldOfUse;\n        contents[_id].fieldOfUse = _fieldOfUse;\n\n        emit updateContentEvent(\n            msg.sender,\n            _id,\n            lastPrice,\n            _price,\n            lastFieldOfUse,\n            _fieldOfUse,\n            block.timestamp\n        );\n    }\n\n    function requestAgreement(\n        uint256 _contentId,\n        string memory _purposeOfUse,\n        string memory _fieldOfUse\n    ) public payable {\n        Content memory content = contents[_contentId];\n        require(\n            msg.sender != content.ownerAddress,\n            \"You are the owner.You are free to use your own content\"\n        );\n        require(\n            msg.value >= content.price,\n            \"Amount of Ether provided is less than content price\"\n        );\n        require((bytes(content.title)).length != 0, \"content does not exists\");\n        for (uint256 i = 0; i < requestCount; i++) {\n            Request memory tmpRequest = requests[i];\n            if (\n                tmpRequest.contentId == _contentId &&\n                tmpRequest.licensee == msg.sender\n            ) {\n                require(\n                    tmpRequest.requestType != RequestType.PENDING,\n                    \"There exist pending request\"\n                );\n                require(\n                    tmpRequest.requestType != RequestType.APPROVED,\n                    \"Your request to use this content has been approved\"\n                );\n            }\n        }\n\n        balances[content.ownerAddress] += content.price;\n        if (msg.value > content.price) {\n            uint256 excess = msg.value - content.price;\n            payable(msg.sender).transfer(excess);\n        }\n        Request memory request = Request(\n            requestCount,\n            msg.sender,\n            _contentId,\n            _purposeOfUse,\n            _fieldOfUse,\n            content.price,\n            RequestType.PENDING,\n            \"\",\n            block.timestamp\n        );\n        requests[requestCount] = request;\n        requestCount++;\n        emit requestEvent(request);\n        emit transferEvent(\n            msg.sender,\n            address(this),\n            content.price,\n            block.timestamp\n        );\n    }\n\n    function rejectAgreement(\n        uint256 _requestId,\n        string memory _rejectReason\n    ) public payable {\n        Request memory request = requests[_requestId];\n        Content memory content = contents[request.contentId];\n        require((bytes(content.title)).length != 0, \"content does not exists\");\n        require(\n            content.ownerAddress == msg.sender,\n            \"You are not the owner of the content\"\n        );\n        require(\n            request.requestType != RequestType.APPROVED,\n            \"The request has already been approved\"\n        );\n        require(\n            request.requestType != RequestType.REJECTED,\n            \"You cannot reject rejected request\"\n        );\n        require(\n            balances[msg.sender] > 0,\n            \"You have no balance left in the smart contract\"\n        );\n        require(\n            balances[msg.sender] >= request.price,\n            \"It seems like there is no pending request for you\"\n        );\n        requests[_requestId].requestType = RequestType.REJECTED;\n        requests[_requestId].rejectReason = _rejectReason;\n        balances[msg.sender] -= request.price;\n        payable(request.licensee).transfer(request.price);\n        emit updateRequestEvent(\n            msg.sender,\n            requests[_requestId],\n            block.timestamp\n        );\n        emit transferEvent(\n            msg.sender,\n            request.licensee,\n            request.price,\n            block.timestamp\n        );\n    }\n\n    function approveAgreement(uint256 _requestId) public payable {\n        Request memory request = requests[_requestId];\n        Content memory content = contents[request.contentId];\n        require((bytes(content.title)).length != 0, \"content does not exists\");\n        require(\n            content.ownerAddress == msg.sender,\n            \"You are not the owner of the content\"\n        );\n        require(\n            request.requestType != RequestType.APPROVED,\n            \"The request has already been approved\"\n        );\n        require(\n            request.requestType != RequestType.REJECTED,\n            \"You cannot approve rejected request\"\n        );\n        require(\n            balances[msg.sender] > 0,\n            \"You have no balance left in the smart contract\"\n        );\n        require(\n            balances[msg.sender] >= request.price,\n            \"It seems like there is no pending request for you\"\n        );\n        requests[_requestId].requestType = RequestType.APPROVED;\n        Agreement memory agreement = Agreement(\n            agreementCount,\n            request.licensee,\n            msg.sender,\n            content.Id,\n            request.purposeOfUse,\n            request.fieldOfUse,\n            request.price,\n            block.timestamp\n        );\n        agreements[agreementCount] = agreement;\n        agreementCount++;\n        balances[msg.sender] -= request.price;\n        payable(msg.sender).transfer(request.price);\n        emit updateRequestEvent(\n            msg.sender,\n            requests[_requestId],\n            block.timestamp\n        );\n        emit transferEvent(\n            request.licensee,\n            msg.sender,\n            request.price,\n            block.timestamp\n        );\n        emit licensingEvent(agreement);\n    }\n}\n",
  "sourcePath": "/home/katai/Documents/GitHub/digital-copyright-management/truffle/contracts/CopyrightManagement.sol",
  "compiler": {
    "name": "solc",
    "version": "0.8.15+commit.e14f2714.Emscripten.clang"
  },
  "schemaVersion": "3.4.11",
  "updatedAt": "2023-04-05T18:05:12.159Z",
  "networkType": "ethereum",
  "devdoc": {
    "kind": "dev",
    "methods": {},
    "version": 1
  },
  "userdoc": {
    "kind": "user",
    "methods": {},
    "version": 1
  }
}