{
  "contractName": "CopyrightManagement",
  "abi": [
    {
      "anonymous": false,
      "inputs": [
        {
          "components": [
            {
              "internalType": "address",
              "name": "ownerAddress",
              "type": "address"
            },
            {
              "internalType": "uint256",
              "name": "Id",
              "type": "uint256"
            },
            {
              "internalType": "string",
              "name": "pHash",
              "type": "string"
            },
            {
              "internalType": "string",
              "name": "IPFSAddress",
              "type": "string"
            },
            {
              "internalType": "string",
              "name": "title",
              "type": "string"
            },
            {
              "internalType": "string",
              "name": "ownerName",
              "type": "string"
            },
            {
              "internalType": "string",
              "name": "ownerEmail",
              "type": "string"
            },
            {
              "internalType": "string",
              "name": "desc",
              "type": "string"
            },
            {
              "internalType": "uint256",
              "name": "price",
              "type": "uint256"
            },
            {
              "internalType": "uint256",
              "name": "publishDate",
              "type": "uint256"
            }
          ],
          "indexed": false,
          "internalType": "struct CopyrightManagement.Content",
          "name": "_content",
          "type": "tuple"
        },
        {
          "indexed": false,
          "internalType": "enum CopyrightManagement.ContentType",
          "name": "_contentType",
          "type": "uint8"
        }
      ],
      "name": "addContentEvent",
      "type": "event"
    },
    {
      "anonymous": false,
      "inputs": [
        {
          "indexed": true,
          "internalType": "address",
          "name": "_caller",
          "type": "address"
        },
        {
          "indexed": true,
          "internalType": "uint256",
          "name": "_id",
          "type": "uint256"
        },
        {
          "indexed": false,
          "internalType": "uint256",
          "name": "_price",
          "type": "uint256"
        },
        {
          "indexed": false,
          "internalType": "enum CopyrightManagement.ContentType",
          "name": "_content_type",
          "type": "uint8"
        },
        {
          "indexed": false,
          "internalType": "enum CopyrightManagement.ContentAction",
          "name": "_content_action",
          "type": "uint8"
        }
      ],
      "name": "updateContentPriceEvent",
      "type": "event"
    },
    {
      "inputs": [
        {
          "internalType": "uint256",
          "name": "",
          "type": "uint256"
        }
      ],
      "name": "audio",
      "outputs": [
        {
          "internalType": "address",
          "name": "ownerAddress",
          "type": "address"
        },
        {
          "internalType": "uint256",
          "name": "Id",
          "type": "uint256"
        },
        {
          "internalType": "string",
          "name": "pHash",
          "type": "string"
        },
        {
          "internalType": "string",
          "name": "IPFSAddress",
          "type": "string"
        },
        {
          "internalType": "string",
          "name": "title",
          "type": "string"
        },
        {
          "internalType": "string",
          "name": "ownerName",
          "type": "string"
        },
        {
          "internalType": "string",
          "name": "ownerEmail",
          "type": "string"
        },
        {
          "internalType": "string",
          "name": "desc",
          "type": "string"
        },
        {
          "internalType": "uint256",
          "name": "price",
          "type": "uint256"
        },
        {
          "internalType": "uint256",
          "name": "publishDate",
          "type": "uint256"
        }
      ],
      "stateMutability": "view",
      "type": "function",
      "constant": true
    },
    {
      "inputs": [],
      "name": "audioCount",
      "outputs": [
        {
          "internalType": "uint256",
          "name": "",
          "type": "uint256"
        }
      ],
      "stateMutability": "view",
      "type": "function",
      "constant": true
    },
    {
      "inputs": [
        {
          "internalType": "address",
          "name": "",
          "type": "address"
        }
      ],
      "name": "balances",
      "outputs": [
        {
          "internalType": "uint256",
          "name": "",
          "type": "uint256"
        }
      ],
      "stateMutability": "view",
      "type": "function",
      "constant": true
    },
    {
      "inputs": [],
      "name": "imageCount",
      "outputs": [
        {
          "internalType": "uint256",
          "name": "",
          "type": "uint256"
        }
      ],
      "stateMutability": "view",
      "type": "function",
      "constant": true
    },
    {
      "inputs": [
        {
          "internalType": "uint256",
          "name": "",
          "type": "uint256"
        }
      ],
      "name": "images",
      "outputs": [
        {
          "internalType": "address",
          "name": "ownerAddress",
          "type": "address"
        },
        {
          "internalType": "uint256",
          "name": "Id",
          "type": "uint256"
        },
        {
          "internalType": "string",
          "name": "pHash",
          "type": "string"
        },
        {
          "internalType": "string",
          "name": "IPFSAddress",
          "type": "string"
        },
        {
          "internalType": "string",
          "name": "title",
          "type": "string"
        },
        {
          "internalType": "string",
          "name": "ownerName",
          "type": "string"
        },
        {
          "internalType": "string",
          "name": "ownerEmail",
          "type": "string"
        },
        {
          "internalType": "string",
          "name": "desc",
          "type": "string"
        },
        {
          "internalType": "uint256",
          "name": "price",
          "type": "uint256"
        },
        {
          "internalType": "uint256",
          "name": "publishDate",
          "type": "uint256"
        }
      ],
      "stateMutability": "view",
      "type": "function",
      "constant": true
    },
    {
      "inputs": [],
      "name": "textCount",
      "outputs": [
        {
          "internalType": "uint256",
          "name": "",
          "type": "uint256"
        }
      ],
      "stateMutability": "view",
      "type": "function",
      "constant": true
    },
    {
      "inputs": [
        {
          "internalType": "uint256",
          "name": "",
          "type": "uint256"
        }
      ],
      "name": "texts",
      "outputs": [
        {
          "internalType": "address",
          "name": "ownerAddress",
          "type": "address"
        },
        {
          "internalType": "uint256",
          "name": "Id",
          "type": "uint256"
        },
        {
          "internalType": "string",
          "name": "pHash",
          "type": "string"
        },
        {
          "internalType": "string",
          "name": "IPFSAddress",
          "type": "string"
        },
        {
          "internalType": "string",
          "name": "title",
          "type": "string"
        },
        {
          "internalType": "string",
          "name": "ownerName",
          "type": "string"
        },
        {
          "internalType": "string",
          "name": "ownerEmail",
          "type": "string"
        },
        {
          "internalType": "string",
          "name": "desc",
          "type": "string"
        },
        {
          "internalType": "uint256",
          "name": "price",
          "type": "uint256"
        },
        {
          "internalType": "uint256",
          "name": "publishDate",
          "type": "uint256"
        }
      ],
      "stateMutability": "view",
      "type": "function",
      "constant": true
    },
    {
      "inputs": [
        {
          "internalType": "string",
          "name": "_pHash",
          "type": "string"
        },
        {
          "internalType": "string",
          "name": "_IPFSAddress",
          "type": "string"
        },
        {
          "internalType": "string",
          "name": "_imageTitle",
          "type": "string"
        },
        {
          "internalType": "string",
          "name": "_ownerName",
          "type": "string"
        },
        {
          "internalType": "string",
          "name": "_ownerEmail",
          "type": "string"
        },
        {
          "internalType": "string",
          "name": "_desc",
          "type": "string"
        },
        {
          "internalType": "uint256",
          "name": "_price",
          "type": "uint256"
        }
      ],
      "name": "addImageContent",
      "outputs": [],
      "stateMutability": "nonpayable",
      "type": "function"
    },
    {
      "inputs": [
        {
          "internalType": "uint256",
          "name": "_id",
          "type": "uint256"
        },
        {
          "internalType": "string",
          "name": "_desc",
          "type": "string"
        },
        {
          "internalType": "uint256",
          "name": "_price",
          "type": "uint256"
        }
      ],
      "name": "updateImageData",
      "outputs": [],
      "stateMutability": "nonpayable",
      "type": "function"
    },
    {
      "inputs": [
        {
          "internalType": "string",
          "name": "_pHash",
          "type": "string"
        },
        {
          "internalType": "string",
          "name": "_IPFSAddress",
          "type": "string"
        },
        {
          "internalType": "string",
          "name": "_audioTitle",
          "type": "string"
        },
        {
          "internalType": "string",
          "name": "_ownerName",
          "type": "string"
        },
        {
          "internalType": "string",
          "name": "_ownerEmail",
          "type": "string"
        },
        {
          "internalType": "string",
          "name": "_desc",
          "type": "string"
        },
        {
          "internalType": "uint256",
          "name": "_price",
          "type": "uint256"
        }
      ],
      "name": "addAudioContent",
      "outputs": [],
      "stateMutability": "nonpayable",
      "type": "function"
    },
    {
      "inputs": [
        {
          "internalType": "uint256",
          "name": "_id",
          "type": "uint256"
        },
        {
          "internalType": "string",
          "name": "_desc",
          "type": "string"
        },
        {
          "internalType": "uint256",
          "name": "_price",
          "type": "uint256"
        }
      ],
      "name": "updateAudioData",
      "outputs": [],
      "stateMutability": "nonpayable",
      "type": "function"
    },
    {
      "inputs": [
        {
          "internalType": "string",
          "name": "_pHash",
          "type": "string"
        },
        {
          "internalType": "string",
          "name": "_IPFSAddress",
          "type": "string"
        },
        {
          "internalType": "string",
          "name": "_textTitle",
          "type": "string"
        },
        {
          "internalType": "string",
          "name": "_ownerName",
          "type": "string"
        },
        {
          "internalType": "string",
          "name": "_ownerEmail",
          "type": "string"
        },
        {
          "internalType": "string",
          "name": "_desc",
          "type": "string"
        },
        {
          "internalType": "uint256",
          "name": "_price",
          "type": "uint256"
        }
      ],
      "name": "addTextContent",
      "outputs": [],
      "stateMutability": "nonpayable",
      "type": "function"
    },
    {
      "inputs": [
        {
          "internalType": "uint256",
          "name": "_id",
          "type": "uint256"
        },
        {
          "internalType": "string",
          "name": "_desc",
          "type": "string"
        },
        {
          "internalType": "uint256",
          "name": "_price",
          "type": "uint256"
        }
      ],
      "name": "updateTextData",
      "outputs": [],
      "stateMutability": "nonpayable",
      "type": "function"
    }
  ],
  "bytecode": "0x608060405234801561001057600080fd5b50612073806100206000396000f3fe608060405234801561001057600080fd5b50600436106100cf5760003560e01c80635c1219721161008c5780638929c2e3116100665780638929c2e31461023d57806392053b6314610259578063e863ec5e14610277578063f78c9ede14610295576100cf565b80635c121972146101af5780637b8696be146101e85780638485648214610204576100cf565b80630cf5863a146100d45780631cc38a831461010d57806327e235e31461012957806333a3ca221461015957806338cb3b49146101755780635616e62414610193575b600080fd5b6100ee60048036038101906100e9919061151f565b6102b1565b6040516101049a99989796959493929190611635565b60405180910390f35b61012760048036038101906101229190611830565b610655565b005b610143600480360381019061013e91906119a6565b610815565b60405161015091906119d3565b60405180910390f35b610173600480360381019061016e9190611830565b61082d565b005b61017d6109ef565b60405161018a91906119d3565b60405180910390f35b6101ad60048036038101906101a891906119ee565b6109f5565b005b6101c960048036038101906101c4919061151f565b610a8d565b6040516101df9a99989796959493929190611635565b60405180910390f35b61020260048036038101906101fd91906119ee565b610e31565b005b61021e6004803603810190610219919061151f565b610eca565b6040516102349a99989796959493929190611635565b60405180910390f35b610257600480360381019061025291906119ee565b61126e565b005b610261611307565b60405161026e91906119d3565b60405180910390f35b61027f61130d565b60405161028c91906119d3565b60405180910390f35b6102af60048036038101906102aa9190611830565b611313565b005b60056020528060005260406000206000915090508060000160009054906101000a900473ffffffffffffffffffffffffffffffffffffffff169080600101549080600201805461030090611a8c565b80601f016020809104026020016040519081016040528092919081815260200182805461032c90611a8c565b80156103795780601f1061034e57610100808354040283529160200191610379565b820191906000526020600020905b81548152906001019060200180831161035c57829003601f168201915b50505050509080600301805461038e90611a8c565b80601f01602080910402602001604051908101604052809291908181526020018280546103ba90611a8c565b80156104075780601f106103dc57610100808354040283529160200191610407565b820191906000526020600020905b8154815290600101906020018083116103ea57829003601f168201915b50505050509080600401805461041c90611a8c565b80601f016020809104026020016040519081016040528092919081815260200182805461044890611a8c565b80156104955780601f1061046a57610100808354040283529160200191610495565b820191906000526020600020905b81548152906001019060200180831161047857829003601f168201915b5050505050908060050180546104aa90611a8c565b80601f01602080910402602001604051908101604052809291908181526020018280546104d690611a8c565b80156105235780601f106104f857610100808354040283529160200191610523565b820191906000526020600020905b81548152906001019060200180831161050657829003601f168201915b50505050509080600601805461053890611a8c565b80601f016020809104026020016040519081016040528092919081815260200182805461056490611a8c565b80156105b15780601f10610586576101008083540402835291602001916105b1565b820191906000526020600020905b81548152906001019060200180831161059457829003601f168201915b5050505050908060070180546105c690611a8c565b80601f01602080910402602001604051908101604052809291908181526020018280546105f290611a8c565b801561063f5780601f106106145761010080835404028352916020019161063f565b820191906000526020600020905b81548152906001019060200180831161062257829003601f168201915b505050505090806008015490806009015490508a565b60006040518061014001604052803373ffffffffffffffffffffffffffffffffffffffff168152602001600054815260200189815260200188815260200187815260200186815260200185815260200184815260200183815260200142815250905080600460008054815260200190815260200160002060008201518160000160006101000a81548173ffffffffffffffffffffffffffffffffffffffff021916908373ffffffffffffffffffffffffffffffffffffffff1602179055506020820151816001015560408201518160020190816107329190611c69565b5060608201518160030190816107489190611c69565b50608082015181600401908161075e9190611c69565b5060a08201518160050190816107749190611c69565b5060c082015181600601908161078a9190611c69565b5060e08201518160070190816107a09190611c69565b50610100820151816008015561012082015181600901559050506000808154809291906107cc90611d6a565b91905055507fcc06f9b720ca76fd9e6b44fcabc834a85eb991ce971fef55d28e8bbbb3ba9ac6816000604051610803929190611f8e565b60405180910390a15050505050505050565b60036020528060005260406000206000915090505481565b60006040518061014001604052803373ffffffffffffffffffffffffffffffffffffffff16815260200160025481526020018981526020018881526020018781526020018681526020018581526020018481526020018381526020014281525090508060056000600254815260200190815260200160002060008201518160000160006101000a81548173ffffffffffffffffffffffffffffffffffffffff021916908373ffffffffffffffffffffffffffffffffffffffff16021790555060208201518160010155604082015181600201908161090b9190611c69565b5060608201518160030190816109219190611c69565b5060808201518160040190816109379190611c69565b5060a082015181600501908161094d9190611c69565b5060c08201518160060190816109639190611c69565b5060e08201518160070190816109799190611c69565b5061010082015181600801556101208201518160090155905050600260008154809291906109a690611d6a565b91905055507fcc06f9b720ca76fd9e6b44fcabc834a85eb991ce971fef55d28e8bbbb3ba9ac68160016040516109dd929190611f8e565b60405180910390a15050505050505050565b60025481565b81600560008581526020019081526020016000206007019081610a189190611c69565b50806005600085815260200190815260200160002060080181905550823373ffffffffffffffffffffffffffffffffffffffff167fac43cf7903a65c20fa11b72e0d6be4768bc2c7fdff6e93a99df9ffd516a104fe83600180604051610a8093929190612006565b60405180910390a3505050565b60066020528060005260406000206000915090508060000160009054906101000a900473ffffffffffffffffffffffffffffffffffffffff1690806001015490806002018054610adc90611a8c565b80601f0160208091040260200160405190810160405280929190818152602001828054610b0890611a8c565b8015610b555780601f10610b2a57610100808354040283529160200191610b55565b820191906000526020600020905b815481529060010190602001808311610b3857829003601f168201915b505050505090806003018054610b6a90611a8c565b80601f0160208091040260200160405190810160405280929190818152602001828054610b9690611a8c565b8015610be35780601f10610bb857610100808354040283529160200191610be3565b820191906000526020600020905b815481529060010190602001808311610bc657829003601f168201915b505050505090806004018054610bf890611a8c565b80601f0160208091040260200160405190810160405280929190818152602001828054610c2490611a8c565b8015610c715780601f10610c4657610100808354040283529160200191610c71565b820191906000526020600020905b815481529060010190602001808311610c5457829003601f168201915b505050505090806005018054610c8690611a8c565b80601f0160208091040260200160405190810160405280929190818152602001828054610cb290611a8c565b8015610cff5780601f10610cd457610100808354040283529160200191610cff565b820191906000526020600020905b815481529060010190602001808311610ce257829003601f168201915b505050505090806006018054610d1490611a8c565b80601f0160208091040260200160405190810160405280929190818152602001828054610d4090611a8c565b8015610d8d5780601f10610d6257610100808354040283529160200191610d8d565b820191906000526020600020905b815481529060010190602001808311610d7057829003601f168201915b505050505090806007018054610da290611a8c565b80601f0160208091040260200160405190810160405280929190818152602001828054610dce90611a8c565b8015610e1b5780601f10610df057610100808354040283529160200191610e1b565b820191906000526020600020905b815481529060010190602001808311610dfe57829003601f168201915b505050505090806008015490806009015490508a565b81600660008581526020019081526020016000206007019081610e549190611c69565b50806006600085815260200190815260200160002060080181905550823373ffffffffffffffffffffffffffffffffffffffff167fac43cf7903a65c20fa11b72e0d6be4768bc2c7fdff6e93a99df9ffd516a104fe8360026001604051610ebd93929190612006565b60405180910390a3505050565b60046020528060005260406000206000915090508060000160009054906101000a900473ffffffffffffffffffffffffffffffffffffffff1690806001015490806002018054610f1990611a8c565b80601f0160208091040260200160405190810160405280929190818152602001828054610f4590611a8c565b8015610f925780601f10610f6757610100808354040283529160200191610f92565b820191906000526020600020905b815481529060010190602001808311610f7557829003601f168201915b505050505090806003018054610fa790611a8c565b80601f0160208091040260200160405190810160405280929190818152602001828054610fd390611a8c565b80156110205780601f10610ff557610100808354040283529160200191611020565b820191906000526020600020905b81548152906001019060200180831161100357829003601f168201915b50505050509080600401805461103590611a8c565b80601f016020809104026020016040519081016040528092919081815260200182805461106190611a8c565b80156110ae5780601f10611083576101008083540402835291602001916110ae565b820191906000526020600020905b81548152906001019060200180831161109157829003601f168201915b5050505050908060050180546110c390611a8c565b80601f01602080910402602001604051908101604052809291908181526020018280546110ef90611a8c565b801561113c5780601f106111115761010080835404028352916020019161113c565b820191906000526020600020905b81548152906001019060200180831161111f57829003601f168201915b50505050509080600601805461115190611a8c565b80601f016020809104026020016040519081016040528092919081815260200182805461117d90611a8c565b80156111ca5780601f1061119f576101008083540402835291602001916111ca565b820191906000526020600020905b8154815290600101906020018083116111ad57829003601f168201915b5050505050908060070180546111df90611a8c565b80601f016020809104026020016040519081016040528092919081815260200182805461120b90611a8c565b80156112585780601f1061122d57610100808354040283529160200191611258565b820191906000526020600020905b81548152906001019060200180831161123b57829003601f168201915b505050505090806008015490806009015490508a565b816004600085815260200190815260200160002060070190816112919190611c69565b50806004600085815260200190815260200160002060080181905550823373ffffffffffffffffffffffffffffffffffffffff167fac43cf7903a65c20fa11b72e0d6be4768bc2c7fdff6e93a99df9ffd516a104fe83600060016040516112fa93929190612006565b60405180910390a3505050565b60005481565b60015481565b60006040518061014001604052803373ffffffffffffffffffffffffffffffffffffffff16815260200160015481526020018981526020018881526020018781526020018681526020018581526020018481526020018381526020014281525090508060066000600154815260200190815260200160002060008201518160000160006101000a81548173ffffffffffffffffffffffffffffffffffffffff021916908373ffffffffffffffffffffffffffffffffffffffff1602179055506020820151816001015560408201518160020190816113f19190611c69565b5060608201518160030190816114079190611c69565b50608082015181600401908161141d9190611c69565b5060a08201518160050190816114339190611c69565b5060c08201518160060190816114499190611c69565b5060e082015181600701908161145f9190611c69565b50610100820151816008015561012082015181600901559050506001600081548092919061148c90611d6a565b91905055507fcc06f9b720ca76fd9e6b44fcabc834a85eb991ce971fef55d28e8bbbb3ba9ac68160026040516114c3929190611f8e565b60405180910390a15050505050505050565b6000604051905090565b600080fd5b600080fd5b6000819050919050565b6114fc816114e9565b811461150757600080fd5b50565b600081359050611519816114f3565b92915050565b600060208284031215611535576115346114df565b5b60006115438482850161150a565b91505092915050565b600073ffffffffffffffffffffffffffffffffffffffff82169050919050565b60006115778261154c565b9050919050565b6115878161156c565b82525050565b611596816114e9565b82525050565b600081519050919050565b600082825260208201905092915050565b60005b838110156115d65780820151818401526020810190506115bb565b838111156115e5576000848401525b50505050565b6000601f19601f8301169050919050565b60006116078261159c565b61161181856115a7565b93506116218185602086016115b8565b61162a816115eb565b840191505092915050565b60006101408201905061164b600083018d61157e565b611658602083018c61158d565b818103604083015261166a818b6115fc565b9050818103606083015261167e818a6115fc565b9050818103608083015261169281896115fc565b905081810360a08301526116a681886115fc565b905081810360c08301526116ba81876115fc565b905081810360e08301526116ce81866115fc565b90506116de61010083018561158d565b6116ec61012083018461158d565b9b9a5050505050505050505050565b600080fd5b600080fd5b7f4e487b7100000000000000000000000000000000000000000000000000000000600052604160045260246000fd5b61173d826115eb565b810181811067ffffffffffffffff8211171561175c5761175b611705565b5b80604052505050565b600061176f6114d5565b905061177b8282611734565b919050565b600067ffffffffffffffff82111561179b5761179a611705565b5b6117a4826115eb565b9050602081019050919050565b82818337600083830152505050565b60006117d36117ce84611780565b611765565b9050828152602081018484840111156117ef576117ee611700565b5b6117fa8482856117b1565b509392505050565b600082601f830112611817576118166116fb565b5b81356118278482602086016117c0565b91505092915050565b600080600080600080600060e0888a03121561184f5761184e6114df565b5b600088013567ffffffffffffffff81111561186d5761186c6114e4565b5b6118798a828b01611802565b975050602088013567ffffffffffffffff81111561189a576118996114e4565b5b6118a68a828b01611802565b965050604088013567ffffffffffffffff8111156118c7576118c66114e4565b5b6118d38a828b01611802565b955050606088013567ffffffffffffffff8111156118f4576118f36114e4565b5b6119008a828b01611802565b945050608088013567ffffffffffffffff811115611921576119206114e4565b5b61192d8a828b01611802565b93505060a088013567ffffffffffffffff81111561194e5761194d6114e4565b5b61195a8a828b01611802565b92505060c061196b8a828b0161150a565b91505092959891949750929550565b6119838161156c565b811461198e57600080fd5b50565b6000813590506119a08161197a565b92915050565b6000602082840312156119bc576119bb6114df565b5b60006119ca84828501611991565b91505092915050565b60006020820190506119e8600083018461158d565b92915050565b600080600060608486031215611a0757611a066114df565b5b6000611a158682870161150a565b935050602084013567ffffffffffffffff811115611a3657611a356114e4565b5b611a4286828701611802565b9250506040611a538682870161150a565b9150509250925092565b7f4e487b7100000000000000000000000000000000000000000000000000000000600052602260045260246000fd5b60006002820490506001821680611aa457607f821691505b602082108103611ab757611ab6611a5d565b5b50919050565b60008190508160005260206000209050919050565b60006020601f8301049050919050565b600082821b905092915050565b600060088302611b1f7fffffffffffffffffffffffffffffffffffffffffffffffffffffffffffffffff82611ae2565b611b298683611ae2565b95508019841693508086168417925050509392505050565b6000819050919050565b6000611b66611b61611b5c846114e9565b611b41565b6114e9565b9050919050565b6000819050919050565b611b8083611b4b565b611b94611b8c82611b6d565b848454611aef565b825550505050565b600090565b611ba9611b9c565b611bb4818484611b77565b505050565b5b81811015611bd857611bcd600082611ba1565b600181019050611bba565b5050565b601f821115611c1d57611bee81611abd565b611bf784611ad2565b81016020851015611c06578190505b611c1a611c1285611ad2565b830182611bb9565b50505b505050565b600082821c905092915050565b6000611c4060001984600802611c22565b1980831691505092915050565b6000611c598383611c2f565b9150826002028217905092915050565b611c728261159c565b67ffffffffffffffff811115611c8b57611c8a611705565b5b611c958254611a8c565b611ca0828285611bdc565b600060209050601f831160018114611cd35760008415611cc1578287015190505b611ccb8582611c4d565b865550611d33565b601f198416611ce186611abd565b60005b82811015611d0957848901518255600182019150602085019450602081019050611ce4565b86831015611d265784890151611d22601f891682611c2f565b8355505b6001600288020188555050505b505050505050565b7f4e487b7100000000000000000000000000000000000000000000000000000000600052601160045260246000fd5b6000611d75826114e9565b91507fffffffffffffffffffffffffffffffffffffffffffffffffffffffffffffffff8203611da757611da6611d3b565b5b600182019050919050565b611dbb8161156c565b82525050565b611dca816114e9565b82525050565b600082825260208201905092915050565b6000611dec8261159c565b611df68185611dd0565b9350611e068185602086016115b8565b611e0f816115eb565b840191505092915050565b600061014083016000830151611e336000860182611db2565b506020830151611e466020860182611dc1565b5060408301518482036040860152611e5e8282611de1565b91505060608301518482036060860152611e788282611de1565b91505060808301518482036080860152611e928282611de1565b91505060a083015184820360a0860152611eac8282611de1565b91505060c083015184820360c0860152611ec68282611de1565b91505060e083015184820360e0860152611ee08282611de1565b915050610100830151611ef7610100860182611dc1565b50610120830151611f0c610120860182611dc1565b508091505092915050565b7f4e487b7100000000000000000000000000000000000000000000000000000000600052602160045260246000fd5b60038110611f5757611f56611f17565b5b50565b6000819050611f6882611f46565b919050565b6000611f7882611f5a565b9050919050565b611f8881611f6d565b82525050565b60006040820190508181036000830152611fa88185611e1a565b9050611fb76020830184611f7f565b9392505050565b60028110611fcf57611fce611f17565b5b50565b6000819050611fe082611fbe565b919050565b6000611ff082611fd2565b9050919050565b61200081611fe5565b82525050565b600060608201905061201b600083018661158d565b6120286020830185611f7f565b6120356040830184611ff7565b94935050505056fea2646970667358221220135feb4e7fa3ffd502a17aad667213d131f0dad875167712c026c629c741451464736f6c634300080f0033",
  "immutableReferences": {},
  "source": "// SPDX-License-Identifier: MIT\npragma solidity ^0.8.15;\n\ncontract CopyrightManagement {\n    enum ContentType {\n        IMAGE,\n        AUDIO,\n        TEXT\n    }\n    enum ContentAction {\n        CREATE,\n        UPDATE\n    }\n    struct Content {\n        address ownerAddress;\n        uint256 Id;\n        string pHash;\n        string IPFSAddress;\n        string title;\n        string ownerName;\n        string ownerEmail;\n        string desc;\n        uint256 price;\n        uint256 publishDate;\n    }\n    event addContentEvent(Content _content, ContentType _contentType);\n\n    event updateContentPriceEvent(\n        address indexed _caller,\n        uint256 indexed _id,\n        uint256 _price,\n        ContentType _content_type,\n        ContentAction _content_action\n    );\n\n    uint256 public imageCount;\n    uint256 public textCount;\n    uint256 public audioCount;\n\n    mapping(address => uint256) public balances;\n\n    mapping(uint256 => Content) public images;\n    mapping(uint256 => Content) public audio;\n    mapping(uint256 => Content) public texts;\n\n    function addImageContent(\n        string memory _pHash,\n        string memory _IPFSAddress,\n        string memory _imageTitle,\n        string memory _ownerName,\n        string memory _ownerEmail,\n        string memory _desc,\n        uint256 _price\n    ) public {\n        Content memory image = Content(\n            msg.sender,\n            imageCount,\n            _pHash,\n            _IPFSAddress,\n            _imageTitle,\n            _ownerName,\n            _ownerEmail,\n            _desc,\n            _price,\n            block.timestamp\n        );\n        images[imageCount] = image;\n        imageCount++;\n        emit addContentEvent(image, ContentType.IMAGE);\n    }\n\n    function updateImageData(\n        uint256 _id,\n        string memory _desc,\n        uint256 _price\n    ) public {\n        images[_id].desc = _desc;\n        images[_id].price = _price;\n        emit updateContentPriceEvent(\n            msg.sender,\n            _id,\n            _price,\n            ContentType.IMAGE,\n            ContentAction.UPDATE\n        );\n    }\n\n    function addAudioContent(\n        string memory _pHash,\n        string memory _IPFSAddress,\n        string memory _audioTitle,\n        string memory _ownerName,\n        string memory _ownerEmail,\n        string memory _desc,\n        uint256 _price\n    ) public {\n        Content memory tmpAudio = Content(\n            msg.sender,\n            audioCount,\n            _pHash,\n            _IPFSAddress,\n            _audioTitle,\n            _ownerName,\n            _ownerEmail,\n            _desc,\n            _price,\n            block.timestamp\n        );\n        audio[audioCount] = tmpAudio;\n        audioCount++;\n        emit addContentEvent(tmpAudio, ContentType.AUDIO);\n    }\n\n    function updateAudioData(\n        uint256 _id,\n        string memory _desc,\n        uint256 _price\n    ) public {\n        audio[_id].desc = _desc;\n        audio[_id].price = _price;\n        emit updateContentPriceEvent(\n            msg.sender,\n            _id,\n            _price,\n            ContentType.AUDIO,\n            ContentAction.UPDATE\n        );\n    }\n\n    function addTextContent(\n        string memory _pHash,\n        string memory _IPFSAddress,\n        string memory _textTitle,\n        string memory _ownerName,\n        string memory _ownerEmail,\n        string memory _desc,\n        uint256 _price\n    ) public {\n        Content memory text = Content(\n            msg.sender,\n            textCount,\n            _pHash,\n            _IPFSAddress,\n            _textTitle,\n            _ownerName,\n            _ownerEmail,\n            _desc,\n            _price,\n            block.timestamp\n        );\n        texts[textCount] = text;\n        textCount++;\n        emit addContentEvent(text, ContentType.TEXT);\n    }\n\n    function updateTextData(\n        uint256 _id,\n        string memory _desc,\n        uint256 _price\n    ) public {\n        texts[_id].desc = _desc;\n        texts[_id].price = _price;\n        emit updateContentPriceEvent(\n            msg.sender,\n            _id,\n            _price,\n            ContentType.TEXT,\n            ContentAction.UPDATE\n        );\n    }\n}\n",
  "sourcePath": "/home/katai/Documents/GitHub/digital-copyright-management/truffle/contracts/CopyrightManagement.sol",
  "compiler": {
    "name": "solc",
    "version": "0.8.15+commit.e14f2714.Emscripten.clang"
  },
  "schemaVersion": "3.4.11",
  "updatedAt": "2023-03-13T14:55:21.242Z",
  "networkType": "ethereum",
  "devdoc": {
    "kind": "dev",
    "methods": {},
    "version": 1
  },
  "userdoc": {
    "kind": "user",
    "methods": {},
    "version": 1
  }
}