{
  "contractName": "CopyrightManagement",
  "abi": [
    {
      "anonymous": false,
      "inputs": [
        {
          "components": [
            {
              "internalType": "address",
              "name": "ownerAddress",
              "type": "address"
            },
            {
              "internalType": "uint256",
              "name": "Id",
              "type": "uint256"
            },
            {
              "internalType": "string",
              "name": "pHash",
              "type": "string"
            },
            {
              "internalType": "string",
              "name": "IPFSAddress",
              "type": "string"
            },
            {
              "internalType": "string",
              "name": "title",
              "type": "string"
            },
            {
              "internalType": "string",
              "name": "ownerName",
              "type": "string"
            },
            {
              "internalType": "string",
              "name": "ownerEmail",
              "type": "string"
            },
            {
              "internalType": "string",
              "name": "desc",
              "type": "string"
            },
            {
              "internalType": "uint256",
              "name": "price",
              "type": "uint256"
            },
            {
              "internalType": "uint256",
              "name": "publishDate",
              "type": "uint256"
            },
            {
              "internalType": "enum CopyrightManagement.ContentType",
              "name": "contentType",
              "type": "uint8"
            }
          ],
          "indexed": false,
          "internalType": "struct CopyrightManagement.Content",
          "name": "_content",
          "type": "tuple"
        },
        {
          "indexed": false,
          "internalType": "enum CopyrightManagement.ContentAction",
          "name": "_content_action",
          "type": "uint8"
        }
      ],
      "name": "addContentEvent",
      "type": "event"
    },
    {
      "anonymous": false,
      "inputs": [
        {
          "indexed": true,
          "internalType": "address",
          "name": "_caller",
          "type": "address"
        },
        {
          "indexed": true,
          "internalType": "uint256",
          "name": "_id",
          "type": "uint256"
        },
        {
          "indexed": false,
          "internalType": "uint256",
          "name": "_price",
          "type": "uint256"
        },
        {
          "indexed": false,
          "internalType": "enum CopyrightManagement.ContentType",
          "name": "_content_type",
          "type": "uint8"
        },
        {
          "indexed": false,
          "internalType": "enum CopyrightManagement.ContentAction",
          "name": "_content_action",
          "type": "uint8"
        }
      ],
      "name": "updateContentPriceEvent",
      "type": "event"
    },
    {
      "inputs": [],
      "name": "contentCount",
      "outputs": [
        {
          "internalType": "uint256",
          "name": "",
          "type": "uint256"
        }
      ],
      "stateMutability": "view",
      "type": "function",
      "constant": true
    },
    {
      "inputs": [
        {
          "internalType": "uint256",
          "name": "",
          "type": "uint256"
        }
      ],
      "name": "contents",
      "outputs": [
        {
          "internalType": "address",
          "name": "ownerAddress",
          "type": "address"
        },
        {
          "internalType": "uint256",
          "name": "Id",
          "type": "uint256"
        },
        {
          "internalType": "string",
          "name": "pHash",
          "type": "string"
        },
        {
          "internalType": "string",
          "name": "IPFSAddress",
          "type": "string"
        },
        {
          "internalType": "string",
          "name": "title",
          "type": "string"
        },
        {
          "internalType": "string",
          "name": "ownerName",
          "type": "string"
        },
        {
          "internalType": "string",
          "name": "ownerEmail",
          "type": "string"
        },
        {
          "internalType": "string",
          "name": "desc",
          "type": "string"
        },
        {
          "internalType": "uint256",
          "name": "price",
          "type": "uint256"
        },
        {
          "internalType": "uint256",
          "name": "publishDate",
          "type": "uint256"
        },
        {
          "internalType": "enum CopyrightManagement.ContentType",
          "name": "contentType",
          "type": "uint8"
        }
      ],
      "stateMutability": "view",
      "type": "function",
      "constant": true
    },
    {
      "inputs": [
        {
          "internalType": "string",
          "name": "_pHash",
          "type": "string"
        },
        {
          "internalType": "string",
          "name": "_IPFSAddress",
          "type": "string"
        },
        {
          "internalType": "string",
          "name": "_title",
          "type": "string"
        },
        {
          "internalType": "string",
          "name": "_ownerName",
          "type": "string"
        },
        {
          "internalType": "string",
          "name": "_ownerEmail",
          "type": "string"
        },
        {
          "internalType": "string",
          "name": "_desc",
          "type": "string"
        },
        {
          "internalType": "uint256",
          "name": "_price",
          "type": "uint256"
        },
        {
          "internalType": "enum CopyrightManagement.ContentType",
          "name": "_contentType",
          "type": "uint8"
        }
      ],
      "name": "addContent",
      "outputs": [],
      "stateMutability": "nonpayable",
      "type": "function"
    },
    {
      "inputs": [
        {
          "internalType": "uint256",
          "name": "_id",
          "type": "uint256"
        },
        {
          "internalType": "string",
          "name": "_desc",
          "type": "string"
        },
        {
          "internalType": "uint256",
          "name": "_price",
          "type": "uint256"
        },
        {
          "internalType": "enum CopyrightManagement.ContentType",
          "name": "_contentType",
          "type": "uint8"
        }
      ],
      "name": "updateContentData",
      "outputs": [],
      "stateMutability": "nonpayable",
      "type": "function"
    }
  ],
  "bytecode": "0x608060405234801561001057600080fd5b50611306806100206000396000f3fe608060405234801561001057600080fd5b506004361061004c5760003560e01c8063049bfc89146100515780639a4bb9941461006d578063b5ecf91214610089578063cc459696146100c3575b600080fd5b61006b600480360381019061006691906108f6565b6100e1565b005b61008760048036038101906100829190610a54565b6102eb565b005b6100a3600480360381019061009e9190610ad7565b610384565b6040516100ba9b9a99989796959493929190610c53565b60405180910390f35b6100cb61073b565b6040516100d89190610d28565b60405180910390f35b60006040518061016001604052803373ffffffffffffffffffffffffffffffffffffffff16815260200160005481526020018a815260200189815260200188815260200187815260200186815260200185815260200184815260200142815260200183600281111561015657610155610bdc565b5b815250905080600160008054815260200190815260200160002060008201518160000160006101000a81548173ffffffffffffffffffffffffffffffffffffffff021916908373ffffffffffffffffffffffffffffffffffffffff1602179055506020820151816001015560408201518160020190816101d69190610f4f565b5060608201518160030190816101ec9190610f4f565b5060808201518160040190816102029190610f4f565b5060a08201518160050190816102189190610f4f565b5060c082015181600601908161022e9190610f4f565b5060e08201518160070190816102449190610f4f565b506101008201518160080155610120820151816009015561014082015181600a0160006101000a81548160ff0219169083600281111561028757610286610bdc565b5b02179055509050506000808154809291906102a190611050565b91905055507f147fa28688d38a6d851a92fa757620d96bf77242df97abbcf7d58e8f345f17aa8160006040516102d8929190611269565b60405180910390a1505050505050505050565b8260016000868152602001908152602001600020600701908161030e9190610f4f565b50816001600086815260200190815260200160002060080181905550833373ffffffffffffffffffffffffffffffffffffffff167fac43cf7903a65c20fa11b72e0d6be4768bc2c7fdff6e93a99df9ffd516a104fe8484600160405161037693929190611299565b60405180910390a350505050565b60016020528060005260406000206000915090508060000160009054906101000a900473ffffffffffffffffffffffffffffffffffffffff16908060010154908060020180546103d390610d72565b80601f01602080910402602001604051908101604052809291908181526020018280546103ff90610d72565b801561044c5780601f106104215761010080835404028352916020019161044c565b820191906000526020600020905b81548152906001019060200180831161042f57829003601f168201915b50505050509080600301805461046190610d72565b80601f016020809104026020016040519081016040528092919081815260200182805461048d90610d72565b80156104da5780601f106104af576101008083540402835291602001916104da565b820191906000526020600020905b8154815290600101906020018083116104bd57829003601f168201915b5050505050908060040180546104ef90610d72565b80601f016020809104026020016040519081016040528092919081815260200182805461051b90610d72565b80156105685780601f1061053d57610100808354040283529160200191610568565b820191906000526020600020905b81548152906001019060200180831161054b57829003601f168201915b50505050509080600501805461057d90610d72565b80601f01602080910402602001604051908101604052809291908181526020018280546105a990610d72565b80156105f65780601f106105cb576101008083540402835291602001916105f6565b820191906000526020600020905b8154815290600101906020018083116105d957829003601f168201915b50505050509080600601805461060b90610d72565b80601f016020809104026020016040519081016040528092919081815260200182805461063790610d72565b80156106845780601f1061065957610100808354040283529160200191610684565b820191906000526020600020905b81548152906001019060200180831161066757829003601f168201915b50505050509080600701805461069990610d72565b80601f01602080910402602001604051908101604052809291908181526020018280546106c590610d72565b80156107125780601f106106e757610100808354040283529160200191610712565b820191906000526020600020905b8154815290600101906020018083116106f557829003601f168201915b50505050509080600801549080600901549080600a0160009054906101000a900460ff1690508b565b60005481565b6000604051905090565b600080fd5b600080fd5b600080fd5b600080fd5b6000601f19601f8301169050919050565b7f4e487b7100000000000000000000000000000000000000000000000000000000600052604160045260246000fd5b6107a88261075f565b810181811067ffffffffffffffff821117156107c7576107c6610770565b5b80604052505050565b60006107da610741565b90506107e6828261079f565b919050565b600067ffffffffffffffff82111561080657610805610770565b5b61080f8261075f565b9050602081019050919050565b82818337600083830152505050565b600061083e610839846107eb565b6107d0565b90508281526020810184848401111561085a5761085961075a565b5b61086584828561081c565b509392505050565b600082601f83011261088257610881610755565b5b813561089284826020860161082b565b91505092915050565b6000819050919050565b6108ae8161089b565b81146108b957600080fd5b50565b6000813590506108cb816108a5565b92915050565b600381106108de57600080fd5b50565b6000813590506108f0816108d1565b92915050565b600080600080600080600080610100898b0312156109175761091661074b565b5b600089013567ffffffffffffffff81111561093557610934610750565b5b6109418b828c0161086d565b985050602089013567ffffffffffffffff81111561096257610961610750565b5b61096e8b828c0161086d565b975050604089013567ffffffffffffffff81111561098f5761098e610750565b5b61099b8b828c0161086d565b965050606089013567ffffffffffffffff8111156109bc576109bb610750565b5b6109c88b828c0161086d565b955050608089013567ffffffffffffffff8111156109e9576109e8610750565b5b6109f58b828c0161086d565b94505060a089013567ffffffffffffffff811115610a1657610a15610750565b5b610a228b828c0161086d565b93505060c0610a338b828c016108bc565b92505060e0610a448b828c016108e1565b9150509295985092959890939650565b60008060008060808587031215610a6e57610a6d61074b565b5b6000610a7c878288016108bc565b945050602085013567ffffffffffffffff811115610a9d57610a9c610750565b5b610aa98782880161086d565b9350506040610aba878288016108bc565b9250506060610acb878288016108e1565b91505092959194509250565b600060208284031215610aed57610aec61074b565b5b6000610afb848285016108bc565b91505092915050565b600073ffffffffffffffffffffffffffffffffffffffff82169050919050565b6000610b2f82610b04565b9050919050565b610b3f81610b24565b82525050565b610b4e8161089b565b82525050565b600081519050919050565b600082825260208201905092915050565b60005b83811015610b8e578082015181840152602081019050610b73565b83811115610b9d576000848401525b50505050565b6000610bae82610b54565b610bb88185610b5f565b9350610bc8818560208601610b70565b610bd18161075f565b840191505092915050565b7f4e487b7100000000000000000000000000000000000000000000000000000000600052602160045260246000fd5b60038110610c1c57610c1b610bdc565b5b50565b6000819050610c2d82610c0b565b919050565b6000610c3d82610c1f565b9050919050565b610c4d81610c32565b82525050565b600061016082019050610c69600083018e610b36565b610c76602083018d610b45565b8181036040830152610c88818c610ba3565b90508181036060830152610c9c818b610ba3565b90508181036080830152610cb0818a610ba3565b905081810360a0830152610cc48189610ba3565b905081810360c0830152610cd88188610ba3565b905081810360e0830152610cec8187610ba3565b9050610cfc610100830186610b45565b610d0a610120830185610b45565b610d18610140830184610c44565b9c9b505050505050505050505050565b6000602082019050610d3d6000830184610b45565b92915050565b7f4e487b7100000000000000000000000000000000000000000000000000000000600052602260045260246000fd5b60006002820490506001821680610d8a57607f821691505b602082108103610d9d57610d9c610d43565b5b50919050565b60008190508160005260206000209050919050565b60006020601f8301049050919050565b600082821b905092915050565b600060088302610e057fffffffffffffffffffffffffffffffffffffffffffffffffffffffffffffffff82610dc8565b610e0f8683610dc8565b95508019841693508086168417925050509392505050565b6000819050919050565b6000610e4c610e47610e428461089b565b610e27565b61089b565b9050919050565b6000819050919050565b610e6683610e31565b610e7a610e7282610e53565b848454610dd5565b825550505050565b600090565b610e8f610e82565b610e9a818484610e5d565b505050565b5b81811015610ebe57610eb3600082610e87565b600181019050610ea0565b5050565b601f821115610f0357610ed481610da3565b610edd84610db8565b81016020851015610eec578190505b610f00610ef885610db8565b830182610e9f565b50505b505050565b600082821c905092915050565b6000610f2660001984600802610f08565b1980831691505092915050565b6000610f3f8383610f15565b9150826002028217905092915050565b610f5882610b54565b67ffffffffffffffff811115610f7157610f70610770565b5b610f7b8254610d72565b610f86828285610ec2565b600060209050601f831160018114610fb95760008415610fa7578287015190505b610fb18582610f33565b865550611019565b601f198416610fc786610da3565b60005b82811015610fef57848901518255600182019150602085019450602081019050610fca565b8683101561100c5784890151611008601f891682610f15565b8355505b6001600288020188555050505b505050505050565b7f4e487b7100000000000000000000000000000000000000000000000000000000600052601160045260246000fd5b600061105b8261089b565b91507fffffffffffffffffffffffffffffffffffffffffffffffffffffffffffffffff820361108d5761108c611021565b5b600182019050919050565b6110a181610b24565b82525050565b6110b08161089b565b82525050565b600082825260208201905092915050565b60006110d282610b54565b6110dc81856110b6565b93506110ec818560208601610b70565b6110f58161075f565b840191505092915050565b61110981610c32565b82525050565b6000610160830160008301516111286000860182611098565b50602083015161113b60208601826110a7565b506040830151848203604086015261115382826110c7565b9150506060830151848203606086015261116d82826110c7565b9150506080830151848203608086015261118782826110c7565b91505060a083015184820360a08601526111a182826110c7565b91505060c083015184820360c08601526111bb82826110c7565b91505060e083015184820360e08601526111d582826110c7565b9150506101008301516111ec6101008601826110a7565b506101208301516112016101208601826110a7565b50610140830151611216610140860182611100565b508091505092915050565b6002811061123257611231610bdc565b5b50565b600081905061124382611221565b919050565b600061125382611235565b9050919050565b61126381611248565b82525050565b60006040820190508181036000830152611283818561110f565b9050611292602083018461125a565b9392505050565b60006060820190506112ae6000830186610b45565b6112bb6020830185610c44565b6112c8604083018461125a565b94935050505056fea2646970667358221220ee63a38074b524a3e7d17be50ba4a9d50bab7d388a7b0b6b9d4f2d791be4e6d264736f6c634300080f0033",
  "immutableReferences": {},
  "source": "// SPDX-License-Identifier: MIT\npragma solidity ^0.8.15;\n\ncontract CopyrightManagement {\n    enum ContentType {\n        IMAGE,\n        AUDIO,\n        TEXT\n    }\n    enum ContentAction {\n        CREATE,\n        UPDATE\n    }\n    struct Content {\n        address ownerAddress;\n        uint256 Id;\n        string pHash;\n        string IPFSAddress;\n        string title;\n        string ownerName;\n        string ownerEmail;\n        string desc;\n        uint256 price;\n        uint256 publishDate;\n        ContentType contentType;\n    }\n    event addContentEvent(Content _content, ContentAction _content_action);\n\n    event updateContentPriceEvent(\n        address indexed _caller,\n        uint256 indexed _id,\n        uint256 _price,\n        ContentType _content_type,\n        ContentAction _content_action\n    );\n\n    uint256 public contentCount;\n\n    mapping(uint256 => Content) public contents;\n\n    function addContent(\n        string memory _pHash,\n        string memory _IPFSAddress,\n        string memory _title,\n        string memory _ownerName,\n        string memory _ownerEmail,\n        string memory _desc,\n        uint256 _price,\n        ContentType _contentType\n    ) public {\n        Content memory content = Content(\n            msg.sender,\n            contentCount,\n            _pHash,\n            _IPFSAddress,\n            _title,\n            _ownerName,\n            _ownerEmail,\n            _desc,\n            _price,\n            block.timestamp,\n            _contentType\n        );\n        contents[contentCount] = content;\n        contentCount++;\n        emit addContentEvent(content, ContentAction.CREATE);\n    }\n\n    function updateContentData(\n        uint256 _id,\n        string memory _desc,\n        uint256 _price,\n        ContentType _contentType\n    ) public {\n        contents[_id].desc = _desc;\n        contents[_id].price = _price;\n        emit updateContentPriceEvent(\n            msg.sender,\n            _id,\n            _price,\n            _contentType,\n            ContentAction.UPDATE\n        );\n    }\n}\n",
  "sourcePath": "/home/katai/Documents/GitHub/digital-copyright-management/truffle/contracts/CopyrightManagement.sol",
  "compiler": {
    "name": "solc",
    "version": "0.8.15+commit.e14f2714.Emscripten.clang"
  },
  "schemaVersion": "3.4.11",
  "updatedAt": "2023-03-26T21:29:47.747Z",
  "networkType": "ethereum",
  "devdoc": {
    "kind": "dev",
    "methods": {},
    "version": 1
  },
  "userdoc": {
    "kind": "user",
    "methods": {},
    "version": 1
  }
}