{
  "contractName": "CopyrightManagement",
  "abi": [
    {
      "anonymous": false,
      "inputs": [
        {
          "indexed": true,
          "internalType": "address",
          "name": "_creator",
          "type": "address"
        },
        {
          "indexed": true,
          "internalType": "uint256",
          "name": "_id",
          "type": "uint256"
        },
        {
          "indexed": false,
          "internalType": "enum CopyrightManagement.ContentType",
          "name": "_content_type",
          "type": "uint8"
        },
        {
          "indexed": false,
          "internalType": "enum CopyrightManagement.ContentAction",
          "name": "_content_action",
          "type": "uint8"
        }
      ],
      "name": "addContentEvent",
      "type": "event"
    },
    {
      "anonymous": false,
      "inputs": [
        {
          "indexed": true,
          "internalType": "address",
          "name": "_caller",
          "type": "address"
        },
        {
          "indexed": true,
          "internalType": "uint256",
          "name": "_id",
          "type": "uint256"
        },
        {
          "indexed": false,
          "internalType": "uint256",
          "name": "_price",
          "type": "uint256"
        },
        {
          "indexed": false,
          "internalType": "enum CopyrightManagement.ContentType",
          "name": "_content_type",
          "type": "uint8"
        },
        {
          "indexed": false,
          "internalType": "enum CopyrightManagement.ContentAction",
          "name": "_content_action",
          "type": "uint8"
        }
      ],
      "name": "updateContentPriceEvent",
      "type": "event"
    },
    {
      "inputs": [
        {
          "internalType": "uint256",
          "name": "",
          "type": "uint256"
        }
      ],
      "name": "audio",
      "outputs": [
        {
          "internalType": "address",
          "name": "ownerAddress",
          "type": "address"
        },
        {
          "internalType": "uint256",
          "name": "contentID",
          "type": "uint256"
        },
        {
          "internalType": "string",
          "name": "pHash",
          "type": "string"
        },
        {
          "internalType": "string",
          "name": "IPFSAddress",
          "type": "string"
        },
        {
          "internalType": "string",
          "name": "contentTitle",
          "type": "string"
        },
        {
          "internalType": "string",
          "name": "ownerName",
          "type": "string"
        },
        {
          "internalType": "string",
          "name": "ownerEmail",
          "type": "string"
        },
        {
          "internalType": "string",
          "name": "desc",
          "type": "string"
        },
        {
          "internalType": "uint256",
          "name": "price",
          "type": "uint256"
        },
        {
          "internalType": "uint256",
          "name": "publishDate",
          "type": "uint256"
        }
      ],
      "stateMutability": "view",
      "type": "function",
      "constant": true
    },
    {
      "inputs": [],
      "name": "audioCount",
      "outputs": [
        {
          "internalType": "uint256",
          "name": "",
          "type": "uint256"
        }
      ],
      "stateMutability": "view",
      "type": "function",
      "constant": true
    },
    {
      "inputs": [
        {
          "internalType": "address",
          "name": "",
          "type": "address"
        }
      ],
      "name": "balances",
      "outputs": [
        {
          "internalType": "uint256",
          "name": "",
          "type": "uint256"
        }
      ],
      "stateMutability": "view",
      "type": "function",
      "constant": true
    },
    {
      "inputs": [],
      "name": "imageCount",
      "outputs": [
        {
          "internalType": "uint256",
          "name": "",
          "type": "uint256"
        }
      ],
      "stateMutability": "view",
      "type": "function",
      "constant": true
    },
    {
      "inputs": [
        {
          "internalType": "uint256",
          "name": "",
          "type": "uint256"
        }
      ],
      "name": "images",
      "outputs": [
        {
          "internalType": "address",
          "name": "ownerAddress",
          "type": "address"
        },
        {
          "internalType": "uint256",
          "name": "contentID",
          "type": "uint256"
        },
        {
          "internalType": "string",
          "name": "pHash",
          "type": "string"
        },
        {
          "internalType": "string",
          "name": "IPFSAddress",
          "type": "string"
        },
        {
          "internalType": "string",
          "name": "contentTitle",
          "type": "string"
        },
        {
          "internalType": "string",
          "name": "ownerName",
          "type": "string"
        },
        {
          "internalType": "string",
          "name": "ownerEmail",
          "type": "string"
        },
        {
          "internalType": "string",
          "name": "desc",
          "type": "string"
        },
        {
          "internalType": "uint256",
          "name": "price",
          "type": "uint256"
        },
        {
          "internalType": "uint256",
          "name": "publishDate",
          "type": "uint256"
        }
      ],
      "stateMutability": "view",
      "type": "function",
      "constant": true
    },
    {
      "inputs": [],
      "name": "textCount",
      "outputs": [
        {
          "internalType": "uint256",
          "name": "",
          "type": "uint256"
        }
      ],
      "stateMutability": "view",
      "type": "function",
      "constant": true
    },
    {
      "inputs": [
        {
          "internalType": "uint256",
          "name": "",
          "type": "uint256"
        }
      ],
      "name": "texts",
      "outputs": [
        {
          "internalType": "address",
          "name": "ownerAddress",
          "type": "address"
        },
        {
          "internalType": "uint256",
          "name": "contentID",
          "type": "uint256"
        },
        {
          "internalType": "string",
          "name": "pHash",
          "type": "string"
        },
        {
          "internalType": "string",
          "name": "IPFSAddress",
          "type": "string"
        },
        {
          "internalType": "string",
          "name": "contentTitle",
          "type": "string"
        },
        {
          "internalType": "string",
          "name": "ownerName",
          "type": "string"
        },
        {
          "internalType": "string",
          "name": "ownerEmail",
          "type": "string"
        },
        {
          "internalType": "string",
          "name": "desc",
          "type": "string"
        },
        {
          "internalType": "uint256",
          "name": "price",
          "type": "uint256"
        },
        {
          "internalType": "uint256",
          "name": "publishDate",
          "type": "uint256"
        }
      ],
      "stateMutability": "view",
      "type": "function",
      "constant": true
    },
    {
      "inputs": [
        {
          "internalType": "string",
          "name": "_pHash",
          "type": "string"
        },
        {
          "internalType": "string",
          "name": "_IPFSAddress",
          "type": "string"
        },
        {
          "internalType": "string",
          "name": "_imageTitle",
          "type": "string"
        },
        {
          "internalType": "string",
          "name": "_ownerName",
          "type": "string"
        },
        {
          "internalType": "string",
          "name": "_ownerEmail",
          "type": "string"
        },
        {
          "internalType": "string",
          "name": "_desc",
          "type": "string"
        },
        {
          "internalType": "uint256",
          "name": "_price",
          "type": "uint256"
        }
      ],
      "name": "addImageContent",
      "outputs": [],
      "stateMutability": "nonpayable",
      "type": "function"
    },
    {
      "inputs": [
        {
          "internalType": "uint256",
          "name": "_id",
          "type": "uint256"
        },
        {
          "internalType": "string",
          "name": "_desc",
          "type": "string"
        },
        {
          "internalType": "uint256",
          "name": "_price",
          "type": "uint256"
        }
      ],
      "name": "updateImageData",
      "outputs": [],
      "stateMutability": "nonpayable",
      "type": "function"
    },
    {
      "inputs": [
        {
          "internalType": "string",
          "name": "_pHash",
          "type": "string"
        },
        {
          "internalType": "string",
          "name": "_IPFSAddress",
          "type": "string"
        },
        {
          "internalType": "string",
          "name": "_audioTitle",
          "type": "string"
        },
        {
          "internalType": "string",
          "name": "_ownerName",
          "type": "string"
        },
        {
          "internalType": "string",
          "name": "_ownerEmail",
          "type": "string"
        },
        {
          "internalType": "string",
          "name": "_desc",
          "type": "string"
        },
        {
          "internalType": "uint256",
          "name": "_price",
          "type": "uint256"
        }
      ],
      "name": "addAudioContent",
      "outputs": [],
      "stateMutability": "nonpayable",
      "type": "function"
    },
    {
      "inputs": [
        {
          "internalType": "uint256",
          "name": "_id",
          "type": "uint256"
        },
        {
          "internalType": "string",
          "name": "_desc",
          "type": "string"
        },
        {
          "internalType": "uint256",
          "name": "_price",
          "type": "uint256"
        }
      ],
      "name": "updateAudioData",
      "outputs": [],
      "stateMutability": "nonpayable",
      "type": "function"
    },
    {
      "inputs": [
        {
          "internalType": "string",
          "name": "_pHash",
          "type": "string"
        },
        {
          "internalType": "string",
          "name": "_IPFSAddress",
          "type": "string"
        },
        {
          "internalType": "string",
          "name": "_textTitle",
          "type": "string"
        },
        {
          "internalType": "string",
          "name": "_ownerName",
          "type": "string"
        },
        {
          "internalType": "string",
          "name": "_ownerEmail",
          "type": "string"
        },
        {
          "internalType": "string",
          "name": "_desc",
          "type": "string"
        },
        {
          "internalType": "uint256",
          "name": "_price",
          "type": "uint256"
        }
      ],
      "name": "addTextContent",
      "outputs": [],
      "stateMutability": "nonpayable",
      "type": "function"
    },
    {
      "inputs": [
        {
          "internalType": "uint256",
          "name": "_id",
          "type": "uint256"
        },
        {
          "internalType": "string",
          "name": "_desc",
          "type": "string"
        },
        {
          "internalType": "uint256",
          "name": "_price",
          "type": "uint256"
        }
      ],
      "name": "updateTextData",
      "outputs": [],
      "stateMutability": "nonpayable",
      "type": "function"
    }
  ],
  "bytecode": "0x608060405234801561001057600080fd5b50611f58806100206000396000f3fe608060405234801561001057600080fd5b50600436106100cf5760003560e01c80635c1219721161008c5780638929c2e3116100665780638929c2e31461023d57806392053b6314610259578063e863ec5e14610277578063f78c9ede14610295576100cf565b80635c121972146101af5780637b8696be146101e85780638485648214610204576100cf565b80630cf5863a146100d45780631cc38a831461010d57806327e235e31461012957806333a3ca221461015957806338cb3b49146101755780635616e62414610193575b600080fd5b6100ee60048036038101906100e99190611570565b6102b1565b6040516101049a99989796959493929190611686565b60405180910390f35b61012760048036038101906101229190611881565b610655565b005b610143600480360381019061013e91906119f7565b61082f565b6040516101509190611a24565b60405180910390f35b610173600480360381019061016e9190611881565b610847565b005b61017d610a24565b60405161018a9190611a24565b60405180910390f35b6101ad60048036038101906101a89190611a3f565b610a2a565b005b6101c960048036038101906101c49190611570565b610ac3565b6040516101df9a99989796959493929190611686565b60405180910390f35b61020260048036038101906101fd9190611a3f565b610e67565b005b61021e60048036038101906102199190611570565b610f00565b6040516102349a99989796959493929190611686565b60405180910390f35b61025760048036038101906102529190611a3f565b6112a4565b005b61026161133d565b60405161026e9190611a24565b60405180910390f35b61027f611343565b60405161028c9190611a24565b60405180910390f35b6102af60048036038101906102aa9190611881565b611349565b005b60056020528060005260406000206000915090508060000160009054906101000a900473ffffffffffffffffffffffffffffffffffffffff169080600101549080600201805461030090611add565b80601f016020809104026020016040519081016040528092919081815260200182805461032c90611add565b80156103795780601f1061034e57610100808354040283529160200191610379565b820191906000526020600020905b81548152906001019060200180831161035c57829003601f168201915b50505050509080600301805461038e90611add565b80601f01602080910402602001604051908101604052809291908181526020018280546103ba90611add565b80156104075780601f106103dc57610100808354040283529160200191610407565b820191906000526020600020905b8154815290600101906020018083116103ea57829003601f168201915b50505050509080600401805461041c90611add565b80601f016020809104026020016040519081016040528092919081815260200182805461044890611add565b80156104955780601f1061046a57610100808354040283529160200191610495565b820191906000526020600020905b81548152906001019060200180831161047857829003601f168201915b5050505050908060050180546104aa90611add565b80601f01602080910402602001604051908101604052809291908181526020018280546104d690611add565b80156105235780601f106104f857610100808354040283529160200191610523565b820191906000526020600020905b81548152906001019060200180831161050657829003601f168201915b50505050509080600601805461053890611add565b80601f016020809104026020016040519081016040528092919081815260200182805461056490611add565b80156105b15780601f10610586576101008083540402835291602001916105b1565b820191906000526020600020905b81548152906001019060200180831161059457829003601f168201915b5050505050908060070180546105c690611add565b80601f01602080910402602001604051908101604052809291908181526020018280546105f290611add565b801561063f5780601f106106145761010080835404028352916020019161063f565b820191906000526020600020905b81548152906001019060200180831161062257829003601f168201915b505050505090806008015490806009015490508a565b60006040518061014001604052803373ffffffffffffffffffffffffffffffffffffffff168152602001600054815260200189815260200188815260200187815260200186815260200185815260200184815260200183815260200142815250905080600460008054815260200190815260200160002060008201518160000160006101000a81548173ffffffffffffffffffffffffffffffffffffffff021916908373ffffffffffffffffffffffffffffffffffffffff1602179055506020820151816001015560408201518160020190816107329190611cba565b5060608201518160030190816107489190611cba565b50608082015181600401908161075e9190611cba565b5060a08201518160050190816107749190611cba565b5060c082015181600601908161078a9190611cba565b5060e08201518160070190816107a09190611cba565b50610100820151816008015561012082015181600901559050506000808154809291906107cc90611dbb565b91905055506000543373ffffffffffffffffffffffffffffffffffffffff167f55a9c0cf76ff0acaf359814cbc065af66f4a8d787ceb34d16f8a5f16adb3b31160008060405161081d929190611ec2565b60405180910390a35050505050505050565b60036020528060005260406000206000915090505481565b60006040518061014001604052803373ffffffffffffffffffffffffffffffffffffffff16815260200160025481526020018981526020018881526020018781526020018681526020018581526020018481526020018381526020014281525090508060056000600254815260200190815260200160002060008201518160000160006101000a81548173ffffffffffffffffffffffffffffffffffffffff021916908373ffffffffffffffffffffffffffffffffffffffff1602179055506020820151816001015560408201518160020190816109259190611cba565b50606082015181600301908161093b9190611cba565b5060808201518160040190816109519190611cba565b5060a08201518160050190816109679190611cba565b5060c082015181600601908161097d9190611cba565b5060e08201518160070190816109939190611cba565b5061010082015181600801556101208201518160090155905050600260008154809291906109c090611dbb565b91905055506002543373ffffffffffffffffffffffffffffffffffffffff167f55a9c0cf76ff0acaf359814cbc065af66f4a8d787ceb34d16f8a5f16adb3b31160016000604051610a12929190611ec2565b60405180910390a35050505050505050565b60025481565b81600560008581526020019081526020016000206007019081610a4d9190611cba565b508060056000858152602001908152602001600020600801819055506002543373ffffffffffffffffffffffffffffffffffffffff167f55a9c0cf76ff0acaf359814cbc065af66f4a8d787ceb34d16f8a5f16adb3b31160016000604051610ab6929190611ec2565b60405180910390a3505050565b60066020528060005260406000206000915090508060000160009054906101000a900473ffffffffffffffffffffffffffffffffffffffff1690806001015490806002018054610b1290611add565b80601f0160208091040260200160405190810160405280929190818152602001828054610b3e90611add565b8015610b8b5780601f10610b6057610100808354040283529160200191610b8b565b820191906000526020600020905b815481529060010190602001808311610b6e57829003601f168201915b505050505090806003018054610ba090611add565b80601f0160208091040260200160405190810160405280929190818152602001828054610bcc90611add565b8015610c195780601f10610bee57610100808354040283529160200191610c19565b820191906000526020600020905b815481529060010190602001808311610bfc57829003601f168201915b505050505090806004018054610c2e90611add565b80601f0160208091040260200160405190810160405280929190818152602001828054610c5a90611add565b8015610ca75780601f10610c7c57610100808354040283529160200191610ca7565b820191906000526020600020905b815481529060010190602001808311610c8a57829003601f168201915b505050505090806005018054610cbc90611add565b80601f0160208091040260200160405190810160405280929190818152602001828054610ce890611add565b8015610d355780601f10610d0a57610100808354040283529160200191610d35565b820191906000526020600020905b815481529060010190602001808311610d1857829003601f168201915b505050505090806006018054610d4a90611add565b80601f0160208091040260200160405190810160405280929190818152602001828054610d7690611add565b8015610dc35780601f10610d9857610100808354040283529160200191610dc3565b820191906000526020600020905b815481529060010190602001808311610da657829003601f168201915b505050505090806007018054610dd890611add565b80601f0160208091040260200160405190810160405280929190818152602001828054610e0490611add565b8015610e515780601f10610e2657610100808354040283529160200191610e51565b820191906000526020600020905b815481529060010190602001808311610e3457829003601f168201915b505050505090806008015490806009015490508a565b81600660008581526020019081526020016000206007019081610e8a9190611cba565b50806006600085815260200190815260200160002060080181905550823373ffffffffffffffffffffffffffffffffffffffff167fac43cf7903a65c20fa11b72e0d6be4768bc2c7fdff6e93a99df9ffd516a104fe8360026001604051610ef393929190611eeb565b60405180910390a3505050565b60046020528060005260406000206000915090508060000160009054906101000a900473ffffffffffffffffffffffffffffffffffffffff1690806001015490806002018054610f4f90611add565b80601f0160208091040260200160405190810160405280929190818152602001828054610f7b90611add565b8015610fc85780601f10610f9d57610100808354040283529160200191610fc8565b820191906000526020600020905b815481529060010190602001808311610fab57829003601f168201915b505050505090806003018054610fdd90611add565b80601f016020809104026020016040519081016040528092919081815260200182805461100990611add565b80156110565780601f1061102b57610100808354040283529160200191611056565b820191906000526020600020905b81548152906001019060200180831161103957829003601f168201915b50505050509080600401805461106b90611add565b80601f016020809104026020016040519081016040528092919081815260200182805461109790611add565b80156110e45780601f106110b9576101008083540402835291602001916110e4565b820191906000526020600020905b8154815290600101906020018083116110c757829003601f168201915b5050505050908060050180546110f990611add565b80601f016020809104026020016040519081016040528092919081815260200182805461112590611add565b80156111725780601f1061114757610100808354040283529160200191611172565b820191906000526020600020905b81548152906001019060200180831161115557829003601f168201915b50505050509080600601805461118790611add565b80601f01602080910402602001604051908101604052809291908181526020018280546111b390611add565b80156112005780601f106111d557610100808354040283529160200191611200565b820191906000526020600020905b8154815290600101906020018083116111e357829003601f168201915b50505050509080600701805461121590611add565b80601f016020809104026020016040519081016040528092919081815260200182805461124190611add565b801561128e5780601f106112635761010080835404028352916020019161128e565b820191906000526020600020905b81548152906001019060200180831161127157829003601f168201915b505050505090806008015490806009015490508a565b816004600085815260200190815260200160002060070190816112c79190611cba565b50806004600085815260200190815260200160002060080181905550823373ffffffffffffffffffffffffffffffffffffffff167fac43cf7903a65c20fa11b72e0d6be4768bc2c7fdff6e93a99df9ffd516a104fe836000600160405161133093929190611eeb565b60405180910390a3505050565b60005481565b60015481565b60006040518061014001604052803373ffffffffffffffffffffffffffffffffffffffff16815260200160015481526020018981526020018881526020018781526020018681526020018581526020018481526020018381526020014281525090508060066000600154815260200190815260200160002060008201518160000160006101000a81548173ffffffffffffffffffffffffffffffffffffffff021916908373ffffffffffffffffffffffffffffffffffffffff1602179055506020820151816001015560408201518160020190816114279190611cba565b50606082015181600301908161143d9190611cba565b5060808201518160040190816114539190611cba565b5060a08201518160050190816114699190611cba565b5060c082015181600601908161147f9190611cba565b5060e08201518160070190816114959190611cba565b5061010082015181600801556101208201518160090155905050600160008154809291906114c290611dbb565b91905055506001543373ffffffffffffffffffffffffffffffffffffffff167f55a9c0cf76ff0acaf359814cbc065af66f4a8d787ceb34d16f8a5f16adb3b31160026000604051611514929190611ec2565b60405180910390a35050505050505050565b6000604051905090565b600080fd5b600080fd5b6000819050919050565b61154d8161153a565b811461155857600080fd5b50565b60008135905061156a81611544565b92915050565b60006020828403121561158657611585611530565b5b60006115948482850161155b565b91505092915050565b600073ffffffffffffffffffffffffffffffffffffffff82169050919050565b60006115c88261159d565b9050919050565b6115d8816115bd565b82525050565b6115e78161153a565b82525050565b600081519050919050565b600082825260208201905092915050565b60005b8381101561162757808201518184015260208101905061160c565b83811115611636576000848401525b50505050565b6000601f19601f8301169050919050565b6000611658826115ed565b61166281856115f8565b9350611672818560208601611609565b61167b8161163c565b840191505092915050565b60006101408201905061169c600083018d6115cf565b6116a9602083018c6115de565b81810360408301526116bb818b61164d565b905081810360608301526116cf818a61164d565b905081810360808301526116e3818961164d565b905081810360a08301526116f7818861164d565b905081810360c083015261170b818761164d565b905081810360e083015261171f818661164d565b905061172f6101008301856115de565b61173d6101208301846115de565b9b9a5050505050505050505050565b600080fd5b600080fd5b7f4e487b7100000000000000000000000000000000000000000000000000000000600052604160045260246000fd5b61178e8261163c565b810181811067ffffffffffffffff821117156117ad576117ac611756565b5b80604052505050565b60006117c0611526565b90506117cc8282611785565b919050565b600067ffffffffffffffff8211156117ec576117eb611756565b5b6117f58261163c565b9050602081019050919050565b82818337600083830152505050565b600061182461181f846117d1565b6117b6565b9050828152602081018484840111156118405761183f611751565b5b61184b848285611802565b509392505050565b600082601f8301126118685761186761174c565b5b8135611878848260208601611811565b91505092915050565b600080600080600080600060e0888a0312156118a05761189f611530565b5b600088013567ffffffffffffffff8111156118be576118bd611535565b5b6118ca8a828b01611853565b975050602088013567ffffffffffffffff8111156118eb576118ea611535565b5b6118f78a828b01611853565b965050604088013567ffffffffffffffff81111561191857611917611535565b5b6119248a828b01611853565b955050606088013567ffffffffffffffff81111561194557611944611535565b5b6119518a828b01611853565b945050608088013567ffffffffffffffff81111561197257611971611535565b5b61197e8a828b01611853565b93505060a088013567ffffffffffffffff81111561199f5761199e611535565b5b6119ab8a828b01611853565b92505060c06119bc8a828b0161155b565b91505092959891949750929550565b6119d4816115bd565b81146119df57600080fd5b50565b6000813590506119f1816119cb565b92915050565b600060208284031215611a0d57611a0c611530565b5b6000611a1b848285016119e2565b91505092915050565b6000602082019050611a3960008301846115de565b92915050565b600080600060608486031215611a5857611a57611530565b5b6000611a668682870161155b565b935050602084013567ffffffffffffffff811115611a8757611a86611535565b5b611a9386828701611853565b9250506040611aa48682870161155b565b9150509250925092565b7f4e487b7100000000000000000000000000000000000000000000000000000000600052602260045260246000fd5b60006002820490506001821680611af557607f821691505b602082108103611b0857611b07611aae565b5b50919050565b60008190508160005260206000209050919050565b60006020601f8301049050919050565b600082821b905092915050565b600060088302611b707fffffffffffffffffffffffffffffffffffffffffffffffffffffffffffffffff82611b33565b611b7a8683611b33565b95508019841693508086168417925050509392505050565b6000819050919050565b6000611bb7611bb2611bad8461153a565b611b92565b61153a565b9050919050565b6000819050919050565b611bd183611b9c565b611be5611bdd82611bbe565b848454611b40565b825550505050565b600090565b611bfa611bed565b611c05818484611bc8565b505050565b5b81811015611c2957611c1e600082611bf2565b600181019050611c0b565b5050565b601f821115611c6e57611c3f81611b0e565b611c4884611b23565b81016020851015611c57578190505b611c6b611c6385611b23565b830182611c0a565b50505b505050565b600082821c905092915050565b6000611c9160001984600802611c73565b1980831691505092915050565b6000611caa8383611c80565b9150826002028217905092915050565b611cc3826115ed565b67ffffffffffffffff811115611cdc57611cdb611756565b5b611ce68254611add565b611cf1828285611c2d565b600060209050601f831160018114611d245760008415611d12578287015190505b611d1c8582611c9e565b865550611d84565b601f198416611d3286611b0e565b60005b82811015611d5a57848901518255600182019150602085019450602081019050611d35565b86831015611d775784890151611d73601f891682611c80565b8355505b6001600288020188555050505b505050505050565b7f4e487b7100000000000000000000000000000000000000000000000000000000600052601160045260246000fd5b6000611dc68261153a565b91507fffffffffffffffffffffffffffffffffffffffffffffffffffffffffffffffff8203611df857611df7611d8c565b5b600182019050919050565b7f4e487b7100000000000000000000000000000000000000000000000000000000600052602160045260246000fd5b60038110611e4357611e42611e03565b5b50565b6000819050611e5482611e32565b919050565b6000611e6482611e46565b9050919050565b611e7481611e59565b82525050565b60028110611e8b57611e8a611e03565b5b50565b6000819050611e9c82611e7a565b919050565b6000611eac82611e8e565b9050919050565b611ebc81611ea1565b82525050565b6000604082019050611ed76000830185611e6b565b611ee46020830184611eb3565b9392505050565b6000606082019050611f0060008301866115de565b611f0d6020830185611e6b565b611f1a6040830184611eb3565b94935050505056fea2646970667358221220d2cff22c3f73f27154d4d4d1ee0d89ef0f7179b2f65bfb2f4082d8ce5c37866b64736f6c634300080f0033",
  "immutableReferences": {},
  "source": "// SPDX-License-Identifier: MIT\npragma solidity ^0.8.15;\n\ncontract CopyrightManagement {\n    enum ContentType {\n        IMAGE,\n        AUDIO,\n        TEXT\n    }\n    enum ContentAction {\n        CREATE,\n        UPDATE\n    }\n    struct Content {\n        address ownerAddress;\n        uint256 contentID;\n        string pHash;\n        string IPFSAddress;\n        string contentTitle;\n        string ownerName;\n        string ownerEmail;\n        string desc;\n        uint256 price;\n        uint256 publishDate;\n    }\n    event addContentEvent(\n        address indexed _creator,\n        uint256 indexed _id,\n        ContentType _content_type,\n        ContentAction _content_action\n    );\n    event updateContentPriceEvent(\n        address indexed _caller,\n        uint256 indexed _id,\n        uint256 _price,\n        ContentType _content_type,\n        ContentAction _content_action\n    );\n\n    uint256 public imageCount;\n    uint256 public textCount;\n    uint256 public audioCount;\n\n    mapping(address => uint256) public balances;\n\n    mapping(uint256 => Content) public images;\n    mapping(uint256 => Content) public audio;\n    mapping(uint256 => Content) public texts;\n\n    function addImageContent(\n        string memory _pHash,\n        string memory _IPFSAddress,\n        string memory _imageTitle,\n        string memory _ownerName,\n        string memory _ownerEmail,\n        string memory _desc,\n        uint256 _price\n    ) public {\n        Content memory image = Content(\n            msg.sender,\n            imageCount,\n            _pHash,\n            _IPFSAddress,\n            _imageTitle,\n            _ownerName,\n            _ownerEmail,\n            _desc,\n            _price,\n            block.timestamp\n        );\n        images[imageCount] = image;\n        imageCount++;\n        emit addContentEvent(\n            msg.sender,\n            imageCount,\n            ContentType.IMAGE,\n            ContentAction.CREATE\n        );\n    }\n\n    function updateImageData(\n        uint256 _id,\n        string memory _desc,\n        uint256 _price\n    ) public {\n        images[_id].desc = _desc;\n        images[_id].price = _price;\n        emit updateContentPriceEvent(\n            msg.sender,\n            _id,\n            _price,\n            ContentType.IMAGE,\n            ContentAction.UPDATE\n        );\n    }\n\n    function addAudioContent(\n        string memory _pHash,\n        string memory _IPFSAddress,\n        string memory _audioTitle,\n        string memory _ownerName,\n        string memory _ownerEmail,\n        string memory _desc,\n        uint256 _price\n    ) public {\n        Content memory tmpAudio = Content(\n            msg.sender,\n            audioCount,\n            _pHash,\n            _IPFSAddress,\n            _audioTitle,\n            _ownerName,\n            _ownerEmail,\n            _desc,\n            _price,\n            block.timestamp\n        );\n        audio[audioCount] = tmpAudio;\n        audioCount++;\n        emit addContentEvent(\n            msg.sender,\n            audioCount,\n            ContentType.AUDIO,\n            ContentAction.CREATE\n        );\n    }\n\n    function updateAudioData(\n        uint256 _id,\n        string memory _desc,\n        uint256 _price\n    ) public {\n        audio[_id].desc = _desc;\n        audio[_id].price = _price;\n        emit addContentEvent(\n            msg.sender,\n            audioCount,\n            ContentType.AUDIO,\n            ContentAction.CREATE\n        );\n    }\n\n    function addTextContent(\n        string memory _pHash,\n        string memory _IPFSAddress,\n        string memory _textTitle,\n        string memory _ownerName,\n        string memory _ownerEmail,\n        string memory _desc,\n        uint256 _price\n    ) public {\n        Content memory text = Content(\n            msg.sender,\n            textCount,\n            _pHash,\n            _IPFSAddress,\n            _textTitle,\n            _ownerName,\n            _ownerEmail,\n            _desc,\n            _price,\n            block.timestamp\n        );\n        texts[textCount] = text;\n        textCount++;\n        emit addContentEvent(\n            msg.sender,\n            textCount,\n            ContentType.TEXT,\n            ContentAction.CREATE\n        );\n    }\n\n    function updateTextData(\n        uint256 _id,\n        string memory _desc,\n        uint256 _price\n    ) public {\n        texts[_id].desc = _desc;\n        texts[_id].price = _price;\n        emit updateContentPriceEvent(\n            msg.sender,\n            _id,\n            _price,\n            ContentType.TEXT,\n            ContentAction.UPDATE\n        );\n    }\n}\n",
  "sourcePath": "/home/katai/Documents/GitHub/digital-copyright-management/truffle/contracts/CopyrightManagement.sol",
  "compiler": {
    "name": "solc",
    "version": "0.8.15+commit.e14f2714.Emscripten.clang"
  },
  "schemaVersion": "3.4.11",
  "updatedAt": "2023-03-06T19:40:37.400Z",
  "networkType": "ethereum",
  "devdoc": {
    "kind": "dev",
    "methods": {},
    "version": 1
  },
  "userdoc": {
    "kind": "user",
    "methods": {},
    "version": 1
  }
}